:0400000017EF06F000
:1000080000C016F001C015F0E1CF17F0E2CF18F0EC
:100018001A50195C006E016A000E015A00C0A8F05F
:100028001950000806E20001A851000A02E172EC2A
:1000380005F000011E0EA96F000EAA6F1950A9271E
:10004800D8B0AA2B69EC05F0A9C0E1FFAAC0E2FF6D
:1000580000C0E6FF192A1950400A02E172EC05F0C7
:1000680016C000F015C001F017C0E1FF18C0E2FF8C
:02007800110075
:0C007A00060E0D6E0D2EFED700001200C9
:0A008600F9DF8A88F7DF8A9812007C
:0600900000000000120058
:10009600120E006E000E016E830E0024E16E0F0E2E
:1000A6000120E26EFF0EE66EF0DFEFDF8A848A98AB
:1000B6008A868A88DFDF83CFA7F08A988A96E5DF6B
:1000C600E4DF120E006E000E016E830E0024E16E58
:0E00D6000F0E0120E26EE66AA7C000F01200D5
:1000E4007F0E0001A715006E00C0A7F08A948A96BF
:1000F400BF0E001600C0A7F0008C00C0A7F000C01F
:0601040083FFBFDF1200C3
:10010A008A948A96B80E0001A711836EB7DF12008F
:10011A007F0E0001A715016E01C0A7F001AC03D044
:0C012A008A808A9202D08A908A82120099
:0E0136008A988A848A96A7C083FFA2DF1200EF
:10014400000E0001A15D0AE3A1517F0807E3000E40
:10015400A25D04E3A2513F0801E301D04AD0A1C04B
:10016400A7F0D9DFA2C0A7F0A733A79FA733A79F03
:10017400A733A79FC8DFA1C0A7F0B2DF8ADF00C002
:10018400A6F087DF00C0A6F0A2C0A7F0A733A79F00
:10019400A733A79FA733A79FB6DFA1C0A7F0A0DF0F
:1001A400070EA215006E00C0A4F000C001F0010EFD
:1001B400006E015004E000360090FF0FFBD700C032
:1001C400A4F0001CA56F09D0A551A6170FD0A45107
:1001D400A6130CD0A451A61B09D0A351000AF4E025
:1001E400A351010AF4E0A351020AF4E0A6C0A7F067
:0401F400A0DF120076
:1001F800000E00019E5D04E39E513F0801E301D01B
:1002080027D0000E9C5DD8A09C6B9C517F0802E211
:100218007F0E9C6F000E9D5DD8A09D6B9D517F0841
:1002280002E27F0E9D6F9C519D5D06E29CC0A0F08E
:100238009DC09CF0A0C09DF09C519D5D09E39CC0B1
:10024800A1F09EC0A2F09FC0A3F078DF9C2BF4D74A
:02025800120092
:10025A008AC08EF000018E518C5D0BE389C09CF040
:10026A008BC09DF08EC09EF08DC09FF0C0DF8E2B9C
:04027A00F1D71200A6
:10027E00800E00018A19006E800E005C02E1000EF5
:10028E00895D02E2896B8A6B800E006E800E8A1980
:10029E00005C02E189517F0804E27F0E896F000E37
:1002AE008A6F800E8E19006E800E005C02E1000EC9
:1002BE008D5D02E28D6B8E6B800E006E800E8E1940
:1002CE00005C02E18D517F0804E27F0E8D6F000EFF
:1002DE008E6F800E8C19006E800E005C02E1000E97
:1002EE008B5D02E28B6B8C6B800E006E800E8C1918
:1002FE00005C02E18B513F0804E23F0E8B6F000E53
:10030E008C6F800E9019006E800E005C02E1000E64
:10031E008F5D02E28F6B906B800E006E800E9019D7
:10032E00005C02E18F513F0804E23F0E8F6F000E1A
:10033E00906F89518D5D016E8A518E59026E01C08A
:10034E0092F002C093F08B518F5D946F8C51905947
:10035E00956F800E0218006E800E005C02E1000E9A
:10036E00015C0BE292510008926F9351000E93576D
:10037E00FF0E966FFF0E976F04D0010E966F000E54
:10038E00976F800E9519006E800E005C02E1000ED4
:10039E00945D0BE294510008946F9551000E9557A1
:1003AE00FF0E986FFF0E996F04D0010E986F000E1E
:1003BE00996F92379291933794379491953789C06C
:1003CE00A1F08BC0A2F091C0A3F0B5DE800E9519FE
:1003DE00006E800E9319005C02E19251945D3DE235
:1003EE0092C000F093C001F001320032019E01BCB8
:1003FE00018E0050945D9A6F015095599B6F8A51F2
:10040E008E1902E18D51891927E0800E9B19006E1D
:10041E00800E005C02E1000E9A5D08E398518B2776
:10042E0099518C2392519A5F93519B5B96518925DA
:10043E00006E97518A21016E00C089F001C08AF0CA
:10044E0094519A2795519B2300C0A1F08BC0A2F026
:10045E0091C0A3F070DED3D73CD094C000F095C00D
:10046E0001F001320032019E01BC018E0050925DFE
:10047E009A6F015093599B6F8C51901902E18F51D5
:10048E008B1927E0800E9B19006E800E005C02E136
:10049E00000E9A5D08E39651892797518A2394514D
:1004AE009A5F95519B5B98518B25006E99518C21CB
:1004BE00016E00C08BF001C08CF092519A279351BF
:1004CE009B2389C0A1F000C0A2F091C0A3F033DE3F
:0404DE00D3D712005E
:1004E2008BC004F08CC005F089C002F08AC003F012
:1004F2008DC000F08EC001F0010E00018D5F000E74
:100502008E5B005001100FE004C0E9FF05C0EAFF56
:1005120002C0E1FF03C0E2FFEECFE6FF024A032A78
:10052200044A052AE5D789C000F08AC001F012000A
:100532006FC089F070C08AF01E0E00018B6F000E32
:100542008C6F1A508B27D8B08C2B71C08DF072C073
:100552008EF0C6DF71511A2671C000F072C001F030
:02056200120085
:10056400000171516F5D016E026A000E025A01C0F2
:1005740083F002C084F0800E0218006E800E005CCE
:1005840002E1000E015C1AE283510008036E84C08C
:1005940004F0000E045673C001F0000E026E013622
:1005A40002360190800E0418006E800E0218005C62
:1005B40002E10150035C01E20FD212D073C001F0DA
:1005C400000E026E013602360190800E8419006E10
:1005D400800E0218005C02E10150835D01E2FCD14F
:1005E4007251705D016E026A000E025A01C083F0FE
:1005F40002C084F0800E0218006E800E005C02E1DE
:10060400000E015C1AE283510008036E84C004F0FA
:10061400000E045673C001F0000E026E013602365D
:100624000190800E0418006E800E0218005C02E136
:100634000150035C01E2D0D112D073C001F0000E6E
:10064400026E013602360190800E8419006E800E0F
:100654000218005C02E10150835D01E2BDD16FC06C
:1006640089F0735170258A6F8A2B71C08BF0735196
:10067400725D8C6F8C0774C08DF0EDDD796B7A6BD5
:10068400856B866B73517025006E016A000E012222
:100694007351715D046E056A000E055A0450005CC6
:1006A4007B6F055001587C6F73516F25026E036A8E
:1006B400000E03220250005C7D6F035001587E6FD0
:1006C4007351725D006E016A000E015A0250005CA3
:1006D4007F6F03500158806F0450005C816F055098
:1006E4000158826F73C077F0000E786F77C087F07F
:1006F40078C088F077C000F078C001F00036009030
:10070400013600C075F001C076F000500308756F23
:1007140001C076F0000E7657010E7725016E000EAB
:100724007821026E800E7A19006E800E0218005C29
:1007340002E10150795DD8B0F1D08851781902E115
:100744007751871956E073516F25896F8A6B000EB4
:100754008A238551895F86518A5B7351725D006E6D
:10076400016A000E015A875100268851012200C0F7
:100774008BF001C08CF07351715D8D6F8E6B000E28
:100784008E5B85518D2786518E2300C08FF001C06A
:1007940090F074C091F071DD73516F25896F8A6B8D
:1007A400000E8A238551895F86518A5B73517025B7
:1007B400006E016A000E01228751005E8851015AC1
:1007C40000C08BF001C08CF07351715D8D6F8E6B26
:1007D400000E8E5B85518D2786518E2300C08FF0CD
:1007E40001C090F074C091F048DD77C087F078C004
:1007F40088F07351725D026E036A000E035A7751DA
:100804000224896F785103208A6F8151895F825154
:100814008A5B79510224006E7A510320016E00C074
:100824008BF001C08CF07751025C8D6F78510358C6
:100834008E6F7F518D5F80518E5B00C08FF001C041
:1008440090F074C091F019DD73517025026E036A43
:10085400000E03227751025C896F785103588A6F26
:100864007D51895F7E518A5B7951025C006E7A51B9
:100874000358016E00C08BF001C08CF07751022444
:100884008D6F785103208E6F7B518D5F7C518E5B11
:1008940000C08FF001C090F074C091F0EEDC800EC7
:1008A4007619006E800E005C02E1000E755D13E2A5
:1008B40079C000F07AC001F00036009001360036AD
:1008C40000900136060E0026000E01220050752706
:1008D4000150762320D07751795D036E78517A598F
:1008E400046E03C000F004C001F00036009001362D
:1008F4000036009001360A0E0026000E0122005038
:10090400752701507623010E775F000E785B79C05E
:1009140085F07AC086F0794B7A2BFED6010E795D8C
:10092400016E000E7A59026E0250881902E1875155
:10093400011852E073516F25896F8A6B000E8A2368
:100944008551895F86518A5B7351725D006E016ABD
:10095400000E015A875100268851012200C08BF0F5
:1009640001C08CF07351715D8D6F8E6B000E8E5BC8
:1009740085518D2786518E2300C08FF001C090F0E1
:1009840074C091F07ADC73516F25896F8A6B000E05
:100994008A238551895F86518A5B73517025006E65
:1009A400016A000E01228751005E8851015A00C07D
:1009B4008BF001C08CF07351715D8D6F8E6B000EE6
:1009C4008E5B85518D2786518E2300C08FF001C028
:0A09D40090F074C091F051DC1200A5
:1009DE00000E0001715D04E371517F0801E301D047
:1009EE0028D0000E6F5DD8A06F6B6F513F0802E2EA
:1009FE003F0E6F6F000E705DD8A0706B70513F0888
:100A0E0002E23F0E706F6F51705D06E26FC073F0C1
:100A1E0070C06FF073C070F06F51705D0AE371C0FB
:100A2E00A1F06FC0A2F072C0A3F0A2EC00F06F2B89
:040A3E00F3D71200D8
:100A42001A50195C006E016A000E015A000E016E06
:020A5200120090
:100A540000016C6B0E0E6C5D14E26CC000F000368D
:100A6400009000360090080E002600C06FF0005081
:100A7400010F706F3F0E716F010E726FAEDF6C2B42
:040A8400E9D712009C
:100A8800070E00016F6F3F0E706F716B010E726F72
:100A9800A2DF070E6F6F3F0E706F7F0E716F010E32
:100AA800726F99DF9C6B7F0E9D6F070E9E6F010E14
:100AB8009F6FFCEC00F09C6B7F0E9D6F3F0E9E6F4E
:0A0AC800010E9F6FFCEC00F012001D
:100AD200AECF01F0ABA202D0AB98AB8801C000F060
:020AE200120000
:060AE400196A1A6A1200F3
:100AEA001B6A1C6A1D6A939A93989394939693909F
:100AFA0093928A9A120E006E000E016E830E0024E3
:100B0A00E16E0F0E0120E26EE66A8A948A968A9056
:100B1A008A828A8A3F0E836E43EC00F0C00E836E8F
:100B2A0043EC00F08A808A923F0E836E43EC00F019
:0A0B3A00C00E836E43EC00F01200C1
:100B44000900F5CFE6FF0006FBE10106F9E112001A
:100B54008A908A8200016E6B6E51070810E36EC0A2
:100B6400A7F085EC00F06D6B6D513F0806E36CC097
:100B7400A7F09BEC00F06D2BF7D76E2BEDD78A9284
:100B84008A806E6B6E51070810E36EC0A7F085EC87
:100B940000F06D6B6D513F0806E36CC0A7F09BEC51
:0C0BA40000F06D2BF7D76E2BEDD7120080
:100BB00000016C6B46DF000E015C02E1030E005C7D
:100BC00009E36C0E6F6F000E706F010E716F000EF7
:0A0BD000726FAFDC6CC000F0120081
:100BDA006CC0E9FF6DC0EAFFEECF01F001C06FF013
:100BEA00010E00016C25E96E000E6D21EA6EEECF52
:100BFA0000F000C070F0020E6C25D96E000E6D2157
:100C0A00DA6EDE50015C716F030E6C25D96E000E30
:100C1A006D21DA6EDE500024726F736B6EC074F051
:040C2A009CDC12003C
:100C2E0071EC06F05E6A5F6A0001606B616B626B6D
:100C3E00636B646B656B666B676B686B696B6A6B1A
:100C4E006B6B01DF1ADF0F0EC16E48DF6C6B7BDF43
:100C5E00050E5E6E190E5F6E010E626F010E636FF2
:100C6E00020E606F0E0E616F646B7A0E656F190E59
:100C7E00666F010E696F010E6A6F020E676F0E0EC0
:100C8E00686F6B6B5E0E6C6F000E6D6F6E6B9EDF22
:100C9E00D1DE005000080DE284DF0050FF0A09E1AA
:100CAE005E0E6F6F000E706F070E716F000E726F1B
:100CBE0039DC5E0E6C6F000E6D6F010E6E6F86DF8F
:100CCE004E0E0C6EEB0E0D6E0D2EFED70C2EFCD7AF
:040CDE00D9D7FFD78C
:100CE20010EE19F0020E006E010E016E060EF66E87
:0E0CF200000EF76E000EF86EA2EC05F0120078
:0100060000F9
:0100070000F8
:020000040030CA
:0E000000010C1F1EFF8381FF0FC00FE00F4099
:00000001FF
