:10000000DEEF03F00000000000EF00F00000000051
:0A0010000000000000000000F3D71C
:0C001C00060E0D6E0D2EFED70000120027
:06002800000000001200C0
:0A002E00F6DF8A88F4DF8A981200DA
:100038007F0E5914016E01C059F001AC03D08A80BB
:0A0048008A9202D08A908A82120088
:10005200AECF01F0ABA202D0AB98AB8801C000F0EA
:0200620012008A
:0A006400000E9EBA010E006E12009D
:0A006E00000EACB2010E006E12008D
:0E0078008A948A96B80E5910836ED5DF120056
:10008600120E006E000E016E830E0024E16E0F0E3E
:100096000120E26EFF0EE66EC4DFC3DF8A848A9813
:1000A6008A868A88B8DF83CF59F08A988A96B9DF1C
:1000B600B8DF120E006E000E016E830E0024E16E94
:0E00C6000F0E0120E26EE66A59C000F0120033
:0E00D4008A988A848A9659C083FFA7DF12009B
:1000E2007F0E5914006E00C059F08A948A96BF0E92
:1000F200001600C059F0008C00C059F000C083FF08
:0401020095DF120073
:10010600F250026EF29E0500FF6A0150FE6E00502C
:08011600FD6E02BEF28E120024
:10011E00000E535C0AE353507F0807E3000E545C55
:10012E0004E354503F0801E301D04AD053C059F0C4
:10013E007CDF54C059F05932599E5932599E59326A
:10014E00599E93DF53C059F0C5DF96DF00C058F0BB
:10015E0093DF00C058F054C059F05932599E5932AD
:10016E00599E5932599E81DF53C059F0B3DF070EA5
:10017E005414006E00C056F000C001F0010E006E67
:10018E00015004E000360090FF0FFBD700C056F080
:10019E00001C576E09D0575058160FD05650581293
:1001AE000CD05650581A09D05550000AF4E055504C
:1001BE00010AF4E05550020AF4E058C059F083DF0A
:0201CE0012001D
:0C01D00015C000F016C001F096DF120010
:1001DC008A908A824E6A4E5007080EE34EC059F040
:1001EC0045DF4D6A4D503F0805E34CC059F06CDFBC
:1001FC004D2AF8D74E2AEFD78A928A804E6A4E50F3
:10020C0007080EE34EC059F031DF4D6A4D503F08E0
:10021C0005E34CC059F058DF4D2AF8D74E2AEFD7DA
:02022C001200BE
:10022E00506A516A526A505007083DE3596AFDDE22
:10023E0050C059F01ADF596A4DDF4F6A4F503F08D0
:10024E0011E351504C24F66E52504D20F76E000EB5
:10025E004E20F86E0900F5CF59F035DF514A522A7B
:10026E004F2AECD7400E596EE0DE50C059F0FDDE3D
:10027E00400E596E2FDF400E4F6E4F507F0811E328
:10028E0051504C24F66E52504D20F76E000E4E20FB
:10029E00F86E0900F5CF59F016DF514A522A4F2A4F
:0802AE00ECD7502AC0D7120062
:1002B60000C002F001C003F0016A80B0012A0150BB
:1002C600010A010ED8A4000E006E00C006F0016AF5
:1002D60080B2012A0150010A010ED8A4000E006E58
:1002E60000C007F0016A80B4012A0150010A010E1C
:1002F600D8A4000E006E00C004F0016A80B6012A80
:100306000150010A010ED8A4000E006E00C005F0CF
:10031600016A80B8012A0150010A010ED8A4000E14
:10032600006E00C008F0050E006E02C0E1FF03C0BB
:10033600E2FF040EE96E000EEA6EEECFE6FF00065F
:04034600FCE11200C4
:10034A00000E4E5C04E34E503F0801E301D027D073
:10035A00000E4C5CD8A04C6A4C507F0802E27F0E1B
:10036A004C6E000E4D5CD8A04D6A4D507F0802E2DB
:10037A007F0E4D6E4C504D5C06E24CC050F04DC0A5
:10038A004CF050C04DF04C504D5C09E34CC053F05A
:10039A004EC054F04FC055F0BDDE4C2AF4D71200BF
:1003AA00000E4E5C04E34E507F0801E301D027D0D3
:1003BA00000E4C5CD8A04C6A4C503F0802E23F0E3B
:1003CA004C6E000E4D5CD8A04D6A4D503F0802E2BB
:1003DA003F0E4D6E4C504D5C06E24CC050F04DC085
:1003EA004CF050C04DF04C504D5C09E34EC053F0F8
:1003FA004CC054F04FC055F08DDE4C2AF4D7120091
:10040A001B6A196A1A6A939A93989394939693908B
:10041A0093928A9A120E006E000E016E830E0024C9
:10042A00E16E0F0E0120E26EE66A8A948A968A903D
:10043A008A828A8A3F0E836EF5DDC00E836EF2DDF4
:10044A008A808A923F0E836EEDDDC00E836EEADDEE
:02045A0012008E
:10045C00E20E4C6E0E0E4D6E000E4E6EE2DE290E4E
:10046C000B6E960E0C6E7F0E0D6E0D2EFED70C2E97
:0C047C00FCD70B2EFAD74C6AABDE120046
:100488000900F5CFE6FF0006FBE10106F9E11200DD
:10049800FF0E246EFF0E256EFF0E266EFF0E276ED2
:1004A800520E206E000E216E000E226E000E236E7C
:1004B800640E156E000E166E000E176E000E186E86
:1004C8006E0E1C6E000E1D6E000E1E6E000E1F6E50
:1004D800AC8A900EAB6E948E949C9EAA03D0AECF3D
:0604E80000F0FBD712003A
:1004EE00000E421802E1000E411808E13DC053F023
:1004FE003FC054F043C055F00BDED2D0486A496A73
:10050E003D503F5C4A6E3E5040584B6E41C046F0E7
:10051E0042C047F041C000F042C001F000360090EA
:10052E00013600C044F001C045F000500308446E8F
:10053E0001C045F0000E4556010E4624016E000E18
:10054E004720026E800E4918006E800E0218005C65
:10055E0002E10150485CD8B0A3D048503D24536E00
:10056E0046503F24546E43C055F0D2DD48503D24D2
:10057E00536E46503F5C546E43C055F0C9DD800E3D
:10058E00006E800E4918005C02E14850000812E22D
:10059E0048503D5C536E46503F24546E43C055F058
:1005AE00B7DD48503D5C536E46503F5C546E43C0C1
:1005BE0055F0AEDD4950471802E14650481835E077
:1005CE0046503F24536E4A50535E48503F24546E5B
:1005DE0043C055F09DDD46503F5C536E4A50535E0E
:1005EE0048503F24546E43C055F092DD800E006E8D
:1005FE00800E4918005C02E14850000816E2465091
:10060E003F24536E4A50535E48503F5C546E43C075
:10061E0055F07EDD46503F5C536E4A50535E485057
:10062E003F5C546E43C055F073DD800E4518006E6E
:10063E00800E005C02E1000E445C13E248C000F044
:10064E0049C001F0003600900136003600900136A8
:10065E00060E0026000E01220050442601504522AF
:10066E001CD04650485C036E47504958046E03C078
:10067E0000F004C001F00036009001360036009004
:10068E0001360A0E0026000E0122005044260150AB
:10069E004522010E465E000E475A484A492A4CD75B
:0206AE00120038
:1006B00000C03FF001C040F0460E006E000E016E1B
:1006C000FADD050E006E410EE16E000EE26E460E82
:1006D000E96E000EEA6EEECFE6FF0006FCE1435243
:1006E00005E03D50010F006E00C03DF0445204E0B3
:1006F0003D04006E00C03DF0425205E03E50010F47
:10070000006E00C03EF0415204E03E04006E00C0A6
:100710003EF0020E006E3FC0E1FF40C0E2FF3D0E22
:10072000E96E000EEA6EEECFE6FF0006FCE1120075
:100730003DC041F03EC042F0436A446A4050445CD0
:1007400002E13F50435C14E243DD0050010A0FE137
:1007500043504124456E44504220466E7ADC45C0E9
:10076000E1FF46C0E2FF00C0E6FF434A442AE6D765
:02077000120075
:100772003DC04CF03FC04DF03EC04EF041C04FF086
:10078200E3DD3DC04CF03FC04DF040C04EF041C0F3
:100792004FF0DADD3EC04CF040C04DF03DC04EF0AF
:1007A20041C04FF001DE3EC04CF040C04DF03FC0B2
:0A07B2004EF041C04FF0F8DD1200D8
:1007BC007A0E2E6E120E2F6E050E306E120E316EDC
:1007CC00400E326E200E336EFF0E346E010E356EFF
:1007DC00030E366E376AB886B06ACF0EAF6EAC8435
:1007EC0055DE020E0B6E040E0C6EBA0E0D6E0D2E37
:1007FC00FED70C2EFCD70B2EFAD700000F0EC16EB5
:10080C00FEDD4C6AE5DC55D123DE010E366E61D17E
:10081C00E20E4C6E0A0E4D6E000E4E6E02DD190E7F
:10082C003D6E000E3E6E220E3F6E000E406E040EAC
:10083C00416E000E426E010E436E53DE380E006E9A
:10084C00000E016E32DD050E006E280EE16E000EFC
:10085C00E26E380EE96E000EEA6EEECFE6FF000691
:10086C00FCE12C5210E03750000A0DE1340E0C6EF6
:10087C00F10E0D6E0D2EFED70C2EFCD700000000D5
:10088C00020E366E73D03750000A2DE1295203E167
:10089C00285201E128D04C6A9BDCE20E4C6E0A0E09
:1008AC004D6E000E4E6EBDDC190E3D6E000E3E6E92
:1008BC00300E3F6E000E406E040E416E000E426E06
:1008CC00010E436E0EDE0B0E0B6E260E0C6E5D0EC5
:1008DC000D6E0D2EFED70C2EFCD70B2EFAD700006A
:1008EC000000010E376E2C50010A10E13750010A3E
:1008FC000DE1340E0C6EF10E0D6E0D2EFED70C2E7E
:10090C00FCD700000000030E366E30D03750010AC1
:10091C002CE1295203E1285201E127D04C6A58DC22
:10092C00E20E4C6E0A0E4D6E000E4E6E7ADC190EF7
:10093C003D6E000E3E6E230E3F6E000E406E040E9A
:10094C00416E000E426E010E436ECBDD0B0E0B6E34
:10095C00260E0C6E5D0E0D6E0D2EFED70C2EFCD7DA
:10096C000B2EFAD700000000376A68D70B0E0B6EFF
:10097C00260E0C6E5D0E0D6E0D2EFED70C2EFCD7BA
:10098C000B2EFAD7000000004C6A22DCA2D02EC03D
:10099C0053F02FC054F0020E556E8FEC00F01A0E6F
:1009AC000C6EF80E0D6E0D2EFED70C2EFCD7000023
:1009BC00020E006E3D0EE16E000EE26E2E0EE96E22
:1009CC00000EEA6EEECFE6FF0006FCE1380E006E7C
:1009DC00000E016E67DE020E006E2E0EE16E000E32
:1009EC00E26E380EE96E000EEA6EEECFE6FF000600
:1009FC00FCE16FD0E8EC00F00050010A19E14C6A00
:100A0C00EEEC00F02D0E3D6E000E3E6E010E3F6EB4
:100A1C00000E406E87DE2D50EE0A01E009D0300E3C
:100A2C003D6E000E3E6E020E3F6E000E406E7ADE84
:100A3C004C6AEEEC00F0820E0C6EDD0E0D6E0D2E7F
:100A4C00FED70C2EFCD7000000002EC03DF02FC0AE
:100A5C003EF0020E2E243F6E0E0E2F24406E010E21
:100A6C00416E81DE30C03DF031C03EF0020E305C94
:100A7C003F6E0E0E3124406E010E416E74DE32C09C
:100A8C003DF0000E3E6E33C03FF0000E406E030E84
:100A9C00416E000E426E010E436E23DD1A0E0C6E7B
:100AAC00F80E0D6E0D2EFED70C2EFCD7000011D0BB
:100ABC0010D03650000AD8B4A7D63650010AD8B494
:100ACC00A7D63650020AD8B462D73650030A92E041
:060ADC00EFD799D6FFD709
:100AE2000000000000000000000000000000000004
:100AF20000000000000000000000FFFFFFFF8F8FDA
:100B02008F8F8F8F8F8F8FFFFFFFFF0000000000FE
:100B120000FFFFFFFF0F0F0F0F0F0F0FFFFFFFFF72
:100B22000000000000FFFFFFFF1FFFFFF0F080004A
:100B3200000000FFFFFFFF0000E0E0FEFE1E1F0FAF
:100B42000F0F0F0F0F0F0F0F0F0F0000000000000D
:100B52000000000000000000000000000000000093
:100B62000000000000000000000000000000000083
:100B720000000000000000000000FFFFFFFF070769
:100B82000707070707070707070707000000000016
:100B920000FFFFFFFF80808080808080FFFFFFFFDB
:100BA2000000000000FFFFFFFF000007077F7F78C3
:100BB20078F880FFFFFFFF00001F1FFFFFF0F080AB
:100BC200809E9E9E9E9EFEFEFEFC00000000000097
:100BD2000000000000000000000000000000000013
:100BE2000000000000000000000000000000000003
:100BF20000000000000000000000030303030000E7
:100C020000000000000000000000000000000000E2
:100C12000007070707070707070707070707070769
:100C220000000000000707070700000000000000A6
:100C3200000707070707070000000000000007077A
:100C4200070707070707070707070000000000005C
:100C52000000000000000000000000000000000092
:100C62000000000000000000000000000000000082
:100C72000000000000000000000000000000000072
:100C8200000000000000C0C0C0C000000000000062
:100C920000E0E0606060E0E00000E0E000000000F2
:100CA200E0E0606060E0E00000E0E00000E0E00022
:100CB20000E0E0606060600000E0E06060E0E000B2
:100CC2000000000000000000000000000000000022
:100CD2000000000000000000000000000000000012
:100CE2000000000000000000000000000000000002
:100CF20000000000000000000000000000000000F2
:100D020000000000000060607F7F60600000000063
:100D1200007F7F060606070700007F7F6060600095
:100D22007F7F0606067F7F000001037F7F030100AD
:100D3200007F7F6660606000007F7F0C1E7F730013
:100D420000000000000000000000000000000000A1
:100D52000000000000000000000000000000000091
:100D62000000000000000000000000000000000081
:100D72000000000000000000000000000000000071
:100D8200000000000000B0B0B0B0F0F000000000C1
:100D920000F8F8989898F8F80000F8F800000000B9
:100DA200F8F8989898F8F8000078F8C0C0F8780039
:100DB20000F8F8981818180000F8F81898F8F800D1
:100DC200F8F89898989800000000000000000000D1
:100DD2000000000000000000000000000000000011
:100DE2000000000000000000000000000000000001
:100DF20000000000000000000000000000000000F1
:100E02000000000000000F0F0D0D0D0D000000008E
:100E1200001F1F010101010100001F1F1818180007
:100E22001F1F0101011F1F000000001F1F00000003
:100E3200001F1F1918181800001F1F03071F1C008E
:100E42000D0D0D0D0F0F000000000000000000004E
:100E52000000000000000000000000000000000090
:100E62000000000000000000000000000000000080
:100E72000000000000000000000000000000000070
:100E82000000000000000000000000000000000060
:100E92000000000000000000000000000000000050
:100EA2000000000000000000000000000000000040
:100EB2000000000000000000000000000000000030
:100EC2000000000000000000000000000000000020
:100ED2000000000000000000000000000000000010
:100EE2000000000000000000000000000000000000
:100EF20000000000000000000000FFFFFFFF8F8FD6
:100F02008F8F8F8F8F8F8FFFFFFFFF0000000000FA
:100F120000FFFFFFFF0F0F0F0F0F0F0FFFFFFFFF6E
:100F22000000000000FFFFFFFF1FFFFFF0F0800046
:100F3200000000FFFFFFFF0000E0E0FEFE1E1F0FAB
:100F42000F0F0F0F0F0F0F0F0F0F00000000000009
:100F5200000000000000000000000000000000008F
:100F6200000000000000000000000000000000007F
:100F720000000000000000000000FFFFFFFF070765
:100F82000707070707070707070707000000000012
:100F920000FFFFFFFF80808080808080FFFFFFFFD7
:100FA2000000000000FFFFFFFF000007077F7F78BF
:100FB20078F880FFFFFFFF00001F1FFFFFF0F080A7
:100FC200809E9E9E9E9EFEFEFEFC00000000000093
:100FD200000000000000000000000000000000000F
:100FE200000000000000000000000000E0E00080BF
:100FF20080C0E060000000606060E3E36363600063
:1010020000E0E00000C0C0C0C0C0C00000C0C0C05E
:10101200C0C7C7C70707E7E7C70707E7E707070725
:101022000000000000C7C7C7C7C0C00000C0C0C0E2
:10103200C0C7C7C707C7C7C0C0C0C000C0C0C7C7F6
:10104200C7C707E7E7C70707E7E700C0C0C0C0C0D8
:10105200C0C00000C0C0C0C0C0000000000000004E
:101062000000000000000000000000007F7F070F6A
:101072000F1D38787000006060607F7F0000000004
:10108200007F7F00007F7F0C1E7F7700007F7F60E4
:1010920060607F7F00007F7F030F3C7F7F00000046
:1010A20060600000007F7F0C1E7F7700007F7F66FC
:1010B20066667F3F007F7F0C1E7F77007F7F6660C2
:1010C2006060007F7F030F3C7F7F007F7F666060F0
:1010D200606000006F6F6C7D7D000000000000000A
:1010E20000000000000000000000606060E0E060BE
:1010F20060606000E0E06060E0E000E0E0000000CE
:10110200E0E000000000E0E06060606000E0E060BD
:101112006060E0E000000000E0E06060606000000D
:10112200E0E0C00080C0E0E00000E0E06060E0E0FD
:10113200E000E0E06060606000E0E06060E0E0004D
:1011420000E0E00000E0E0E0E0C00000E0E060601D
:1011520060E0E000E0E060E0E0000000000000008D
:10116200000000000000000000000000003F3F00FF
:10117200000000003F3F06063F3F003F3F30300087
:101182003F3F303000003F3F33303030003F3F06BA
:10119200060F3F3B000000003F3F3330303000007D
:1011A2003F3F030707013F3F00003F3F33333F1FED
:1011B2001F003F3F33303030003F3F33333F1F008B
:1011C200003F3F00003F3F30391F0F003F3F3030AC
:1011D200303F3F003737363E3E000000000000003F
:1011E20000000000000000000000000000000000FD
:1011F20000000000000000000000000000000000ED
:10120200000000000000000000F8F8D818181800CC
:101212000000F8F898D8F8F80000FCFC00007C7C8C
:10122200C0C000C0E07C7C0000F8F8D81818180094
:1012320000F8F898D8F8F800F8F89898F8F800004C
:10124200000000000000000000000000000000009C
:10125200000000000000000000000000000000008C
:10126200000000000000000000000000000000007C
:10127200000000000000000000000000000000006C
:101282000000000000000000000F0F0C0C0C0C000E
:1012920000000F0F01030F0E00000F0F00000000EF
:1012A200030F0C0F03000000000F0F0C0C0C0C00BE
:1012B200000F0F01030F0E000F0F01010F0F0000AF
:1012C200000000000000000000000000000000001C
:1012D200000000000000000000000000000000000C
:020000040030CA
:0E000000010C1F1EFF8381FF0FC00FE00F4099
:00000001FF
