:1000000046EF03F00000000000EF00F000000000E9
:0A0010000000000000000000F3D71C
:0C001C00060E0D6E0D2EFED70000120027
:06002800000000001200C0
:0A002E00F6DF8A88F4DF8A981200DA
:100038007F0E4B14016E01C04BF001AC03D08A80D7
:0A0048008A9202D08A908A82120088
:0E0052008A948A96B80E4B10836EE8DF120077
:100060007F0E4B14006E00C04BF08A948A96BF0E30
:10007000001600C04BF0008C00C04BF000C083FFA6
:04008000D6DF1200B5
:0E0084008A988A848A964BC083FFCFDF1200D1
:10009200120E006E000E016E830E0024E16E0F0E32
:1000A2000120E26EFF0EE66EBEDFBDDF8A848A9813
:1000B2008A868A88B2DF83CF4BF08A988A96B3DF2A
:1000C200B2DF120E006E000E016E830E0024E16E8E
:0E00D2000F0E0120E26EE66A4BC000F0120035
:0A00E000000EACB2010E006E12001B
:1000EA00AECF01F0ABA202D0AB98AB8801C000F052
:0200FA001200F2
:0A00FC00000E9EBA010E006E120005
:10010600000E455C0AE345507F0807E3000E465C97
:1001160004E346503F0801E301D04AD045C04BF006
:1001260088DF46C04BF04B324B9E4B324B9E4B32D8
:100136004B9E8CDF45C04BF090DFA8DF00C04AF035
:10014600A5DF00C04AF046C04BF04B324B9E4B3207
:100156004B9E4B324B9E7ADF45C04BF07EDF070E3F
:100166004614006E00C048F000C001F0010E006E9B
:10017600015004E000360090FF0FFBD700C048F0A6
:10018600001C496E09D049504A160FD048504A12F1
:100196000CD048504A1A09D04750000AF4E047509C
:1001A600010AF4E04750020AF4E04AC04BF067DF68
:0201B600120035
:1001B800426A436A446A425007083DE34B6A38DFA3
:1001C80042C04BF042DF4B6A47DF416A41503F086B
:1001D80011E343503E24F66E44503F20F76E000E64
:1001E8004020F86E0900F5CF4BF048DF434A442A17
:1001F800412AECD7400E4B6E1BDF42C04BF025DF87
:10020800400E4B6E29DF400E416E41507F0811E3CE
:1002180043503E24F66E44503F20F76E000E4020B7
:10022800F86E0900F5CF4BF029DF434A442A412AEA
:08023800ECD7422AC0D71200E6
:10024000000E405C04E340503F0801E301D027D09A
:10025000000E3E5CD8A03E6A3E507F0802E27F0E50
:100260003E6E000E3F5CD8A03F6A3F507F0802E21E
:100270007F0E3F6E3E503F5C06E23EC042F03FC004
:100280003EF042C03FF03E503F5C09E33EC045F0C7
:1002900040C046F041C047F036DF3E2AF4D7120096
:1002A000F250026EF29E0500FF6A0150FE6E005091
:0802B000FD6E02BEF28E120089
:1002B8008A908A82406A405007080EE340C04BF09B
:1002C800C4DE3F6A3F503F0805E33EC04BF0D6DE30
:1002D8003F2AF8D7402AEFD78A928A80406A40504E
:1002E80007080EE340C04BF0B0DE3F6A3F503F08BE
:1002F80005E33EC04BF0C2DE3F2AF8D7402AEFD7CD
:020308001200E1
:10030A00000E405C04E340507F0801E301D027D08F
:10031A00000E3E5CD8A03E6A3E503F0802E23F0E05
:10032A003E6E000E3F5CD8A03F6A3F503F0802E293
:10033A003F0E3F6E3E503F5C06E23EC042F03FC079
:10034A003EF042C03FF03E503F5C09E340C045F0FA
:10035A003EC046F041C047F0D1DE3E2AF4D7120033
:10036A00720E156E060E166E2F0E176E000E186E92
:10037A00EA0E246E000E256E000E266E000E276E03
:10038A00FC0E206E000E216E000E226E000E236EF1
:10039A00E00E1C6E000E1D6E000E1E6E000E1F6E0D
:1003AA00AC8A900EAB6E948E949C9EAA03D0AECF6C
:0603BA0000F0FBD7120069
:1003C000000E341802E1000E331808E12FC045F08A
:1003D00031C046F035C047F096DED2D03A6A3B6A6B
:1003E0002F50315C3C6E305032583D6E33C038F087
:1003F00034C039F033C000F034C001F00036009052
:10040000013600C036F001C037F000500308366EE8
:1004100001C037F0000E3756010E3824016E000E71
:100420003920026E800E3B18006E800E0218005CB0
:1004300002E101503A5CD8B0A3D03A502F24456E67
:1004400038503124466E35C047F05DDE3A502F24D7
:10045000456E3850315C466E35C047F054DE800E34
:10046000006E800E3B18005C02E13A50000812E278
:100470003A502F5C456E38503124466E35C047F0F7
:1004800042DE3A502F5C456E3850315C466E35C0C6
:1004900047F039DE3B50391802E138503A1835E060
:1004A00038503124456E3C50455E3A503124466EFA
:1004B00035C047F028DE3850315C456E3C50455E13
:1004C0003A503124466E35C047F01DDE800E006E76
:1004D000800E3B18005C02E13A50000816E23850EA
:1004E0003124456E3C50455E3A50315C466E35C015
:1004F00047F009DE3850315C456E3C50455E3A505D
:10050000315C466E35C047F0FEDD800E3718006E58
:10051000800E005C02E1000E365C13E23AC000F08F
:100520003BC001F0003600900136003600900136E5
:10053000060E0026000E01220050362601503722FA
:100540001CD038503A5C036E39503B58046E03C0DF
:1005500000F004C001F00036009001360036009033
:1005600001360A0E0026000E0122005036260150E8
:100570003722010E385E000E395A3A4A3B2A4CD7D0
:02058000120067
:100582001B6A196A1A6A939A939893949396939012
:1005920093928A9A120E006E000E016E830E002450
:1005A200E16E0F0E0120E26EE66A8A948A968A90C4
:1005B2008A828A8A3F0E836E39DDC00E836E36DDF3
:1005C2008A808A923F0E836E31DDC00E836E2EDDED
:0205D200120015
:1005D400320E3E6E0F0E3F6E000E406EEBDD290EA6
:1005E4000B6E960E0C6E7F0E0D6E0D2EFED70C2E1E
:0C05F400FCD70B2EFAD73E6A5DDE120029
:0C06000024C000F025C001F04BDE120009
:10060C002FC03EF031C03FF030C040F033C041F05D
:10061C0011DE2FC03EF031C03FF032C040F033C08D
:10062C0041F008DE30C03EF032C03FF02FC040F049
:10063C0033C041F064DE30C03EF032C03FF031C018
:0A064C0040F033C041F05BDE120005
:100656000900F5CFE6FF0006FBE10106F9E112000D
:0C0666001CC000F01DC001F018DE1200E6
:0E067200ACB202D00000FCD72FC0ADFF1200CA
:0C06800020C000F021C001F00BDE1200D1
:10068C003E0E296E200E2A6E1E0E2B6E0F0E2C6E39
:10069C00030E2D6E2E6AB886B06ACF0EAF6EAC8488
:1006AC005EDE020E0B6E040E0C6EBA0E0D6E0D2E6F
:1006BC00FED70C2EFCD70B2EFAD700000F0EC16EF6
:1006CC005ADF3E6AF3DD1CD27FDF030E2D6E29D27A
:1006DC00320E3E6E0B0E3F6E000E406E67DD190E35
:1006EC002F6E000E306E220E316E000E326E040E26
:1006FC00336E000E346E010E356E5CDE80A810D0A9
:10070C002E50000A0DE1340E0C6EF10E0D6E0D2EF6
:10071C00FED70C2EFCD700000000020E2D6E86D0EA
:10072C002E50000A37E180B603D080B401D032D00D
:10073C003E6ABCDD340E0C6EF10E0D6E0D2EFED726
:10074C000C2EFCD700000000320E3E6E0B0E3F6EDE
:10075C00000E406E2BDD190E2F6E000E306E300E1B
:10076C00316E000E326E040E336E000E346E010EBE
:10077C00356E20DE0B0E0B6E260E0C6E5D0E0D6EA6
:10078C000D2EFED70C2EFCD70B2EFAD70000000036
:10079C00010E2E6E80A810D02E50010A0DE1340EE1
:1007AC000C6EF10E0D6E0D2EFED70C2EFCD700002C
:1007BC000000030E2D6E3AD02E50010A36E180B6A1
:1007CC0003D080B401D031D03E6A70DD340E0C6E93
:1007DC00F10E0D6E0D2EFED70C2EFCD70000000076
:1007EC00320E3E6E0B0E3F6E000E406EDFDC190EAD
:1007FC002F6E000E306E230E316E000E326E040E14
:10080C00336E000E346E010E356ED4DD0B0E0B6E96
:10081C00260E0C6E5D0E0D6E0D2EFED70C2EFCD71B
:10082C000B2EFAD7000000002E6A68D70B0E0B6E49
:10083C00260E0C6E5D0E0D6E0D2EFED70C2EFCD7FB
:10084C000B2EFAD7000000003E6A30DD6AD129C0B9
:10085C0045F02AC046F0020E476E4FDC1A0E0C6EA5
:10086C00F80E0D6E0D2EFED70C2EFCD7000029C0F5
:10087C0045F02AC046F0020E476E3FDC1A0E0C6E95
:10088C00F80E0D6E0D2EFED70C2EFCD7000080A09E
:10089C0011D03E6A0BDD0D0E0C6EFB0E0D6E0D2E87
:1008AC00FED70C2EFCD7000000002950010F006E63
:1008BC0000C029F080A210D03E6AF8DC0D0E0C6E40
:1008CC00FB0E0D6E0D2EFED70C2EFCD7000000007B
:1008DC002904006E00C029F080A411D03E6AE6DC29
:1008EC000D0E0C6EFB0E0D6E0D2EFED70C2EFCD7C6
:1008FC00000000002A50010F006E00C02AF080A6F4
:10090C0010D03E6AD3DC0D0E0C6EFB0E0D6E0D2E50
:10091C00FED70C2EFCD7000000002A04006E00C08D
:10092C002AF0FFD09ADE0050010AD8A48AD080A009
:10093C0021D0AA0E2F6E97DE3E6AB8DC820E0C6EAA
:10094C00DD0E0D6E0D2EFED70C2EFCD70000000018
:10095C002950010F006E00C029F029C02FF083DE52
:10096C00820E0C6EDD0E0D6E0D2EFED70C2EFCD7EE
:10097C000000000080A220D0AA0E2F6E74DE3E6A0A
:10098C0095DC820E0C6EDD0E0D6E0D2EFED70C2E30
:10099C00FCD7000000002904006E00C029F029C01B
:1009AC002FF061DE820E0C6EDD0E0D6E0D2EFED75D
:1009BC000C2EFCD70000000080A421D0BB0E2F6EA3
:1009CC0052DE3E6A73DC820E0C6EDD0E0D6E0D2E49
:1009DC00FED70C2EFCD7000000002A50010F006E31
:1009EC0000C02AF02AC02FF03EDE820E0C6EDD0E07
:1009FC000D6E0D2EFED70C2EFCD70000000080A62D
:100A0C0020D0BB0E2F6E2FDE3E6A50DC820E0C6E99
:100A1C00DD0E0D6E0D2EFED70C2EFCD70000000047
:100A2C002A04006E00C02AF02AC02FF01CDE820EB1
:100A3C000C6EDD0E0D6E0D2EFED70C2EFCD70000AD
:100A4C00000018DE005237E03E6A30DCD3DD00C017
:100A5C0028F00050AA0A15E1820E0C6EDD0E0D6E08
:100A6C000D2EFED70C2EFCD70000000003DE00522A
:100A7C0007E0C0DD00C028F0000E016E00C02BF0B6
:100A8C0019D02850BB0A15E1820E0C6EDD0E0D6ECE
:100A9C000D2EFED70C2EFCD700000000EBDD005213
:100AAC0007E0A8DD00C028F0000E016E00C02CF09D
:100ABC0001D0286A00D029C02FF02AC030F0020ED5
:100ACC002924316E030E2A24326E010E336E98DD0A
:100ADC002BC02FF02CC030F0020E2B5C316E030EAD
:100AEC002C24326E010E336E8BDD1A0E0C6EF80E4A
:100AFC000D6E0D2EFED70C2EFCD7000012D011D08F
:100B0C002D50000AD8B4E0D52D50010AD8B4E0D548
:100B1C002D50020AD8B49BD62D50030AD8B402D754
:060B2C00EED7D1D5FFD782
:100B320000000000000000000000000000000000B3
:100B420000000000000000000000FFFFFFFF8F8F89
:100B52008F8F8F8F8F8F8FFFFFFFFF0000000000AE
:100B620000FFFFFFFF0F0F0F0F0F0F0FFFFFFFFF22
:100B72000000000000FFFFFFFF1FFFFFF0F08000FA
:100B8200000000FFFFFFFF0000E0E0FEFE1E1F0F5F
:100B92000F0F0F0F0F0F0F0F0F0F000000000000BD
:100BA2000000000000000000000000000000000043
:100BB2000000000000000000000000000000000033
:100BC20000000000000000000000FFFFFFFF070719
:100BD20007070707070707070707070000000000C6
:100BE20000FFFFFFFF80808080808080FFFFFFFF8B
:100BF2000000000000FFFFFFFF000007077F7F7873
:100C020078F880FFFFFFFF00001F1FFFFFF0F0805A
:100C1200809E9E9E9E9EFEFEFEFC00000000000046
:100C220000000000000000000000000000000000C2
:100C320000000000000000000000000000000000B2
:100C42000000000000000000000003030303000096
:100C52000000000000000000000000000000000092
:100C62000007070707070707070707070707070719
:100C72000000000000070707070000000000000056
:100C8200000707070707070000000000000007072A
:100C9200070707070707070707070000000000000C
:100CA2000000000000000000000000000000000042
:100CB2000000000000000000000000000000000032
:100CC2000000000000000000000000000000000022
:100CD200000000000000C0C0C0C000000000000012
:100CE20000E0E0606060E0E00000E0E000000000A2
:100CF200E0E0606060E0E00000E0E00000E0E000D2
:100D020000E0E0606060600000E0E06060E0E00061
:100D120000000000000000000000000000000000D1
:100D220000000000000000000000000000000000C1
:100D320000000000000000000000000000000000B1
:100D420000000000000000000000000000000000A1
:100D520000000000000060607F7F60600000000013
:100D6200007F7F060606070700007F7F6060600045
:100D72007F7F0606067F7F000001037F7F0301005D
:100D8200007F7F6660606000007F7F0C1E7F7300C3
:100D92000000000000000000000000000000000051
:100DA2000000000000000000000000000000000041
:100DB2000000000000000000000000000000000031
:100DC2000000000000000000000000000000000021
:100DD200000000000000B0B0B0B0F0F00000000071
:100DE20000F8F8989898F8F80000F8F80000000069
:100DF200F8F8989898F8F8000078F8C0C0F87800E9
:100E020000F8F8981818180000F8F81898F8F80080
:100E1200F8F8989898980000000000000000000080
:100E220000000000000000000000000000000000C0
:100E320000000000000000000000000000000000B0
:100E420000000000000000000000000000000000A0
:100E52000000000000000F0F0D0D0D0D000000003E
:100E6200001F1F010101010100001F1F18181800B7
:100E72001F1F0101011F1F000000001F1F000000B3
:100E8200001F1F1918181800001F1F03071F1C003E
:100E92000D0D0D0D0F0F00000000000000000000FE
:100EA2000000000000000000000000000000000040
:100EB2000000000000000000000000000000000030
:100EC2000000000000000000000000000000000020
:100ED2000000000000000000000000000000000010
:100EE2000000000000000000000000000000000000
:100EF20000000000000000000000000000000000F0
:100F020000000000000000000000000000000000DF
:100F120000000000000000000000000000000000CF
:100F220000000000000000000000000000000000BF
:100F320000000000000000000000000000000000AF
:100F420000000000000000000000FFFFFFFF8F8F85
:100F52008F8F8F8F8F8F8FFFFFFFFF0000000000AA
:100F620000FFFFFFFF0F0F0F0F0F0F0FFFFFFFFF1E
:100F72000000000000FFFFFFFF1FFFFFF0F08000F6
:100F8200000000FFFFFFFF0000E0E0FEFE1E1F0F5B
:100F92000F0F0F0F0F0F0F0F0F0F000000000000B9
:100FA200000000000000000000000000000000003F
:100FB200000000000000000000000000000000002F
:100FC20000000000000000000000FFFFFFFF070715
:100FD20007070707070707070707070000000000C2
:100FE20000FFFFFFFF80808080808080FFFFFFFF87
:100FF2000000000000FFFFFFFF000007077F7F786F
:1010020078F880FFFFFFFF00001F1FFFFFF0F08056
:10101200809E9E9E9E9EFEFEFEFC00000000000042
:1010220000000000000000000000000000000000BE
:10103200000000000000000000000000E0E000806E
:1010420080C0E060000000606060E3E36363600012
:1010520000E0E00000C0C0C0C0C0C00000C0C0C00E
:10106200C0C7C7C70707E7E7C70707E7E7070707D5
:101072000000000000C7C7C7C7C0C00000C0C0C092
:10108200C0C7C7C707C7C7C0C0C0C000C0C0C7C7A6
:10109200C7C707E7E7C70707E7E700C0C0C0C0C088
:1010A200C0C00000C0C0C0C0C000000000000000FE
:1010B2000000000000000000000000007F7F070F1A
:1010C2000F1D38787000006060607F7F00000000B4
:1010D200007F7F00007F7F0C1E7F7700007F7F6094
:1010E20060607F7F00007F7F030F3C7F7F000000F6
:1010F20060600000007F7F0C1E7F7700007F7F66AC
:1011020066667F3F007F7F0C1E7F77007F7F666071
:101112006060007F7F030F3C7F7F007F7F6660609F
:10112200606000006F6F6C7D7D00000000000000B9
:1011320000000000000000000000606060E0E0606D
:1011420060606000E0E06060E0E000E0E00000007D
:10115200E0E000000000E0E06060606000E0E0606D
:101162006060E0E000000000E0E0606060600000BD
:10117200E0E0C00080C0E0E00000E0E06060E0E0AD
:10118200E000E0E06060606000E0E06060E0E000FD
:1011920000E0E00000E0E0E0E0C00000E0E06060CD
:1011A20060E0E000E0E060E0E0000000000000003D
:1011B200000000000000000000000000003F3F00AF
:1011C200000000003F3F06063F3F003F3F30300037
:1011D2003F3F303000003F3F33303030003F3F066A
:1011E200060F3F3B000000003F3F3330303000002D
:1011F2003F3F030707013F3F00003F3F33333F1F9D
:101202001F003F3F33303030003F3F33333F1F003A
:10121200003F3F00003F3F30391F0F003F3F30305B
:10122200303F3F003737363E3E00000000000000EE
:1012320000000000000000000000000000000000AC
:10124200000000000000000000000000000000009C
:10125200000000000000000000F8F8D8181818007C
:101262000000F8F898D8F8F80000FCFC00007C7C3C
:10127200C0C000C0E07C7C0000F8F8D81818180044
:1012820000F8F898D8F8F800F8F89898F8F80000FC
:10129200000000000000000000000000000000004C
:1012A200000000000000000000000000000000003C
:1012B200000000000000000000000000000000002C
:1012C200000000000000000000000000000000001C
:1012D2000000000000000000000F0F0C0C0C0C00BE
:1012E20000000F0F01030F0E00000F0F000000009F
:1012F200030F0C0F03000000000F0F0C0C0C0C006E
:10130200000F0F01030F0E000F0F01010F0F00005E
:1013120000000000000000000000000000000000CB
:1013220000000000000000000000000000000000BB
:020000040030CA
:0E000000010C1F1EFF8381FF0FC00FE00F4099
:00000001FF
