:04000000B3EF09F061
:1000080000C016F001C015F0E1CF17F0E2CF18F0EC
:100018001A50195C006E016A000E015A00C0D1F036
:100028001950000806E20001D151000A02E15BEC18
:1000380007F00001360ED26F000ED36F1950D22789
:10004800D8B0D32B5EEC07F0D2C0E1FFD3C0E2FFFB
:1000580000C0E6FF192A1950400A02E15BEC07F0DC
:1000680016C000F015C001F017C0E1FF18C0E2FF8C
:02007800110075
:0C007A00060E0D6E0D2EFED700001200C9
:0A008600F9DF8A88F7DF8A9812007C
:0600900000000000120058
:100096007F0E0001D015006E00C0D0F08A948A96BB
:1000A600BF0E001600C0D0F0008C00C0D0F000C01B
:0600B60083FFE6DF1200EB
:1000BC008A948A96B80E0001D011836EDEDF12008E
:1000CC007F0E0001D015016E01C0D0F001AC03D041
:0C00DC008A808A9202D08A908A821200E8
:1000E800120E006E000E016E830E0024E16E0F0EDC
:1000F8000120E26EFF0EE66EC7DFC6DF8A848A98AB
:100108008A868A88B6DF83CFD0F08A988A96BCDF41
:10011800BBDF120E006E000E016E830E0024E16E2E
:0E0128000F0E0120E26EE66AD0C000F0120059
:0E0136008A988A848A96D0C083FFA2DF1200C6
:10014400000E0001CA5D0AE3CA517F0807E3000EEE
:10015400CB5D04E3CB513F0801E301D04AD0CAC0D0
:10016400D0F0B2DFCBC0D0F0D033D09FD033D09F0B
:10017400D033D09FA1DFCAC0D0F08BDFB3DF00C083
:10018400CFF0B0DF00C0CFF0CBC0D0F0D033D09FE1
:10019400D033D09FD033D09F8FDFCAC0D0F079DF67
:1001A400070ECB15006E00C0CDF000C001F0010EAB
:1001B400006E015004E000360090FF0FFBD700C032
:1001C400CDF0001CCE6F09D0CE51CF170FD0CD513A
:1001D400CF130CD0CD51CF1B09D0CC51000AF4E081
:1001E400CC51010AF4E0CC51020AF4E0CFC0D0F0C3
:0401F400A0DF120076
:1001F800086A080E0C6E003408360450085ED8B041
:0E02080002D00826D89000360C2EF5D7120032
:100216000B6A0A6A096A00500402F4CF09F0F3CFA8
:1002260008F001500502F4CF0BF0F3CF0AF00050AE
:100236000502F3500926F4500A22E86A0B220150FF
:100246000402F3500926F4500A22E86A0B2208C079
:1002560000F009C001F00AC002F00BC003F0120062
:10026600000E0001C25D04E3C2517F0801E301D024
:1002760027D0000EC05DD8A0C06BC0513F0802E277
:100286003F0EC06F000EC15DD8A0C16BC1513F08C3
:1002960002E23F0EC16FC051C15D06E2C0C0C4F0AC
:1002A600C1C0C0F0C4C0C1F0C051C15D09E3C2C045
:1002B600CAF0C0C0CBF0C3C0CCF041DFC02BF4D72E
:0202C600120024
:1002C800C0C021F0C1C022F0000E236E246E010EC2
:0402D8002C6E120076
:1002DC000001C251070801E282D07B51C05D006E63
:1002EC007CC001F0000E015686C004F0000E056EB5
:1002FC008CDF00C0C8F001C0C9F0C1C0D0F0C5DEB1
:10030C00C2C0D0F0D5DEC46B8651C45D49E2C15188
:10031C007F0801E264D0C1C0D0F0D2DEC2C0D0F000
:10032C00C7DEC1C0D0F0B1DED9DE00C0C5F0D6DE6C
:10033C0000C0C5F0C1C0D0F0C3DEC2C0D0F0B8DE82
:10034C00C1C0D0F0A2DEC8518725F66EC9518821F4
:10035C00F76E000EC9BFFF0E8921F86E0900F5CFAC
:10036C0000F000C0C6F0C84BC92B001CC76F09D0E9
:10037C00C7C0C5F00FD0C6C0C5F00CD0C651C51B48
:10038C0009D0C351000AF4E0C351010AF4E0C3518F
:10039C00020AF4E0C5C0D0F0C8DEC12BC42BB4D720
:1003AC00C1C0D0F08DDEC2C0D0F082DEC1C0D0F0B2
:1003BC006CDEFF0EC66FC76B0CD0C6C0C5F0C6C0D6
:1003CC00D0F0B3DE0CD0C7C0C5F0C7C0D0F0ADDEE6
:1003DC0006D0C351000AF1E0C351010AF4E0120047
:1003EC000001C36B030EC35D0AE2C351C125E16E6C
:1003FC00000EC221E26E200EE66EC32BF3D7C35162
:10040C00C125E16E000EC221E26EE66AC307C3513C
:10041C00C125C46F000EC221C56F0A0E046EC0C088
:10042C0000F0E4DE08C000F0300E0026C4C0E1FF8E
:10043C00C5C0E2FF00C0E6FF0A0E046EC0C000F0AB
:10044C00D5DE00C0C0F00050000A01E102D0C307A5
:04045C00DED71200D5
:10046000220E0C6E086A096A0A6A0B6A0C06D8B476
:100470001FD0D8900B320A320932083203320232CE
:1004800001320032D8A0F2D70C06D8B409D00450FB
:1004900008260550092206500A2207500B22EAD7E7
:1004A000045008260550092206500A2207500B2244
:0204B000120038
:1004B200C2C004F0C3C005F0C0C002F0C1C003F066
:1004C200C4C000F0C5C001F0010E0001C45F000EFF
:1004D200C55B005001100FE004C0E9FF05C0EAFF50
:1004E20002C0E1FF03C0E2FFEECFE6FF024A032AA9
:1004F200044A052AE5D7C0C000F0C1C001F01200CD
:0E050200ACB202D00000FCD7C0C0ADFF1200AA
:10051000000E0001C25D04E3C2513F0801E301D0B7
:1005200027D0000EC05DD8A0C06BC0517F0802E28A
:100530007F0EC06F000EC15DD8A0C16BC1517F0896
:1005400002E27F0EC16FC051C15D06E2C0C0C4F0BF
:10055000C1C0C0F0C4C0C1F0C051C15D09E3C0C09A
:10056000CAF0C2C0CBF0C3C0CCF0ECDDC02BF4D7D6
:02057000120077
:100572000134083609360450085E0550D8A0053CFF
:10058200095E003601360F0E0C6E0134083609364C
:10059200045000A006D0085E0550D8A0053C095EB4
:1005A20005D008260550D8B0053C0926003601368C
:1005B2000C2EEBD700B006D0045008260550D8B058
:0805C200053C092600001200AF
:0A05CA00000EACB2010E006E12002C
:1005D4000001BC6B2B50000A0EE1050E866F070E5E
:1005E400856F9C0E876F240E886F000E896F200E16
:1005F4007B6F000E7C6FBC51B725E96E000EB821ED
:10060400EA6EEE5216E0BC51B725E96E000EB82131
:10061400EA6EEECFC0F0B9C0C1F0BAC0C2F0BBC040
:10062400C3F05ADE8651010F006E0050B927BC2B6F
:04063400E2D71200F7
:10063800B7C0C0F0B9C0C1F0B8C0C2F0BBC0C3F009
:1006480063DFB7C0C0F0B9C0C1F0BAC0C2F0BBC068
:10065800C3F05ADFB8C0C0F0BAC0C1F0B7C0C2F02A
:10066800BBC0C3F0FCDDB8C0C0F0BAC0C1F0B9C0AF
:0A067800C2F0BBC0C3F0F3DD1200B6
:1006820000C002F001C003F0016A80B0012A0150EB
:10069200010A010ED8A4000E006E00C006F0016A25
:1006A20080B2012A0150010A010ED8A4000E006E88
:1006B20000C007F0016A80B4012A0150010A010E4C
:1006C200D8A4000E006E00C004F0016A80B6012AB0
:1006D2000150010A010ED8A4000E006E00C005F000
:1006E200016A80B8012A0150010A010ED8A4000E45
:1006F200006E00C008F0050E006E02C0E1FF03C0EC
:10070200E2FF040EE96E000EEA6EEECFE6FF00068F
:04071200FCE11200F4
:10071600B7C0C0F0B8C0C1F0360E0001C26F000EFF
:10072600C36F1A50C227D8B0C32BB9C0C4F0BAC021
:10073600C5F0BCDEB9511A26B9C000F0BAC001F046
:0207460012009F
:100748000001BC6BBD6BB7C0BEF0000EB7BFFF0E9B
:10075800BF6F800EB719006E800E000A005C0AE2B7
:10076800BC4BBD2BB7510008BE6FBF6B000EB7BFA7
:10077800FF0EBF5BBEC0C0F0B8C0C1F0B9C0C2F0C8
:1007880031DE040EBA6F000EBB6F000E006EBB5157
:10079800005C02E1BA51000819E2BA51B825E16ECD
:1007A800BB51B921E26E010EBA5D006E000EBB5955
:1007B800016E0050B825E96E0150B921EA6EEECFFE
:1007C800E6FF010EBA5F000EBB5BDFD7B8C0E1FFE2
:1007D800B9C0E2FF200EE66EBC51BD111AE0BA6B3B
:1007E800BB6BBA51B825E96EBB51B921EA6EEE5020
:1007F800200A03E1BA4BBB2BF4D7010EBA5F000EF7
:10080800BB5BBA51B825E16EBB51B921E26E2D0E22
:04081800E66E120076
:10081C000001B96BBA6BB7C003F0B8C004F0B7C035
:10082C0005F0B8C006F003C0E9FF04C0EAFFEE50C3
:10083C00200A04E1B951BA1101E110D0010EB96FCF
:10084C00000EBA6F03C0E9FF04C0EAFF05C0E1FF68
:10085C0006C0E2FFEECFE6FF054A062A03C001F010
:10086C0004C002F0034A042A01C0E9FF02C0EAFFF7
:10087C00EE50000AD8E1B7C000F0B8C001F0120089
:10088C001A50195C006E016A000E015A000E016EBE
:02089C00120048
:10089E002C5206E1010E0001C06F000EC16F0DDD7E
:1008AE0021C000F022C001F023C002F024C003F0EA
:1008BE006D0E046E4E0E056EC60E066E410E076E62
:1008CE00C8DD390E0024056E300E0120066E000EB6
:1008DE000220076E000E0320086E07C000F008C04D
:1008EE0001F0000E08BEFF0E026E036EFF0E001624
:1008FE007F0E0116000E0216031600C021F001C075
:0C090E0022F002C023F003C024F012000D
:10091A000450000A08E10550000A05E1FF0E006EC6
:10092A007F0E016E57D00D6A096A086A01500010DD
:10093A00D8B4000C015005180A6E0ABE0D1E0B6AC7
:10094A0005AE05D0041E051E042AD8B4052A01AE38
:10095A0005D0001E011E002AD8B4012A0150051034
:10096A000A6E0ABE10D000DE0BB020D00DAE000C0D
:10097A00001E011E002AD8B4012A081E091E082AD0
:10098A00D8B4092A000C05AE0DD001BE07D001501B
:10099A00096E0050086E016A006AE8D7016A006AA7
:1009AA00002A000C011E001E0B2ADDD7082AD8B423
:1009BA00092A0450085CD8A4D9D70550095CD8A4E0
:1009CA00D5D7096A086A002AD8B4012A01AECED757
:0609DA000000FF0C1200FA
:1009E000020E00017D6F050E7E6FC00E7F6F000E40
:1009F000806FBC0E816F0E0E826F000E836F000E33
:100A0000846FFF0E256EFF0E266E000E276E000E01
:100A1000286ECA0E326E050E336E000E346E000E56
:100A2000356EAC8A900EAB6E948E949C9EAA03D0C9
:080A3000AECF00F0FBD712006D
:100A38000001BB6BBC6BBD6BBB51070845E3D06BBA
:100A480066EC00F0BBC0D0F05EEC00F0D06B4BEC75
:100A580000F0BA6BBA513F0812E3BC51B725F66EE5
:100A6800BD51B821F76E000EB921F86E0900F5CF17
:100A7800D0F09BEC00F0BC4BBD2BBA2BEBD7400E53
:100A8800D06F66EC00F0BBC0D0F05EEC00F0400E1A
:100A9800D06F4BEC00F0400EBA6FBA517F0812E3EA
:100AA800BC51B725F66EBD51B821F76E000EB921BD
:100AB800F86E0900F5CFD0F09BEC00F0BC4BBD2BD5
:0A0AC800BA2BEBD7BB2BB8D71200F6
:100AD2008A908A820001B96BB951070810E3B9C044
:100AE200D0F05EEC00F0B86BB8513F0806E3B7C037
:100AF200D0F09BEC00F0B82BF7D7B92BEDD78A9248
:100B02008A80B96BB951070810E3B9C0D0F05EEC26
:100B120000F0B86BB8513F0806E3B7C0D0F09BECC9
:0C0B220000F0B82BF7D7B92BEDD712006C
:100B2E00B7C0BBF0B8C0BCF00001BD6BBE6BBA5114
:100B3E00BE5D02E1B951BD5D11E240DD0050010A1A
:100B4E000CE1BD51BB25E96EBE51BC21EA6EEECF64
:100B5E00C0F0D0DC0001BD4BBE2BE9D7B9C000F010
:060B6E00BAC001F0120004
:100B7400A8C0E9FFA9C0EAFFEECF01F001C0B7F0B9
:100B8400010E0001A825E96E000EA921EA6EEECF40
:100B940000F000C0B8F0020E015CB96F0E0E002424
:0A0BA400BA6F010EBB6F46DD1200B0
:100BAE002B6A296A2A6A939A9398939493969390B0
:100BBE0093928A9A120E006E000E016E830E00241E
:100BCE00E16E0F0E0120E26EE66A8A948A968A9092
:100BDE008A828A8A3F0E836E43EC00F0C00E836ECB
:100BEE0043EC00F08A808A923F0E836E43EC00F055
:0A0BFE00C00E836E43EC00F01200FD
:100C0800000E0001AD1902E1000EAC1909E1A8C0FF
:100C1800CAF0AAC0CBF0AEC0CCF0A2EC00F0DAD09B
:100C2800B36BB46BA851AA5DB56FA951AB59B66F38
:100C3800ACC0B1F0ADC0B2F0ACC000F0ADC001F0D6
:100C480000360090013600C0AFF001C0B0F000508F
:100C58000308AF6F01C0B0F0000EB057010EB12508
:100C6800016E000EB221026E800EB419006E800E65
:100C78000218005C02E10150B35DD8B0ABD0B351AB
:100C8800A825CA6FB151AA25CB6FAEC0CCF0A2EC93
:100C980000F0B351A825CA6FB151AA5DCB6FAEC0A1
:100CA800CCF0A2EC00F0800E006E800EB419005C4F
:100CB80002E1B351000814E2B351A85DCA6FB15103
:100CC800AA25CB6FAEC0CCF0A2EC00F0B351A85D62
:100CD800CA6FB151AA5DCB6FAEC0CCF0A2EC00F0E8
:100CE800B451B21902E1B151B31939E0B151AA2591
:100CF800CA6FB551CA5FB351AA25CB6FAEC0CCF04D
:100D0800A2EC00F0B151AA5DCA6FB551CA5FB351E8
:100D1800AA25CB6FAEC0CCF0A2EC00F0800E006E1E
:100D2800800EB419005C02E1B351000818E2B15119
:100D3800AA25CA6FB551CA5FB351AA5DCB6FAEC0C1
:100D4800CCF0A2EC00F0B151AA5DCA6FB551CA5FF0
:100D5800B351AA5DCB6FAEC0CCF0A2EC00F0800E10
:100D6800B019006E800E005C02E1000EAF5D13E268
:100D7800B3C000F0B4C001F0003600900136003670
:100D880000900136060E0026000E01220050AF2703
:100D98000150B0231CD0B151B35D036EB251B459A8
:100DA800046E03C000F004C001F000360090013664
:100DB8000036009001360A0E0026000E012200506F
:100DC800AF270150B023010EB15F000EB25BB34BE9
:060DD800B42B44D7120009
:100DDE000900F5CFE6FF0006FBE10106F9E112007E
:100DEE0000C0AAF001C0ABF0B10E006E000E016E95
:100DFE0041DC050E006EAC0EE16E000EE26EB10E21
:100E0E00E96E000EEA6EEECFE6FF0006FCE1000191
:100E1E00AE5305E0A851010F006E00C0A8F0AF530D
:100E2E0004E0A805006E00C0A8F0AD530AE0A95179
:100E3E00010F006E00C0A9F0310EA95D02E3310E64
:100E4E00A96FAC5309E0A905006E00C0A9F0A95125
:100E5E00070802E3070EA96F020E006EAAC0E1FF9B
:100E6E00ABC0E2FFA80EE96E000EEA6EEECFE6FF13
:060E7E000006FCE1120079
:100E84000F0EC16EB886B06ACF0EAF6EAC84A6DD0D
:100E9400020E0B6E040E0C6EBA0E0D6E0D2EFED7E6
:100EA4000C2EFCD70B2EFAD700009D8AF28CF28E02
:020EB40012002A
:060EB600196A1A6A12001D
:100EBC00AECF01F0ABA202D0AB98AB8801C000F072
:020ECC00120012
:100ECE009C0E0001B76F180EB86F000EB96FADDD36
:100EDE00290E0B6E960E0C6E7F0E0D6E0D2EFED71E
:0E0EEE000C2EFCD70B2EFAD7B76BECDD1200E2
:100EFC000A0E0001C06F110EC16F3E0EC26F010EC3
:100F0C00C36F33EC01F0180EC06F1F0EC16F3E0E95
:100F1C00C26F010EC36F33EC01F0260EC06F2D0EA5
:100F2C00C16F3E0EC26F010EC36F33EC01F0330E76
:100F3C00C06F3B0EC16F3E0EC26F010EC36F33EC20
:100F4C0001F0C06B7F0EC16F070EC26F010EC36F35
:060F5C0088EC02F0120017
:100F6200A8C0E9FFA9C0EAFFEECF01F001C0B7F0C7
:100F7200010E0001A825E96E000EA921EA6EEECF4E
:100F820000F000C0B8F0020E0124B96F020E002476
:0C0F9200BA6F010EBB6F1CEC03F01200E4
:100F9E0000C002F001C003F00001AA51A825006EA6
:100FAE0000C0A8F0AB51A925006E00C0A9F0040E38
:100FBE00006E02C0E1FF03C0E2FFA80EE96E000E54
:0C0FCE00EA6EEECFE6FF0006FCE1120028
:100FDA000001A851000A10E1020EA925E16E000ED7
:100FEA00AA21E26E010EE66E030EA925E16E000E3D
:100FFA00AA21E26E010EE66EA851010A10E1020E64
:10100A00A925E16E000EAA21E26E010EE66E030E1C
:10101A00A925E16E000EAA21E26EFF0EE66E12000D
:10102A00A8C0B7F02D0E0001B86F000EB96FA4EC7E
:10103A0003F02D0EB76F000EB86F0EEC04F000C06F
:10104A00AAF001C0ABF01B0EB76F000EB86F760E98
:10105A00B96FBA6B010EBB6FEAEC02F0AAC0B7F027
:10106A00ABC0B8F05F0EB96FBA6B010EBB6FEAEC9A
:10107A0002F0A9C0B7F0760EB86F000EB96FA4ECF3
:10108A0003F0760EB76F000EB86F0EEC04F000C0D6
:10109A00ACF001C0ADF01E0EB76F000EB86FB96BA1
:1010AA00BA6B010EBB6FEAEC02F0ACC0B7F0ADC090
:1010BA00B8F01F0EB96FBA6B010EBB6FEAEC02F003
:0210CA00120012
:1010CC000001A86B46EC04F0000E015C02E1030E7B
:1010DC00005C0AE3A80EB76F000EB86F010EB96F73
:0E10EC00000EBA6F8BEC03F0A8C000F01200EB
:1010FA00A8C0E9FFA9C0EAFFEECF01F0015000083D
:10110A0021E3A8C0E1FFA9C0E2FF400EE66E010E8E
:10111A000001A825E16E000EA921E26E200EE66EFE
:10112A00020EA825E16E000EA921E26E010EE66EFE
:10113A00030EA825E16E000EA921E26EFF0EE66EEF
:10114A00006A2DD0A8C0E9FFA9C0EAFFEECF01F0DE
:10115A007D0E015C22E30001A8C0E1FFA9C0E2FF05
:10116A00400EE66E010EA825E16E000EA921E26E80
:10117A00200EE66E020EA825E16E000EA921E26E8F
:10118A00FF0EE66E030EA825E16E000EA921E26E9F
:10119A00010EE66E010E006E02D0020E006E120003
:1011AA000001A851000A10E1020EA925E16E000E05
:1011BA00AA21E26EFF0EE66E030EA925E16E000E6D
:1011CA00AA21E26E010EE66EA851010A10E1020E92
:1011DA00A925E16E000EAA21E26EFF0EE66E030E4D
:1011EA00A925E16E000EAA21E26EFF0EE66E12003C
:1011FA009C0E0001B76F1C0EB86F000EB96F17DC9A
:10120A00290E0B6E960E0C6E7F0E0D6E0D2EFED7EE
:0E121A000C2EFCD70B2EFAD7B76B56DC120049
:10122800010E0001A825E96E000EA921EA6E3D0E07
:10123800EE5C08E3030EA825E16E000EA921E26E1C
:10124800FF0EE66E010EA825E96E000EA921EA6ED2
:10125800EE50070808E3030EA825E16E000EA92149
:08126800E26E010EE66E1200B9
:10127000A80E0001B76F000EB86F010EB96F000E17
:06128000BA6F55DC1200FC
:10128600020E0001AC25016E026A000E0222800EDB
:10129600006E800E0218005C02E10150A85D30E28B
:1012A600030EA825016E026A000E0222800E006E51
:1012B600800E0218005C02E10150AC5D21E20E0EC8
:1012C600AD25016E026A000E0222800E006E800EAF
:1012D6000218005C02E10150A95D12E2A951030F58
:1012E600016E026A000E0222800E006E800E021847
:1012F600005C02E10150AD5D03E2010E006E01D01B
:04130600006A120067
:10130A00A8C0E9FFA9C0EAFFEECF01F001C0B7F01B
:10131A00010E0001A825E96E000EA921EA6EEECFA2
:10132A0000F000C0B8F0020E0124B96F0E0E0024BE
:0C133A00BA6F010EBB6F1CEC03F0120038
:101346004FEC04F00001A851010F046E056A000E6F
:1013560005228DEC04F008C000F009C001F012006F
:101366004CEC13F07C0EF66E260EF76E000EF86E41
:101376008A0EE16E000EE26E130E006E010E016E15
:101386002BDD7DDD0F0EC16E0FDCB76B69EC05F052
:101396006FD29ADD010E986F7CD2A30E006E000EFE
:1013A600016E41EC03F0050E006E9D0EE16E000E1F
:1013B600E26EA30EE96E000EEA6EEECFE6FF0006C1
:1013C600FCE100019951000A28E1B76B69EC05F0D0
:1013D6009C0EB76F200EB86F000EB96F1CEC05F0AF
:1013E600190EA86F000EA96F220EAA6F000EAB6F22
:1013F600040EAC6F000EAD6F010EAE6F02DC060E72
:101406000B6E130E0C6EAD0E0D6E0D2EFED70C2E42
:10141600FCD70B2EFAD700000000A15317E0995114
:10142600000A14E1020E986F0B0E0B6E260E0C6E60
:101436005D0E0D6E0D2EFED70C2EFCD70B2EFAD799
:1014460000000000B76B69EC05F07BD09951000AEB
:1014560032E19E5303E19D5301E12DD0B76B69EC58
:1014660005F09C0EB76F200EB86F000EB96F1CEC1E
:1014760005F0190EA86F000EA96F300EAA6F000EA8
:10148600AB6F040EAC6F000EAD6F010EAE6F04ECC9
:1014960006F0010E996F060E0B6E130E0C6EAD0E56
:1014A6000D6E0D2EFED70C2EFCD70B2EFAD7000094
:1014B60000009E6B9D6BA151010A10E19951010A32
:1014C6000DE1340E0C6EF10E0D6E0D2EFED70C2EA8
:1014D600FCD700000000030E986F33D09951010A23
:1014E6002FE19E5303E19D5301E12AD0B76B69ECCE
:1014F60005F09C0EB76F200EB86F000EB96F1CEC8E
:1015060005F0190EA86F000EA96F230EAA6F000E24
:10151600AB6F040EAC6F000EAD6F010EAE6F04EC38
:1015260006F0060E0B6E130E0C6EAD0E0D6E0D2E26
:10153600FED70C2EFCD70B2EFAD700000000996BB5
:101546002CD7A7D18AC0CAF08BC0CBF0020ECC6FC5
:10155600A2EC00F01A0E0C6EF80E0D6E0D2EFED7D4
:101566000C2EFCD70000020E006EA80EE16E000ED7
:10157600E26E8A0EE96E000EEA6EEECFE6FF000618
:10158600FCE1A30E006E000E016E2EDC020E006E54
:101596008A0EE16E000EE26EA30EE96E000EEA6E92
:1015A600EECFE6FF0006FCE1B76B69EC05F071D102
:1015B600040E006E940EE16E000EE26E900EE96E61
:1015C600000EEA6EEECFE6FF0006FCE1040E006EAA
:1015D600A80EE16E000EE26E900EE96E000EEA6E47
:1015E600EECFE6FF0006FCE1A30E006E000E016ED4
:1015F600D3DC040E006E900EE16E000EE26EA30EBA
:10160600E96E000EEA6EEECFE6FF0006FCE1900EF4
:10161600A86F000EA96F05DE040E006EA80EE16E1F
:10162600000EE26E900EE96E000EEA6EEECFE6FF59
:101636000006FCE1020E006EAC0EE16E000EE26EDC
:101646008A0EE96E000EEA6EEECFE6FF0006FCE1BA
:1016560017DE00520BE0010EA86F72DE00C0A8F084
:10166600900E0001A96F000EAA6F9CDD040E006E9D
:10167600A80EE16E000EE26E900EE96E000EEA6EA6
:10168600EECFE6FF0006FCE1020E006EAC0EE16E48
:10169600000EE26E8E0EE96E000EEA6EEECFE6FFEB
:1016A6000006FCE1EDDD00520BE0010EA86F48DEFE
:1016B60000C0A8F0900E0001A96F000EAA6F8ADC88
:1016C6009251961904E19351971901E10DD0DD0E5F
:1016D600A86FCBDD900EB76F000EB86F040EB96F12
:1016E600000EBA6F97EC05F0020E006E8C0EE16EDE
:1016F600000EE26E8A0EE96E000EEA6EEECFE6FF8F
:101706000006FCE1020E006EA80EE16E000EE26E0F
:101716008A0EE96E000EEA6EEECFE6FF0006FCE1E9
:10172600A30E006E000E016EF7EC06F0020E006EC0
:101736008A0EE16E000EE26EA30EE96E000EEA6EF0
:10174600EECFE6FF0006FCE18D518B1916E0CC0EBC
:10175600A86F8BDD8A0EB76F000EB86F020EB96FD9
:10176600000EBA6F97EC05F0410E0C6EEE0E0D6E84
:101776000D2EFED70C2EFCD70000A5DC00C0A2F073
:101786000050000A0DE0A251EE0A0AE18E0EB76F74
:10179600000EB86F020EB96F000EBA6F8BEC03F035
:1017A600900EA86F000EA96FA5DC00C09AF038D085
:1017B600050E00019C25006E00C09CF000C0A8F03C
:1017C6009BC0A9F02FDC0A0E9C5D10E313DD010E11
:1017D600986FFA0EA86F49DD820E0C6EDD0E0D6E47
:1017E6000D2EFED70C2EFCD70000000024D09B2B1C
:1017F6009CC0A8F09BC0A9F015DC1DD0B76B69ECA6
:1018060005F09CC0A8F09BC0A9F00CDC4E0E0C6E37
:10181600EB0E0D6E0D2EFED70C2EFCD70CD00BD07A
:1018260000019A51000AC4E09A51010AE0E09A5177
:10183600020AE4E0F4D78A0EA86F000EA96F62DDF3
:101846008E0EA86F000EA96FBAEC05F0900EA86F69
:10185600000EA96FB1EC07F07EEC07F09851010A73
:1018660004E1B76B69EC05F001D0A2D612D011D015
:101876009851000AD8B48DD59851010AD8B48DD59F
:101886009851020AD8B45ED69851030AD8B490D6B5
:06189600EED77ED5FFD75E
:1026980010EE19F0080E006E010E016E8F0EF66E28
:0E26A800260EF76E000EF86EEFEC06F0120034
:10189C00000000000000000000000000000000003C
:1018AC0000000000000000000000FFFFFFFF8F8F12
:1018BC008F8F8F8F8F8F8FFFFFFFFF000000000037
:1018CC0000FFFFFFFF0F0F0F0F0F0F0FFFFFFFFFAB
:1018DC000000000000FFFFFFFF1FFFFFF0F0800083
:1018EC00000000FFFFFFFF0000E0E0FEFE1E1F0FE8
:1018FC000F0F0F0F0F0F0F0F0F0F00000000000046
:10190C0000000000000000000000000000000000CB
:10191C0000000000000000000000000000000000BB
:10192C0000000000000000000000FFFFFFFF0707A1
:10193C00070707070707070707070700000000004E
:10194C0000FFFFFFFF80808080808080FFFFFFFF13
:10195C000000000000FFFFFFFF000007077F7F78FB
:10196C0078F880FFFFFFFF00001F1FFFFFF0F080E3
:10197C00809E9E9E9E9EFEFEFEFC000000000000CF
:10198C00000000000000000000000000000000004B
:10199C00000000000000000000000000E0E00080FB
:1019AC0080C0E060000000606060E3E3636360009F
:1019BC0000E0E00000C0C0C0C0C0C00000C0C0C09B
:1019CC00C0C7C7C70707E7E7C70707E7E707070762
:1019DC000000000000C7C7C7C7C0C00000C0C0C01F
:1019EC00C0C7C7C707C7C7C0C0C0C000C0C0C7C733
:1019FC00C7C707E7E7C70707E7E700C0C0C0C0C015
:101A0C00C0C00000C0C0C0C0C0000000000000008A
:101A1C000000000000000000000000007F7F070FA6
:101A2C000F1D38787000006060607F7F0000000040
:101A3C00007F7F00007F7F0C1E7F7700007F7F6020
:101A4C0060607F7F00007F7F030F3C7F7F00000082
:101A5C0060600000007F7F0C1E7F7700007F7F6638
:101A6C0066667F3F007F7F0C1E7F77007F7F6660FE
:101A7C006060007F7F030F3C7F7F007F7F6660602C
:101A8C00606000006F6F6C7D7D0000000000000046
:101A9C0000000000000000000000606060E0E060FA
:101AAC0060606000E0E06060E0E000E0E00000000A
:101ABC00E0E000000000E0E06060606000E0E060FA
:101ACC006060E0E000000000E0E06060606000004A
:101ADC00E0E0C00080C0E0E00000E0E06060E0E03A
:101AEC00E000E0E06060606000E0E06060E0E0008A
:101AFC0000E0E00000E0E0E0E0C00000E0E060605A
:101B0C0060E0E000E0E060E0E000000000000000C9
:101B1C00000000000000000000000000003F3F003B
:101B2C00000000003F3F06063F3F003F3F303000C3
:101B3C003F3F303000003F3F33303030003F3F06F6
:101B4C00060F3F3B000000003F3F333030300000B9
:101B5C003F3F030707013F3F00003F3F33333F1F29
:101B6C001F003F3F33303030003F3F33333F1F00C7
:101B7C00003F3F00003F3F30391F0F003F3F3030E8
:101B8C00303F3F003737363E3E000000000000007B
:101B9C000000000000000000000000000000000039
:101BAC000000000000000000000000000000000029
:101BBC00000000000000000000F8F8D81818180009
:101BCC000000F8F898D8F8F80000FCFC00007C7CC9
:101BDC00C0C000C0E07C7C0000F8F8D818181800D1
:101BEC0000F8F898D8F8F800F8F89898F8F8000089
:101BFC0000000000000000000000000000000000D9
:101C0C0000000000000000000000000000000000C8
:101C1C0000000000000000000000000000000000B8
:101C2C0000000000000000000000000000000000A8
:101C3C000000000000000000000F0F0C0C0C0C004A
:101C4C0000000F0F01030F0E00000F0F000000002B
:101C5C00030F0C0F03000000000F0F0C0C0C0C00FA
:101C6C00000F0F01030F0E000F0F01010F0F0000EB
:101C7C000000000000000000000000000000000058
:101C8C000000000000000000000000000000000048
:101C9C000000000000000000000000000000000038
:101CAC000000000000000000000000000000000028
:101CBC000000000000000000000000000000000018
:101CCC000000000000000000000000000000000008
:101CDC0000000000000000000000000000000000F8
:101CEC0000000000000000000000000000000000E8
:101CFC0000000000000000000000000000000000D8
:101D0C0000000000000000000000000000000000C7
:101D1C0000000000000000000000000000000000B7
:101D2C0000000000000000000000000000000000A7
:101D3C000000000000000000000000000000000097
:101D4C000000000000000000000000000000000087
:101D5C000000000000000000000000000000000077
:101D6C000000000000000000000000000000000067
:101D7C000000000000000000000000000000000057
:101D8C000000000000000000000000000000000047
:101D9C000000000000000000000000000000000037
:101DAC000000000000000000000000000000000027
:101DBC000000000000000000000000000000000017
:101DCC000000808080808080F0F0F0F0F0F0F0F087
:101DDC00F0F0F0F0F0F0F0F0808080808080000077
:101DEC0000000000000000000000000000000000E7
:101DFC0000000000000000000000000000000000D7
:101E0C0000000000000000000000000000000000C6
:101E1C0000000000000000000000000000000000B6
:101E2C0000000000000000000000000000000000A6
:101E3C000000000000000000000000000000000096
:101E4C00000001010104040607070F8F0FFFFFFFBD
:101E5C00FFFFFF0F8F0707070404040001010000B8
:101E6C000000000000000000000000000000000066
:101E7C000000000000000000000000000000000056
:101E8C000000000000000000000000000000000046
:101E9C000000000000000000000000000000000036
:101EAC00000000000000000000C0C00000000000A6
:101EBC0000C0C0C0C000808040404040C0C0808096
:101ECC000000C0C0000000C0C0C0C0000000000086
:101EDC0000C0C00000000000C0C0C0C00000C0C0F6
:101EEC00C0C00000C0C08080000000C0C0C0C000E6
:101EFC0000C0C0C0C00000000000000000000000D6
:101F0C0000000000000000000000000000000000C5
:101F1C0000000000000000000000000000000000B5
:101F2C00000000000000000000010102021E1E1F44
:101F3C001F0303010100070F081010101F1F0F0FC4
:101F4C0000000F0F1010101F1F0F0F0000000000DB
:101F5C00000F0F10000E0E101F1F0F0F00001F1F81
:101F6C001F1F00001F0F00000101020F1F1F1F0089
:101F7C0000171717170000000000000000000000F9
:101F8C000000000000000000000000000000000045
:101F9C000000000000000000000000000000000035
:101FAC000000000000000000000000000000000025
:101FBC000000000000000000000000000000000015
:101FCC000000000000000000000000000000000005
:101FDC0000000000000000000000000000000000F5
:101FEC0000000000000000000000000000000000E5
:101FFC0000000000000000000000000000000000D5
:10200C0000000000000000000000000000000000C4
:10201C0000000000000000000000000000000000B4
:10202C0000000000000000000000000000000000A4
:10203C000000000000000000000000000000000094
:10204C000000000000000000000000000000000084
:10205C000000000000000000000000000000000074
:10206C000000000000000000000000000000000064
:10207C000000000000000000000000000000000054
:10208C000000000000000000000000000000000044
:10209C000000000000000000000000000000000034
:1020AC0000000000000000000000FFFFFFFF8F8F0A
:1020BC008F8F8F8F8F8F8FFFFFFFFF00000000002F
:1020CC0000FFFFFFFF0F0F0F0F0F0F0FFFFFFFFFA3
:1020DC000000000000FFFFFFFF1FFFFFF0F080007B
:1020EC00000000FFFFFFFF0000E0E0FEFE1E1F0FE0
:1020FC000F0F0F0F0F0F0F0F0F0F0000000000003E
:10210C0000000000000000000000000000000000C3
:10211C0000000000000000000000000000000000B3
:10212C0000000000000000000000FFFFFFFF070799
:10213C000707070707070707070707000000000046
:10214C0000FFFFFFFF80808080808080FFFFFFFF0B
:10215C000000000000FFFFFFFF000007077F7F78F3
:10216C0078F880FFFFFFFF00001F1FFFFFF0F080DB
:10217C00809E9E9E9E9EFEFEFEFC000000000000C7
:10218C000000000000000000000000000000000043
:10219C000000000000000000000000000000000033
:1021AC000000000000000000000003030303000017
:1021BC000000000000000000000000000000000013
:1021CC00000707070707070707070707070707079A
:1021DC0000000000000707070700000000000000D7
:1021EC0000070707070707000000000000000707AB
:1021FC00070707070707070707070000000000008D
:10220C0000000000000000000000000000000000C2
:10221C0000000000000000000000000000000000B2
:10222C0000000000000000000000000000000000A2
:10223C00000000000000C0C0C0C000000000000092
:10224C0000E0E0606060E0E00000E0E00000000022
:10225C00E0E0606060E0E00000E0E00000E0E00052
:10226C0000E0E0606060600000E0E06060E0E000E2
:10227C000000000000000000000000000000000052
:10228C000000000000000000000000000000000042
:10229C000000000000000000000000000000000032
:1022AC000000000000000000000000000000000022
:1022BC0000000000000060607F7F60600000000094
:1022CC00007F7F060606070700007F7F60606000C6
:1022DC007F7F0606067F7F000001037F7F030100DE
:1022EC00007F7F6660606000007F7F0C1E7F730044
:1022FC0000000000000000000000000000000000D2
:10230C0000000000000000000000000000000000C1
:10231C0000000000000000000000000000000000B1
:10232C0000000000000000000000000000000000A1
:10233C00000000000000B0B0B0B0F0F000000000F1
:10234C0000F8F8989898F8F80000F8F800000000E9
:10235C00F8F8989898F8F8000078F8C0C0F8780069
:10236C0000F8F8981818180000F8F81898F8F80001
:10237C00F8F8989898980000000000000000000001
:10238C000000000000000000000000000000000041
:10239C000000000000000000000000000000000031
:1023AC000000000000000000000000000000000021
:1023BC000000000000000F0F0D0D0D0D00000000BF
:1023CC00001F1F010101010100001F1F1818180038
:1023DC001F1F0101011F1F000000001F1F00000034
:1023EC00001F1F1918181800001F1F03071F1C00BF
:1023FC000D0D0D0D0F0F000000000000000000007F
:10240C0000000000000000000000000000000000C0
:10241C0000000000000000000000000000000000B0
:10242C0000000000000000000000000000000000A0
:10243C000000000000000000000000000000000090
:10244C000000000000000000000000000000000080
:10245C000000000000000000000000000000000070
:10246C000000000000000000000000000000000060
:10247C000000000000000000000000000000000050
:10248C000000000000000000000000000000000040
:10249C00000000000000005F0000000700070014AF
:1024AC007F147F14242A7F2A12231308646236496E
:1024BC005522500005030000001C2241000041225F
:1024CC001C00082A1C2A0808083E08080050300086
:1024DC00000808080808003030000020100804022A
:1024EC003E5149453E00427F4000426151494621E0
:1024FC0041454B311814127F1027454545393C4A4C
:10250C00494930017109050336494949360649499B
:10251C00291E003636000000563600000008142232
:10252C004114141414144122140800020151090618
:10253C00324979413E7E1111117E7F494949363E1F
:10254C00414141227F4141221C7F494949417F0938
:10255C000901013E414151327F0808087F00417F4B
:10256C0041002040413F017F081422417F40404000
:10257C00407F0204027F7F0408107F3E4141413EB0
:10258C007F090909063E4151215E7F0919294646FA
:10259C004949493101017F01013F4040403F1F2023
:1025AC0040201F7F2018207F6314081463030478D5
:1025BC000403615149454300007F41410204081066
:1025CC002041417F00000402010204404040404091
:1025DC00000102040020545454787F484444383895
:1025EC0044444420384444487F3854545418087E9A
:1025FC00090102081454543C7F0804047800447DFB
:10260C0040002040443D00007F10284400417F40A2
:10261C00007C041804787C0804047838444444385A
:10262C007C14141408081414187C7C08040408483E
:10263C0054545420043F4440203C4040207C1C20F7
:10264C0040201C3C4030403C44281028440C505046
:10265C00503C4464544C44000836410000007F0058
:10266C0000004136080008082A1C08081C2A080823
:02267C007A19C9
:02267E0005193C
:0226800005193A
:042682004020FF01F4
:042686004020FF01F0
:01268A00004F
:01268B00004E
:01268C00004D
:01268D00004C
:01268E00004B
:01268F00004A
:012690000049
:03269100503100C5
:03269400503200C1
:020000040030CA
:0E000000010C1F1EFF8381FF0FC00FE00F4099
:00000001FF
