:040000000FEF0EF000
:1000080000C016F001C015F0E1CF17F0E2CF18F0EC
:100018001F50205C006E016A000E015A00C0E7F014
:100028002050000806E20001E751000A02E1F7EC5F
:100038000AF00001210EE86F000EE96F2050E82752
:10004800D8B0E92BFAEC0AF0E8C0E1FFE9C0E2FF1A
:1000580000C0E6FF202A2050400A02E1F7EC0AF02F
:1000680016C000F015C001F017C0E1FF18C0E2FF8C
:02007800110075
:0C007A00060E0D6E0D2EFED700001200C9
:0A008600F9DF8A88F7DF8A9812007C
:0600900000000000120058
:10009600120E006E000E016E830E0024E16E0F0E2E
:1000A6000120E26EFF0EE66EF0DFEFDF8A848A98AB
:1000B6008A868A88DFDF83CFE6F08A988A96E5DF2C
:1000C600E4DF120E006E000E016E830E0024E16E58
:0E00D6000F0E0120E26EE66AE6C000F0120096
:0E00E4008A988A848A96E6C083FFCBDF1200DA
:1000F2007F0E0001E615016E01C0E6F001AC03D0EF
:0C0102008A808A9202D08A908A821200C1
:10010E008A948A96B80E0001E611836EB5DF12004E
:10011E007F0E0001E615006E00C0E6F08A948A9606
:10012E00BF0E001600C0E6F0008C00C0E6F000C066
:06013E0083FFA2DF1200A6
:10014400000E0001E05D0AE3E0517F0807E3000EC2
:10015400E15D04E3E1513F0801E301D04AD0E0C08E
:10016400E6F0C5DFE1C0E6F0E633E69FE633E69F5E
:10017400E633E69FCADFE0C0E6F0CFDF8ADF00C0E7
:10018400E5F087DF00C0E5F0E1C0E6F0E633E69F86
:10019400E633E69FE633E69FB8DFE0C0E6F0BDDF76
:1001A400070EE115006E00C0E3F000C001F0010E7F
:1001B400006E015004E000360090FF0FFBD700C032
:1001C400E3F0001CE46F09D0E451E5170FD0E351CC
:1001D400E5130CD0E351E51B09D0E251000AF4E029
:1001E400E251010AF4E0E251020AF4E0E5C0E6F06B
:0401F40077DF12009F
:1001F800000E0001DD5D04E3DD513F0801E301D09D
:1002080027D0000EDB5DD8A0DB6BDB517F0802E254
:100218007F0EDB6F000EDC5DD8A0DC6BDC517F0845
:1002280002E27F0EDC6FDB51DC5D06E2DBC0DFF053
:10023800DCC0DBF0DFC0DCF0DB51DC5D09E3DBC0F8
:10024800E0F0DDC0E1F0DEC0E2F078DFDB2BF4D7D0
:02025800120092
:10025A000B6A0A6A096A00500402F4CF09F0F3CF64
:10026A0008F001500502F4CF0BF0F3CF0AF000506A
:10027A000502F3500926F4500A22E86A0B220150BB
:10028A000402F3500926F4500A22E86A0B2208C035
:10029A0000F009C001F00AC002F00BC003F012001E
:1002AA00086A080E0C6E003408360450085ED8B08E
:0E02BA0002D00826D89000360C2EF5D7120080
:1002C800220E0C6E086A096A0A6A0B6A0C06D8B410
:1002D8001FD0D8900B320A32093208320332023268
:1002E80001320032D8A0F2D70C06D8B409D0045095
:1002F80008260550092206500A2207500B22EAD781
:10030800045008260550092206500A2207500B22DD
:020318001200D1
:10031A000001CA51070801E282D07C51C85D006E13
:10032A007DC001F0000E01567EC004F0000E056E7D
:10033A008FDF00C0D0F001C0D1F0C9C0E6F0EADE1C
:10034A00CAC0E6F0DFDECC6B7E51CC5D49E2C95112
:10035A007F0801E264D0C9C0E6F0C6DECAC0E6F092
:10036A00D1DEC9C0E6F0D6DE91DE00C0CDF08EDE69
:10037A0000C0CDF0C9C0E6F0B7DECAC0E6F0C2DE02
:10038A00C9C0E6F0C7DED0517625F66ED151772185
:10039A00F76E000ED1BFFF0E7821F86E0900F5CF77
:1003AA0000F000C0CEF0D04BD12B001CCF6F09D08B
:1003BA00CFC0CDF00FD0CEC0CDF00CD0CE51CD1BDA
:1003CA0009D0CB51000AF4E0CB51010AF4E0CB5139
:1003DA00020AF4E0CDC0E6F080DEC92BCC2BB4D7FC
:1003EA00C9C0E6F081DECAC0E6F08CDEC9C0E6F01C
:1003FA0091DEFF0ECE6FCF6B0CD0CEC0CDF0CEC04B
:10040A00E6F06BDE0CD0CFC0CDF0CFC0E6F065DEF3
:10041A0006D0CB51000AF1E0CB51010AF4E01200F8
:10042A00800E0001C919006E800E005C02E1000E08
:10043A00C85D02E2C86BC96B800E006E800EC919D6
:10044A00005C02E1C8517F0804E27F0EC86F000E0B
:10045A00C96F800ECD19006E800E005C02E1000E9D
:10046A00CC5D02E2CC6BCD6B800E006E800ECD1996
:10047A00005C02E1CC517F0804E27F0ECC6F000ED3
:10048A00CD6F800ECB19006E800E005C02E1000E6B
:10049A00CA5D02E2CA6BCB6B800E006E800ECB196E
:1004AA00005C02E1CA513F0804E23F0ECA6F000E27
:1004BA00CB6F800ECF19006E800E005C02E1000E39
:1004CA00CE5D02E2CE6BCF6B800E006E800ECF192E
:1004DA00005C02E1CE513F0804E23F0ECE6F000EEF
:1004EA00CF6FC851CC5D016EC951CD59026E01C0A2
:1004FA00D1F002C0D2F0CA51CE5DD36FCB51CF59E1
:10050A00D46F800E0218006E800E005C02E1000EAD
:10051A00015C0BE2D1510008D16FD251000ED257C3
:10052A00FF0ED56FFF0ED66F04D0010ED56F000EE9
:10053A00D66F800ED419006E800E005C02E1000EA8
:10054A00D35D0BE2D3510008D36FD451000ED457B8
:10055A00FF0ED76FFF0ED86F04D0010ED76F000EB3
:10056A00D86FD137D191D237D337D391D437C8C0C6
:10057A00E0F0CAC0E1F0D0C0E2F0DFDD800ED419AD
:10058A00006E800ED219005C02E1D151D35D3DE2CA
:10059A00D1C000F0D2C001F001320032019E01BC8C
:1005AA00018E0050D35DD96F0150D459DA6FC95109
:1005BA00CD1902E1CC51C81927E0800EDA19006E74
:1005CA00800E005C02E1000ED95D08E3D751CA270C
:1005DA00D851CB23D151D95FD251DA5BD551C82535
:1005EA00006ED651C921016E00C0C8F001C0C9F021
:1005FA00D351D927D451DA2300C0E0F0CAC0E1F0C0
:10060A00D0C0E2F09ADDD3D73CD0D3C000F0D4C03A
:10061A0001F001320032019E01BC018E0050D15D11
:10062A00D96F0150D259DA6FCB51CF1902E1CE51AD
:10063A00CA1927E0800EDA19006E800E005C02E10A
:10064A00000ED95D08E3D551C827D651C923D35125
:10065A00D95FD451DA5BD751CA25006ED851CB2164
:10066A00016E00C0CAF001C0CBF0D151D927D251D6
:10067A00DA23C8C0E0F000C0E1F0D0C0E2F05DDDEE
:04068A00D3D71200B0
:10068E00CAC004F0CBC005F0C8C002F0C9C003F068
:10069E00CCC000F0CDC001F0010E0001CC5F000E09
:1006AE00CD5B005001100FE004C0E9FF05C0EAFF6A
:1006BE0002C0E1FF03C0E2FFEECFE6FF024A032ACB
:1006CE00044A052AE5D7C8C000F0C9C001F01200DF
:1006DE00C8C07FF0C9C080F0000E0001816F826F2C
:0606EE00010E846F1200F2
:0E06F400ACB202D00000FCD7C8C0ADFF1200AF
:0A070200000EACB2010E006E1200F2
:10070C000001CB6B030ECB5D0AE2CB51C925E16E28
:10071C00000ECA21E26E200EE66ECB2BF3D7CB5126
:10072C00C925E16E000ECA21E26EE66ACB07CB51F9
:10073C00C925CC6F000ECA21CD6F0A0E046EC8C03D
:10074C0000F0ADDD08C000F0300E0026CCC0E1FF9B
:10075C00CDC0E2FF00C0E6FF0A0E046EC8C000F078
:10076C009EDD00C0C8F00050000A01E102D0CB07AA
:04077C00DED71200B2
:10078000C9C0CDF00001CD51CB5D0BE3C8C0DBF09B
:10079000CAC0DCF0CDC0DDF0CCC0DEF02DDDCD2B4D
:0407A000F1D712007B
:1007A4000134083609360450085E0550D8A0053CCB
:1007B400095E003601360F0E0C6E01340836093618
:1007C400045000A006D0085E0550D8A0053C095E80
:1007D40005D008260550D8B0053C09260036013658
:1007E4000C2EEBD700B006D0045008260550D8B024
:0807F400053C0926000012007B
:1007FC000001845305E1010EC86F000EC96F69DF5B
:10080C007FC000F080C001F081C002F082C003F014
:10081C006D0E046E4E0E056EC60E066E410E076E04
:10082C004DDD390E0024056E300E0120066E000ED3
:10083C000220076E000E0320086E07C000F008C0EF
:10084C0001F0000E08BEFF0E026E036EFF0E0016C6
:10085C007F0E0116000E0216031600C07FF001C0B9
:0C086C0080F002C081F003C082F0120096
:100878000001B26BB36BB46BB25107083EE3E66B91
:1008880034DCB2C0E6F03FDCE66B45DCB16BB1515D
:100898003F0811E3B351AE25F66EB451AF21F76EA0
:1008A800000EB021F86E0900F5CFE6F017DCB34B67
:1008B800B42BB12BECD7400EE66F17DCB2C0E6F0D4
:1008C80022DC400EE66F27DC400EB16FB1517F0885
:1008D80012E3B351AE25F66EB451AF21F76E000E98
:1008E800B021F86E0900F5CFE6F072EC00F0B34BDA
:0C08F800B42BB12BEBD7B22BBFD71200F2
:10090400000E0001B05D04E3B0517F0801E301D0A3
:1009140028D0000EAE5DD8A0AE6BAE513F0802E207
:100924003F0EAE6F000EAF5DD8A0AF6BAF513F0866
:1009340002E23F0EAF6FAE51AF5D06E2AEC0B2F061
:10094400AFC0AEF0B2C0AFF0AE51AF5D0AE3B0C01D
:10095400E0F0AEC0E1F0B1C0E2F0A2EC00F0AE2BEA
:04096400F3D71200B3
:1009680000C002F001C003F0016A80B0012A015002
:10097800010A010ED8A4000E006E00C006F0016A3C
:1009880080B2012A0150010A010ED8A4000E006E9F
:1009980000C007F0016A80B4012A0150010A010E63
:1009A800D8A4000E006E00C004F0016A80B6012AC7
:1009B8000150010A010ED8A4000E006E00C005F017
:1009C800016A80B8012A0150010A010ED8A4000E5C
:1009D800006E00C008F0050E006E02C0E1FF03C003
:1009E800E2FF040EE96E000EEA6EEECFE6FF0006A7
:0409F800FCE112000C
:1009FC000001B36BB46BAEC0B5F0000EAEBFFF0E12
:100A0C00B66F800EAE19006E800E000A005C0AE212
:100A1C00B34BB42BAE510008B56FB66B000EAEBF26
:100A2C00FF0EB65BB5C0C8F0AFC0C9F0B0C0CAF01D
:100A3C0067DE040EB16F000EB26F000E006EB25185
:100A4C00005C02E1B151000819E2B151AF25E16E31
:100A5C00B251B021E26E010EB15D006E000EB259C2
:100A6C00016E0050AF25E96E0150B021EA6EEECF59
:100A7C00E6FF010EB15F000EB25BDFD7AFC0E1FF46
:100A8C00B0C0E2FF200EE66EB351B4111AE0B16BA8
:100A9C00B26BB151AF25E96EB251B021EA6EEE5096
:100AAC00200A03E1B14BB22BF4D7010EB15F000E5B
:100ABC00B25BB151AF25E16EB251B021E26E2D0E99
:040ACC00E66E1200C0
:100AD0000450000A08E10550000A05E1FF0E006E0F
:100AE0007F0E016E57D00D6A096A086A0150001026
:100AF000D8B4000C015005180A6E0ABE0D1E0B6A10
:100B000005AE05D0041E051E042AD8B4052A01AE80
:100B100005D0001E011E002AD8B4012A015005107C
:100B20000A6E0ABE10D03EDE0BB020D00DAE000C17
:100B3000001E011E002AD8B4012A081E091E082A18
:100B4000D8B4092A000C05AE0DD001BE07D0015063
:100B5000096E0050086E016A006AE8D7016A006AEF
:100B6000002A000C011E001E0B2ADDD7082AD8B46B
:100B7000092A0450085CD8A4D9D70550095CD8A428
:100B8000D5D7096A086A002AD8B4012A01AECED79F
:060B90000000FF0C120042
:100B96008A908A820001B06BB051070810E3B0C09A
:100BA600E6F087EC00F0AF6BAF513F0806E3AEC04E
:100BB600E6F072EC00F0AF2BF7D7B02BEDD78A92A8
:100BC6008A80B06BB051070810E3B0C0E6F087EC3E
:100BD60000F0AF6BAF513F0806E3AEC0E6F072EC33
:0C0BE60000F0AF2BF7D7B02BEDD71200BA
:100BF2000001B06BB16BAEC003F0AFC004F0AEC089
:100C020005F0AFC006F003C0E9FF04C0EAFFEE50F2
:100C1200200A04E1B051B11101E110D0010EB06F10
:100C2200000EB16F03C0E9FF04C0EAFF05C0E1FF97
:100C320006C0E2FFEECFE6FF054A062A03C001F036
:100C420004C002F0034A042A01C0E9FF02C0EAFF1D
:100C5200EE50000AD8E1AEC000F0AFC001F01200C1
:100C6200F40E00016E6F060E6F6FC80E706F000EED
:100C7200716FF40E726F150E736F000E746F000EAB
:100C8200756FFF0E666FFF0E676F000E686F000EC6
:100C9200696F020E6A6F070E6B6F000E6C6F000EAB
:100CA2006D6FAC8A900EAB6E948E949C9EAA03D00C
:080CB200AECF00F0FBD71200E9
:100CBA000001B051AE5D016E026A000E025A01C017
:100CCA00C2F002C0C3F0800E0218006E800E005CF3
:100CDA0002E1000E015C1AE2C2510008036EC3C0B1
:100CEA0004F0000E0456B2C001F0000E026E013686
:100CFA0002360190800E0418006E800E0218005C05
:100D0A0002E10150035C01E215D212D0B2C001F037
:100D1A00000E026E013602360190800EC319006E73
:100D2A00800E0218005C02E10150C25D01E202D2AB
:100D3A00B151AF5D016E026A000E025A01C0C2F0E3
:100D4A0002C0C3F0800E0218006E800E005C02E141
:100D5A00000E015C1AE2C2510008036EC3C004F01F
:100D6A00000E0456B2C001F0000E026E01360236C1
:100D7A000190800E0418006E800E0218005C02E1D9
:100D8A000150035C01E2D6D112D0B2C001F0000ECC
:100D9A00026E013602360190800EC319006E800E73
:100DAA000218005C02E10150C25D01E2C3D1AEC08B
:100DBA00C8F0B251AF25C96FC92BB0C0CAF0B25141
:100DCA00B15DCB6FCB07B3C0CCF0D5DCB86BB96BD8
:100DDA00C46BC56BB251AF25006E016A000E0122C9
:100DEA00B251B05D046E056A000E055A0450005CEB
:100DFA00BA6F05500158BB6FB251AE25026E036A35
:100E0A00000E03220250005CBC6F03500158BD6FF4
:100E1A00B251B15D006E016A000E015A0250005CC7
:100E2A00BE6F03500158BF6F0450005CC06F05507D
:100E3A000158C16FB2C0B6F0000EB76FB6C0C6F0A7
:100E4A00B7C0C7F0B6C000F0B7C001F000360090D6
:100E5A00013600C0B4F001C0B5F000500308B46F09
:100E6A0001C0B5F0000EB557010EB625016E000E91
:100E7A00B721026E800EB919006E800E0218005C4E
:100E8A0002E10150B85DD8B0F5D0C751B71902E1F7
:100E9A00B651C61958E0B251AE25C86FC96B000EDB
:100EAA00C923C451C85FC551C95BB251B15D006E57
:100EBA00016A000E015AC6510026C751012200C01C
:100ECA00CAF001C0CBF0B251B05DCC6FCD6B000E51
:100EDA00CD5BC451CC27C551CD2300C0CEF001C093
:100EEA00CFF0B3C0D0F015EC02F0B251AE25C86F06
:100EFA00C96B000EC923C451C85FC551C95BB25141
:100F0A00AF25006E016A000E0122C651005EC7516C
:100F1A00015A00C0CAF001C0CBF0B251B05DCC6F2B
:100F2A00CD6B000ECD5BC451CC27C551CD2300C07B
:100F3A00CEF001C0CFF0B3C0D0F015EC02F0B6C0CD
:100F4A00C6F0B7C0C7F0B251B15D026E036A000EB7
:100F5A00035AB6510224C86FB7510320C96FC05152
:100F6A00C85FC151C95BB8510224006EB951032050
:100F7A00016E00C0CAF001C0CBF0B651025CCC6F62
:100F8A00B7510358CD6FBE51CC5FBF51CD5B00C086
:100F9A00CEF001C0CFF0B3C0D0F015EC02F0B251E0
:100FAA00AF25026E036A000E0322B651025CC86FB7
:100FBA00B7510358C96FBC51C85FBD51C95BB8511D
:100FCA00025C006EB9510358016E00C0CAF001C03C
:100FDA00CBF0B6510224CC6FB7510320CD6FBA5172
:100FEA00CC5FBB51CD5B00C0CEF001C0CFF0B3C027
:100FFA00D0F015EC02F0800EB519006E800E005C80
:10100A0002E1000EB45D13E2B8C000F0B9C001F00D
:10101A00003600900136003600900136060E002692
:10102A00000E01220050B4270150B52320D0B6513A
:10103A00B85D036EB751B959046E03C000F004C01D
:10104A0001F00036009001360036009001360A0E93
:10105A000026000E01220050B4270150B523010ECC
:10106A00B65F000EB75BB8C0C4F0B9C0C5F0B84BE4
:10107A00B92BFAD6010EB85D016E000EB959026E8F
:10108A000250C71902E1C651011854E0B251AE2507
:10109A00C86FC96B000EC923C451C85FC551C95B6B
:1010AA00B251B15D006E016A000E015AC6510026A6
:1010BA00C751012200C0CAF001C0CBF0B251B05DE5
:1010CA00CC6FCD6B000ECD5BC451CC27C551CD235F
:1010DA0000C0CEF001C0CFF0B3C0D0F015EC02F0E2
:1010EA00B251AE25C86FC96B000EC923C451C85F7F
:1010FA00C551C95BB251AF25006E016A000E0122CB
:10110A00C651005EC751015A00C0CAF001C0CBF0F7
:10111A00B251B05DCC6FCD6B000ECD5BC451CC2704
:10112A00C551CD2300C0CEF001C0CFF0B3C0D0F07E
:06113A0015EC02F01200AA
:101140001F50205C006E016A000E015A000E016EF5
:0211500012008B
:10115200AEC0B2F0AFC0B3F00001B46BB56BB15129
:10116200B55D02E1B051B45D13E281EC03F00050D1
:10117200010A0DE1B451B225E96EB551B321EA6E0F
:10118200EECFC8F07AEC03F00001B44BB52BE7D7F1
:0A119200B0C000F0B1C001F012007F
:10119C00AEC0C8F0AFC0C9F0210E0001CA6F000E7E
:1011AC00CB6F1F50CA27D8B0CB2BB0C0CCF0B1C07E
:1011BC00CDF047EC03F0B0511F26B0C000F0B1C029
:0411CC0001F012001C
:1011D0000001B36B8351000A0EE1050E7E6F070E0E
:1011E000796F680E766F310E776F000E786F200E74
:1011F0007C6F000E7D6FB351AE25E96E000EAF21FE
:10120000EA6EEE5217E0B351AE25E96E000EAF2143
:10121000EA6EEECFC8F0B0C0C9F0B1C0CAF0B2C03B
:10122000CBF08DEC01F07E51010F006E0050B02725
:06123000B32BE1D7120010
:101236000F0EC16EB886B06ACF0EAF6EAC840EDDEF
:10124600020E0B6E040E0C6EBA0E0D6E0D2EFED730
:101256000C2EFCD70B2EFAD700009D8AF28CF28E4C
:02126600120074
:10126800000E0001A41902E1000EA31909E19FC0B4
:10127800E0F0A1C0E1F0A5C0E2F0A2EC00F0DAD005
:10128800AA6BAB6B9F51A15DAC6FA051A259AD6F1A
:10129800A3C0A8F0A4C0A9F0A3C000F0A4C001F0A6
:1012A80000360090013600C0A6F001C0A7F000503B
:1012B8000308A66F01C0A7F0000EA757010EA825C6
:1012C800016E000EA921026E800EAB19006E800E11
:1012D8000218005C02E10150AA5DD8B0ABD0AA5157
:1012E8009F25E06FA851A125E16FA5C0E2F0A2EC0F
:1012F80000F0AA519F25E06FA851A15DE16FA5C03C
:10130800E2F0A2EC00F0800E006E800EAB19005CDB
:1013180002E1AA51000814E2AA519F5DE06FA851AA
:10132800A125E16FA5C0E2F0A2EC00F0AA519F5DF3
:10133800E06FA851A15DE16FA5C0E2F0A2EC00F05A
:10134800AB51A91902E1A851AA1939E0A851A12560
:10135800E06FAC51E05FAA51A125E16FA5C0E2F0B2
:10136800A2EC00F0A851A15DE06FAC51E05FAA517A
:10137800A125E16FA5C0E2F0A2EC00F0800E006E9E
:10138800800EAB19005C02E1AA51000818E2A851CE
:10139800A125E06FAC51E05FAA51A15DE16FA5C046
:1013A800E2F0A2EC00F0A851A15DE06FAC51E05F63
:1013B800AA51A15DE16FA5C0E2F0A2EC00F0800E99
:1013C800A719006E800E005C02E1000EA65D13E214
:1013D800AAC000F0ABC001F000360090013600361C
:1013E80000900136060E0026000E01220050A627A6
:1013F8000150A7231CD0A851AA5D036EA951AB596F
:10140800046E03C000F004C001F0003600900136FD
:101418000036009001360A0E0026000E0122005008
:10142800A6270150A723010EA85F000EA95BAA4BAF
:06143800AB2B44D71200AB
:10143E0000C0A1F001C0A2F0A80E006E000E016E59
:10144E00B4EC04F0050E006EA30EE16E000EE26E1B
:10145E00A80EE96E000EEA6EEECFE6FF0006FCE186
:10146E000001A55305E09F51010F006E00C09FF0D3
:10147E00A65304E09F05006E00C09FF0A4530AE03F
:10148E00A051010F006E00C0A0F0310EA05D02E36E
:10149E00310EA06FA35309E0A005006E00C0A0F0AE
:1014AE00A051070802E3070EA06F020E006EA1C046
:1014BE00E1FFA2C0E2FF9F0EE96E000EEA6EEECFD4
:0814CE00E6FF0006FCE112003C
:1014D6009F0E0001AE6F000EAF6F010EB06F000ED3
:0614E600B16F34DE1200BC
:1014EC000900F5CFE6FF0006FBE10106F9E1120069
:1014FC000001836B7A6B7B6B939A9398939493967E
:10150C00939093928A9A120E006E000E016E830EC7
:10151C000024E16E0F0E0120E26EE66A8A948A9630
:10152C008A908A828A8A3F0E836E43EC00F0C00E4A
:10153C00836E43EC00F08A808A923F0E836E43ECFC
:0C154C0000F0C00E836E43EC00F01200B3
:10155800020E0001A325016E026A000E0222800E0F
:101568009FBF7F0E006E800E0218005C02E10150E2
:101578009F5D37E2030E9F25016E000E9FBFFF0E91
:10158800026E000E0222800E006E800E0218005CB1
:1015980002E10150A35D25E20E0EA425016E026A48
:1015A800000E0222800EA0BF7F0E006E800E021871
:1015B800005C02E10150A05D14E2A051030F016E2E
:1015C800026A000EA0BFFF0E0222800E006E800E7F
:1015D8000218005C02E10150A45D03E2010E006EF6
:0615E80001D0006A1200B0
:0615EE00206A1F6A1200D2
:1015F400AECF01F0ABA202D0AB98AB8801C000F033
:021604001200D2
:10160600010E00019F25E96E000EA021EA6E070E6D
:10161600EE24026E036A000E032202C004F0010EDD
:10162600A125E96E000EA221EA6EEECF01F0800E32
:1016360001BE7F0E006E800E005C02E10250015C6E
:1016460023E2010E9F25016E000EA021026E01C04D
:10165600E9FF02C0EAFFEE04006E01C0E1FF02C02E
:10166600E2FF00C0E6FF010E9F25E96E000EA021F5
:10167600EA6EEE50070808E3010E9F25E16E000EA4
:10168600A021E26E070EE66E010EA125E96E000EA0
:10169600A221EA6EEECF01F0800E006E800E01BE32
:1016A6007F0E005C02E10150045C24E2010E9F25DE
:1016B600016E000EA021026E01C0E9FF02C0EAFF22
:1016C600EE50010F006E01C0E1FF02C0E2FF00C054
:1016D600E6FF010E9F25E96E000EA021EA6E310E8F
:1016E600EE5C08E3010E9F25E16E000EA021E26E7E
:0616F600310EE66E120049
:1016FC00FEEC03F09F51010F046E056A000E0522EB
:0E170C0068EC05F008C000F009C001F0120002
:10171A0000019F6B10DD000E015C02E1030E005C0C
:10172A0009E39F0EAE6F000EAF6F010EB06F000E91
:0A173A00B16F2FDD9FC000F0120018
:10174400680E0001AE6F290EAF6F000EB06F3CEC57
:1017540004F0290E0B6E960E0C6E7F0E0D6E0D2E80
:10176400FED70C2EFCD70B2EFAD7AE6BCBEC05F0C4
:02177400120061
:101776009FC0AEF0610E0001AF6F000EB06FFEECC1
:1017860004F0610EAE6F000EAF6FF9EC05F000C00D
:10179600A1F001C0A2F01C0EAE6F000EAF6F760E68
:1017A600B06FB16B010EB26F10DDA1C0AEF0A2C07A
:1017B600AFF05F0EB06FB16B010EB26F06DDA0C069
:1017C600AEF0610EAF6F000EB06FFEEC04F0610E6E
:1017D600AE6F000EAF6FF9EC05F000C0A1F001C0CE
:1017E600A2F0190EAE6F000EAF6FB06BB16B010EAB
:1017F600B26FEBDCA1C0AEF0A2C0AFF01F0EB06FAF
:0A180600B16B010EB26FE1DC1200BD
:1018100000019F51000A13E1020EA025E16E000EA7
:10182000A121E26EA2510008006E00C0E6FF030E87
:10183000A025E16E000EA121E26EA2C0E6FF9F513D
:10184000010A16E1020EA025E16E000EA121E26E52
:10185000A2510008006E00C0E6FF030EA025E16E55
:10186000000EA121E26EA2510008006E00C0E6FF4A
:101870009F51020A12E1020EA025E16E000EA12185
:10188000E26EA2510008006E00C0E6FF030EA02524
:0C189000E16E000EA121E26EE66A12007B
:10189C009FC0E9FFA0C0EAFFEECF01F001C0AEF09F
:1018AC00010E00019F25E96E000EA021EA6EEECF1D
:1018BC0000F000C0AFF0020E0124B06F0E0E002439
:0E18CC00B16FB26BA1C0B3F05DEC06F012007C
:1018DA009FC0E9FFA0C0EAFFEECF01F001C0C8F047
:1018EA00010E00019F25E96E000EA021EA6EEECFDF
:1018FA0000F000C0C9F0020E0124CA6F020E0024D3
:0C190A00CB6F010ECC6FC0EC03F012009C
:10191600680E0001AE6F210EAF6F000EB06F3CEC8B
:1019260004F0290E0B6E960E0C6E7F0E0D6E0D2EAC
:10193600FED70C2EFCD70B2EFAD7AE6BCBEC05F0F0
:0219460012008D
:1019480000019F51000A10E1020EA025E16E000E71
:10195800A121E26EA2C0E6FF030EA025E16E000EF3
:10196800A121E26EA2C0E6FF9F51010A13E1020E17
:10197800A025E16E000EA121E26EA2C0E6FF030ED3
:10198800A025E16E000EA121E26EA2510008006EB2
:1019980000C0E6FF9F51020A10E1020EA025E16E89
:1019A800000EA121E26EA2C0E6FF030EA025E16EA3
:0C19B800000EA121E26EA2C0E6FF1200AA
:1019C40000019F6B0E0E9F5D15E29FC000F0003674
:1019D400009000360090080E002600C0AEF00050C3
:1019E400010FAF6F3F0EB06F010EB16F82EC04F0C8
:0619F4009F2BE8D7120052
:1019FA0000C002F001C003F00001A1519F25006E52
:101A0A0000C09FF0A251A025006E00C0A0F0040EF5
:101A1A00006E02C0E1FF03C0E2FF9F0EE96E000EF6
:0C1A2A00EA6EEECFE6FF0006FCE11200C1
:101A36009FC0E9FFA0C0EAFFEECF01F0800E000ACA
:101A4600006E800E0118005C21E39FC0E1FFA0C07C
:101A5600E2FF400EE66E010E00019F25E16E000ECC
:101A6600A021E26E200EE66E020E9F25E16E000EAC
:101A7600A021E26E010EE66E030E9F25E16E000EBA
:101A8600A021E26EFF0EE66E006A31D09FC0E9FF2C
:101A9600A0C0EAFFEECF01F0800E0118006E800EA6
:101AA6007D0A005C22E300019FC0E1FFA0C0E2FFC7
:101AB600400EE66E010E9F25E16E000EA021E26E3D
:101AC600200EE66E020E9F25E16E000EA021E26E4C
:101AD600FF0EE66E030E9F25E16E000EA021E26E5C
:101AE600010EE66E010E006E02D0020E006E1200AE
:101AF6009FC0E9FFA0C0EAFFEECF01F001C0AEF043
:101B0600010E00019F25E96E000EA021EA6EEECFC0
:101B160000F000C0AFF0020E015CB06F0E0E0024A4
:0E1B2600B16FB26BA1C0B3F05DEC06F012001F
:101B3400680E0001AE6F2D0EAF6F000EB06F3CEC5F
:101B440004F0290E0B6E960E0C6E7F0E0D6E0D2E8C
:101B5400FED70C2EFCD70B2EFAD7AE6BCBEC05F0D0
:021B640012006D
:101B6600010E00019F25E96E000EA021EA6E800E8F
:101B7600EE18006E800E3D0A005C0BE3030E9F25F7
:101B8600E16E000EA021E26EA1510008006E00C0B9
:101B9600E6FF010E9F25E96E000EA021EA6E800E7B
:101BA600070A006E800EEE18005C08E3030E9F2500
:101BB600E16E000EA021E26EA1C0E6FF9FC0E9FF24
:101BC600A0C0EAFFEECF01F0800E0118006E800E75
:101BD6007D0A005C0BE3020E9F25E16E000EA0213C
:101BE600E26EA1510008006E00C0E6FF9FC0E9FF4B
:101BF600A0C0EAFFEECF01F0800E000A006E800E54
:101C06000118005C08E3020E9F25E16E000EA0217C
:081C1600E26EA1C0E6FF12001E
:101C1E00B0EC19F0050E0001856F190E866F050EDA
:101C2E00876F190E886F050E896F190E8A6F400E19
:101C3E008B6F200E8C6FFF0E8D6F010E8E6F010E4F
:101C4E008F6F906B916B926B936B946B1BEC09F097
:101C5E000F0EC16E4CDCAE6BCBEC05F06CD26BDDB7
:101C6E00010E906F78D252DD0050F50A03E1030E9B
:101C7E00906FB5D09A0E006E000E016EB4EC04F0AB
:101C8E00050E006E950EE16E000EE26E9A0EE96E76
:101C9E00000EEA6EEECFE6FF0006FCE10001915168
:101CAE00000A47E1AE6BCBEC05F0680EAE6F250E69
:101CBE00AF6F000EB06F3CEC04F0190E9F6F000E6C
:101CCE00A06F230EA16F000EA26F040EA36F000E65
:101CDE00A46F010EA56F34EC09F0995306E0020EC5
:101CEE00906FAE6BCBEC05F07AD0955303E1965323
:101CFE0001E11FD0AE6BCBEC05F0680EAE6F250E7A
:101D0E00AF6F000EB06F3CEC04F0190E9F6F000E1B
:101D1E00A06F300EA16F000EA26F040EA36F000E07
:101D2E00A46F010EA56F34EC09F0010E916F966B46
:101D3E00956B9151010A4AE1AE6BCBEC05F0680E42
:101D4E00AE6F250EAF6F000EB06F3CEC04F0190EA7
:101D5E009F6F000EA06F300EA16F000EA26F040ECB
:101D6E00A36F000EA46F010EA56F34EC09F099530A
:101D7E000AE0030E906FAE6BCBEC05F0F50E9F6F85
:101D8E006BEC0AF02CD0955303E1965301E11ED073
:101D9E00AE6BCBEC05F0680EAE6F250EAF6F000E7E
:101DAE00B06F3CEC04F0190E9F6F000EA06F230E67
:101DBE00A16F000EA26F040EA36F000EA46F010E92
:101DCE00A56F34EC09F0916B966B956B9C0E0C6EB7
:101DDE00D70E0D6E0D2EFED70C2EFCD744D7BBD1D1
:101DEE00850E9F6F000EA06FA16B51DD890E9F6F48
:101DFE00000EA06FA16B78DE8F51030802E2030E76
:101E0E008F6F040E006E9F0EE16E000EE26E8B0E53
:101E1E00E96E000EEA6EEECFE6FF0006FCE19A0ECA
:101E2E00006E000E016EE2DD040E006E8B0EE16E92
:101E3E00000EE26E9A0EE96E000EEA6EEECFE6FF2F
:101E4E000006FCE18B0E9F6F000EA06F8FC0A1F0FD
:101E5E0083DE020E006E9F0EE16E000EE26E850EA8
:101E6E00E96E000EEA6EEECFE6FF0006FCE19A0E7A
:101E7E00006E000E016E1FEC0AF0020E006E850E53
:101E8E00E16E000EE26E9A0EE96E000EEA6EEECF75
:101E9E00E6FF0006FCE1890E9F6F000EA06F8B0E11
:101EAE00A16F000EA26F03EC0BF0040E006E9F0EDE
:101EBE00E16E000EE26E8B0EE96E000EEA6EEECF54
:101ECE00E6FF0006FCE1020E006EA30EE16E000EB0
:101EDE00E26E850EE96E000EEA6EEECFE6FF0006AC
:101EEE00FCE1ACEC0AF000520FE08F2B020E9F6F5C
:101EFE007EEC0BF000C09FF08B0E0001A06F000E69
:101F0E00A16F8FC0A2F07DDC040E006E9F0EE16EFD
:101F1E00000EE26E8B0EE96E000EEA6EEECFE6FF5D
:101F2E000006FCE1020E006EA30EE16E000EE26EE4
:101F3E00890EE96E000EEA6EEECFE6FF0006FCE1BA
:101F4E00ACEC0AF000520FE08F2B020E9F6F7EEC6E
:101F5E000BF000C09FF08B0E0001A06F000EA16F62
:101F6E008FC0A2F0EADC8B0E9F6F000EA06F5CDDBF
:101F7E0000C092F04FD0050E00019425006E00C0F7
:101F8E0094F000C09FF093C0A0F0BBEC0BF0010EDC
:101F9E008F6F0A0E945D0DE3C6DD010E906F820EFB
:101FAE000C6EDD0E0D6E0D2EFED70C2EFCD7000026
:101FBE0000003BD0050E9325006E00C093F0010E7D
:101FCE008F6F94C09FF000C0A0F0BBEC0BF00A0E18
:101FDE00935D0EE399DC010E906F820E0C6EDD0E9A
:101FEE000D6E0D2EFED70C2EFCD7000000001DD05E
:101FFE001CD094C09FF093C0A0F0BBEC0BF0540E1D
:10200E000C6E1C0E0D6E0D2EFED70C2EFCD7000086
:10201E000CD00BD000019251000AADE09251010A92
:10202E00C9E09251020AE5E0F4D7850E9F6F000ECB
:10203E00A06F010EA16F2BDC890E9F6F000EA06F9B
:10204E00010EA16F51DD8B0E9F6F000EA06F3EDC57
:10205E00B2DC2A0E0C6E8D0E0D6E0D2EFED70C2ED2
:10206E00FCD7000000009051010A06E1946B936BBF
:10207E00AE6BCBEC05F001D0B3D66DD0AE6BCBEC26
:10208E0005F0850E9F6F000EA06FA16B00DC020E97
:10209E00006E870EE16E000EE26E850EE96E000E8A
:1020AE00EA6EEECFE6FF0006FCE1020E006E9F0E1A
:1020BE00E16E000EE26E850EE96E000EEA6EEECF58
:1020CE00E6FF0006FCE19A0E006E000E016E1FEC9C
:1020DE000AF0020E006E850EE16E000EE26E9A0E92
:1020EE00E96E000EEA6EEECFE6FF0006FCE18851C7
:1020FE00861917E0CC0E9F6F6BEC0AF0850EAE6F53
:10210E00000EAF6F020EB06F000EB16FA9EC08F0AB
:10211E00410E0C6EEE0E0D6E0D2EFED70C2EFCD754
:10212E000000850E9F6F000EA06F010EA16F4EEC8A
:10213E000CF0A7D710D09051000AD8B490D590517A
:10214E00010AD8B490D59051020AD8B449D690510C
:0A215E00030A94E0EFD782D5FFD703
:1033600010EE19F0080E006E010E016E580EF66E8A
:0E337000330EF76E000EF86E76EC0AF01200C7
:102168000000000000000000000000000000000067
:102178000000000000000000000000000000000057
:102188000000000000000000000000000000000047
:102198000000000000000000000000000000000037
:1021A8000000000000000000000000000000000027
:1021B8000000000000000000000000000000000017
:1021C8000000000000000000000000000000000007
:1021D80000000000000000000000000000000000F7
:1021E80000000000000000000000000000000000E7
:1021F80000000000000000000000000000000000D7
:1022080000000000000000000000000000000000C6
:1022180000000000000000000000000000000000B6
:1022280000000000000000000000000000000000A6
:102238000000000000000000000000000000000096
:102248000000000000000000000000000000000086
:102258000000000000000000000000000000000076
:102268000000000000000000000000000000000066
:102278000000000000000000000000000000000056
:102288000000000000000000000000000000000046
:102298000000000000000000000000000000000036
:1022A8000000000000000000000000000000000026
:1022B8000000000000000000000000000000000016
:1022C8000000000000000000000000000000000006
:1022D80000000000000000000000000000000000F6
:1022E80000000000000000000000000000000000E6
:1022F800000000000000000000E0F0D01010107096
:102308006000C0E0301010F0E0C000F0F0E0C0C0A5
:10231800F0F0F00010F0F09090B0301000000000E5
:10232800000000000000F0F0101010F0F00010F0B5
:10233800F0000000F0F00000F0F0F09090B03000F5
:1023480010F0F0F09090F0E00000000000000000B5
:102358000000000000000000000000000000000075
:102368000000000000000000000000000000000065
:10237800000000000000000000070F0F08080B0F06
:1023880007000F0F0303030F0F0F000F0F000300C9
:102398000F0F0F00080F0F09090D0C0800000000AF
:1023A8000000000000000F0F0808080F0F000103CD
:1023B800070E0C06070300080F0F0F09090D0C0084
:1023C800080F0F0F03070F0C0000000000000000AB
:1023D80000000000000000000000000000000000F5
:1023E80000000000000000000000000000000000E5
:1023F80000000000000000000000000000000000D5
:1024080000000000000000000000000000000000C4
:1024180000000000000000000000000000000000B4
:1024280000000000000000000000000000000000A4
:102438000000000000000000000000000000000094
:102448000000000000000000000000000000000084
:102458000000000000000000000000000000000074
:102468000000000000000000000000000000000064
:102478000000000000000000000000000000000054
:102488000000000000000000000000000000000044
:102498000000000000000000000000000000000034
:1024A8000000000000000000000000000000000024
:1024B8000000000000000000000000000000000014
:1024C8000000000000000000000000000000000004
:1024D80000000000000000000000000000000000F4
:1024E80000000000000000000000000000000000E4
:1024F80000000000000000000000000000000000D4
:1025080000000000000000000000000000000000C3
:1025180000000000000000000000000000000000B3
:1025280000000000000000000000000000000000A3
:102538000000000000000000000000000000000093
:102548000000000000000000000000000000000083
:102558000000000000000000000000000000000073
:102568000000000000000000000000000000000063
:1025780000000000000000000000FFFFFFFF8F8F39
:102588008F8F8F8F8F8F8FFFFFFFFF00000000005E
:1025980000FFFFFFFF0F0F0F0F0F0F0FFFFFFFFFD2
:1025A8000000000000FFFFFFFF1FFFFFF0F08000AA
:1025B800000000FFFFFFFF0000E0E0FEFE1E1F0F0F
:1025C8000F0F0F0F0F0F0F0F0F0F0000000000006D
:1025D80000000000000000000000000000000000F3
:1025E80000000000000000000000000000000000E3
:1025F80000000000000000000000FFFFFFFF0707C9
:102608000707070707070707070707000000000075
:1026180000FFFFFFFF80808080808080FFFFFFFF3A
:102628000000000000FFFFFFFF000007077F7F7822
:1026380078F880FFFFFFFF00001F1FFFFFF0F0800A
:10264800809E9E9E9E9EFEFEFEFC000000000000F6
:102658000000000000000000000000000000000072
:102668000000000000000000000000000000000062
:102678000000000000000000000003030303000046
:102688000000000000000000000000000000000042
:1026980000070707070707070707070707070707C9
:1026A8000000000000070707070000000000000006
:1026B80000070707070707000000000000000707DA
:1026C80007070707070707070707000000000000BC
:1026D80000000000000000000000000000000000F2
:1026E80000000000000000000000000000000000E2
:1026F80000000000000000000000000000000000D2
:10270800000000000000C0C0C0C0000000000000C1
:1027180000E0E0606060E0E00000E0E00000000051
:10272800E0E0606060E0E00000E0E00000E0E00081
:1027380000E0E0606060600000E0E06060E0E00011
:102748000000000000000000000000000000000081
:102758000000000000000000000000000000000071
:102768000000000000000000000000000000000061
:102778000000000000000000000000000000000051
:1027880000000000000060607F7F606000000000C3
:10279800007F7F060606070700007F7F60606000F5
:1027A8007F7F0606067F7F000001037F7F0301000D
:1027B800007F7F6660606000007F7F0C1E7F730073
:1027C8000000000000000000000000000000000001
:1027D80000000000000000000000000000000000F1
:1027E80000000000000000000000000000000000E1
:1027F80000000000000000000000000000000000D1
:10280800000000000000B0B0B0B0F0F00000000020
:1028180000F8F8989898F8F80000F8F80000000018
:10282800F8F8989898F8F8000078F8C0C0F8780098
:1028380000F8F8981818180000F8F81898F8F80030
:10284800F8F8989898980000000000000000000030
:102858000000000000000000000000000000000070
:102868000000000000000000000000000000000060
:102878000000000000000000000000000000000050
:102888000000000000000F0F0D0D0D0D00000000EE
:10289800001F1F010101010100001F1F1818180067
:1028A8001F1F0101011F1F000000001F1F00000063
:1028B800001F1F1918181800001F1F03071F1C00EE
:1028C8000D0D0D0D0F0F00000000000000000000AE
:1028D80000000000000000000000000000000000F0
:1028E80000000000000000000000000000000000E0
:1028F80000000000000000000000000000000000D0
:1029080000000000000000000000000000000000BF
:1029180000000000000000000000000000000000AF
:10292800000000000000000000000000000000009F
:10293800000000000000000000000000000000008F
:10294800000000000000000000000000000000007F
:10295800000000000000000000000000000000006F
:10296800000000000000000000000000000000005F
:1029780000000000000000000000FFFFFFFF8F8F35
:102988008F8F8F8F8F8F8FFFFFFFFF00000000005A
:1029980000FFFFFFFF0F0F0F0F0F0F0FFFFFFFFFCE
:1029A8000000000000FFFFFFFF1FFFFFF0F08000A6
:1029B800000000FFFFFFFF0000E0E0FEFE1E1F0F0B
:1029C8000F0F0F0F0F0F0F0F0F0F00000000000069
:1029D80000000000000000000000000000000000EF
:1029E80000000000000000000000000000000000DF
:1029F80000000000000000000000FFFFFFFF0707C5
:102A08000707070707070707070707000000000071
:102A180000FFFFFFFF80808080808080FFFFFFFF36
:102A28000000000000FFFFFFFF000007077F7F781E
:102A380078F880FFFFFFFF00001F1FFFFFF0F08006
:102A4800809E9E9E9E9EFEFEFEFC000000000000F2
:102A5800000000000000000000000000000000006E
:102A6800000000000000000000000000E0E000801E
:102A780080C0E060000000606060E3E363636000C2
:102A880000E0E00000C0C0C0C0C0C00000C0C0C0BE
:102A9800C0C7C7C70707E7E7C70707E7E707070785
:102AA8000000000000C7C7C7C7C0C00000C0C0C042
:102AB800C0C7C7C707C7C7C0C0C0C000C0C0C7C756
:102AC800C7C707E7E7C70707E7E700C0C0C0C0C038
:102AD800C0C00000C0C0C0C0C000000000000000AE
:102AE8000000000000000000000000007F7F070FCA
:102AF8000F1D38787000006060607F7F0000000064
:102B0800007F7F00007F7F0C1E7F7700007F7F6043
:102B180060607F7F00007F7F030F3C7F7F000000A5
:102B280060600000007F7F0C1E7F7700007F7F665B
:102B380066667F3F007F7F0C1E7F77007F7F666021
:102B48006060007F7F030F3C7F7F007F7F6660604F
:102B5800606000006F6F6C7D7D0000000000000069
:102B680000000000000000000000606060E0E0601D
:102B780060606000E0E06060E0E000E0E00000002D
:102B8800E0E000000000E0E06060606000E0E0601D
:102B98006060E0E000000000E0E06060606000006D
:102BA800E0E0C00080C0E0E00000E0E06060E0E05D
:102BB800E000E0E06060606000E0E06060E0E000AD
:102BC80000E0E00000E0E0E0E0C00000E0E060607D
:102BD80060E0E000E0E060E0E000000000000000ED
:102BE800000000000000000000000000003F3F005F
:102BF800000000003F3F06063F3F003F3F303000E7
:102C08003F3F303000003F3F33303030003F3F0619
:102C1800060F3F3B000000003F3F333030300000DC
:102C28003F3F030707013F3F00003F3F33333F1F4C
:102C38001F003F3F33303030003F3F33333F1F00EA
:102C4800003F3F00003F3F30391F0F003F3F30300B
:102C5800303F3F003737363E3E000000000000009E
:102C6800000000000000000000000000000000005C
:102C7800000000000000000000000000000000004C
:102C8800000000000000000000F8F8D8181818002C
:102C98000000F8F898D8F8F80000FCFC00007C7CEC
:102CA800C0C000C0E07C7C0000F8F8D818181800F4
:102CB80000F8F898D8F8F800F8F89898F8F80000AC
:102CC80000000000000000000000000000000000FC
:102CD80000000000000000000000000000000000EC
:102CE80000000000000000000000000000000000DC
:102CF80000000000000000000000000000000000CC
:102D08000000000000000000000F0F0C0C0C0C006D
:102D180000000F0F01030F0E00000F0F000000004E
:102D2800030F0C0F03000000000F0F0C0C0C0C001D
:102D3800000F0F01030F0E000F0F01010F0F00000E
:102D4800000000000000000000000000000000007B
:102D5800000000000000000000000000000000006B
:102D6800000000000000000000000000000000005B
:102D7800000000000000000000000000000000004B
:102D8800000000000000000000000000000000003B
:102D9800000000000000000000000000000000002B
:102DA800000000000000000000000000000000001B
:102DB800000000000000000000000000000000000B
:102DC80000000000000000000000000000000000FB
:102DD80000000000000000000000000000000000EB
:102DE80000000000000000000000000000000000DB
:102DF80000000000000000000000000000000000CB
:102E080000000000000000000000000000000000BA
:102E180000000000000000000000000000000000AA
:102E2800000000000000000000000000000000009A
:102E3800000000000000000000000000000000008A
:102E4800000000000000000000000000000000007A
:102E5800000000000000000000000000000000006A
:102E6800000000000000000000000000000000005A
:102E7800000000000000000000000000000000004A
:102E8800000000000000000000000000000000003A
:102E98000000808080808080F0F0F0F0F0F0F0F0AA
:102EA800F0F0F0F0F0F0F0F080808080808000009A
:102EB800000000000000000000000000000000000A
:102EC80000000000000000000000000000000000FA
:102ED80000000000000000000000000000000000EA
:102EE80000000000000000000000000000000000DA
:102EF80000000000000000000000000000000000CA
:102F080000000000000000000000000000000000B9
:102F1800000001010104040607070F8F0FFFFFFFE0
:102F2800FFFFFF0F8F0707070404040001010000DB
:102F38000000000000000000000000000000000089
:102F48000000000000000000000000000000000079
:102F58000000000000000000000000000000000069
:102F68000000000000000000000000000000000059
:102F7800000000000000000000C0C00000000000C9
:102F880000C0C0C0C000808040404040C0C08080B9
:102F98000000C0C0000000C0C0C0C00000000000A9
:102FA80000C0C00000000000C0C0C0C00000C0C019
:102FB800C0C00000C0C08080000000C0C0C0C00009
:102FC80000C0C0C0C00000000000000000000000F9
:102FD80000000000000000000000000000000000E9
:102FE80000000000000000000000000000000000D9
:102FF800000000000000000000010102021E1E1F68
:103008001F0303010100070F081010101F1F0F0FE7
:1030180000000F0F1010101F1F0F0F0000000000FE
:10302800000F0F10000E0E101F1F0F0F00001F1FA4
:103038001F1F00001F0F00000101020F1F1F1F00AC
:10304800001717171700000000000000000000001C
:103058000000000000000000000000000000000068
:103068000000000000000000000000000000000058
:103078000000000000000000000000000000000048
:103088000000000000000000000000000000000038
:103098000000000000000000000000000000000028
:1030A8000000000000000000000000000000000018
:1030B8000000000000000000000000000000000008
:1030C80000000000000000000000000000000000F8
:1030D80000000000000000000000000000000000E8
:1030E80000000000000000000000000000000000D8
:1030F80000000000000000000000000000000000C8
:1031080000000000000000000000000000000000B7
:1031180000000000000000000000000000000000A7
:103128000000000000000000000000000000000097
:103138000000000000000000000000000000000087
:103148000000000000000000000000000000000077
:103158000000000000000000000000000000000067
:10316800000000000000005F0000000700070014D6
:103178007F147F14242A7F2A122313086462364995
:103188005522500005030000001C22410000412286
:103198001C00082A1C2A0808083E080800503000AD
:1031A8000008080808080030300000201008040251
:1031B8003E5149453E00427F400042615149462107
:1031C80041454B311814127F1027454545393C4A73
:1031D80049493001710905033649494936064949C3
:1031E800291E00363600000056360000000814225A
:1031F8004114141414144122140800020151090640
:10320800324979413E7E1111117E7F494949363E46
:10321800414141227F4141221C7F494949417F095F
:103228000901013E414151327F0808087F00417F72
:1032380041002040413F017F081422417F40404027
:10324800407F0204027F7F0408107F3E4141413ED7
:103258007F090909063E4151215E7F091929464621
:103268004949493101017F01013F4040403F1F204A
:1032780040201F7F2018207F6314081463030478FC
:103288000403615149454300007F4141020408108D
:103298002041417F000004020102044040404040B8
:1032A800000102040020545454787F4844443838BC
:1032B80044444420384444487F3854545418087EC1
:1032C800090102081454543C7F0804047800447D22
:1032D80040002040443D00007F10284400417F40CA
:1032E800007C041804787C08040478384444443882
:1032F8007C14141408081414187C7C080404084866
:1033080054545420043F4440203C4040207C1C201E
:1033180040201C3C4030403C44281028440C50506D
:10332800503C4464544C44000836410000007F007F
:1033380000004136080008082A1C08081C2A08084A
:02334800051965
:02334A00051963
:02334C00051961
:04334E004020FF011B
:013352000179
:013353000079
:013354000078
:013355000077
:013356000076
:013357000075
:03335800503200F0
:03335B00503100EE
:01335E00006E
:01335F00006D
:020000040030CA
:0E000000010C1F1EFF8381FF0FC00FE00F4099
:00000001FF
