:1000000023EF01F00000000000EF00F0000000000E
:0A0010000000000000000000F3D71C
:0C001C00060E0D6E0D2EFED70000120027
:0A002800F9DF8A88F7DF8A981200DA
:06003200000000001200B6
:100038007F0E2214006E00C022F08A948A96BF0EAA
:10004800001600C022F0008C00C022F000C083FF20
:04005800E7DF1200CC
:10005C007F0E2214016E01C022F001AC03D08A8005
:0A006C008A9202D08A908A82120064
:10007600120E006E000E016E830E0024E16E0F0E4E
:100086000120E26EFF0EE66ED1DFD0DF8A848A9809
:100096008A868A88C0DF83CF22F08A988A96C6DF4E
:1000A600C5DF120E006E000E016E830E0024E16E97
:0E00B6000F0E0120E26EE66A22C000F012007A
:0E00C4008A988A848A9622C083FFACDF1200DD
:0E00D2008A948A96B80E2210836EA5DF120063
:1000E0008A908A821E6A1E5007080EE31EC022F004
:1000F000F0DF1D6A1D503F0805E31CC022F0E2DF5F
:100100001D2AF8D71E2AEFD78A928A801E6A1E50AF
:1001100007080EE31EC022F0DCDF1D6A1D503F08F9
:1001200005E31CC022F0CEDF1D2AF8D71E2AEFD728
:020130001200BB
:10013200156A166A176A939A939893949396939072
:1001420093928A9A120E006E000E016E830E0024A4
:10015200E16E0F0E0120E26EE66A8A948A968A9018
:100162008A828A8A3F0E836E5EDFC00E836E5BDFF9
:100172008A808A923F0E836E56DFC00E836E53DFF3
:02018200120069
:10018400000E1C5C0AE31C507F0807E3000E1D5C94
:1001940004E31D503F0801E301D04AD01CC022F003
:1001A4005BDF1DC022F02232229E2232229E2232A6
:1001B400229E8DDF1CC022F03DDF5BDF00C021F0FA
:1001C40058DF00C021F01DC022F02232229E2232CC
:1001D400229E2232229E7BDF1CC022F02BDF070EE0
:1001E4001D14006E00C01FF000C001F0010E006E6F
:1001F400015004E000360090FF0FFBD700C01FF051
:10020400001C206E09D0205021160FD01F5021123F
:100214000CD01F50211A09D01E50000AF4E01E50C1
:10022400010AF4E01E50020AF4E021C022F048DF83
:020234001200B6
:100236000900F5CFE6FF0006FBE10106F9E1120031
:100246003E0E186E000E196E200E1A6E000E1B6EF4
:100256000F0EC16E6BDF1C6A40DF18C01CF01AC09F
:100266001DF0020E1E6E8BDF1A0E0C6EF80E0D6E52
:100276000D2EFED70C2EFCD7000080A00ED01C6AD7
:100286002CDF0D0E0C6EFB0E0D6E0D2EFED70C2EFA
:10029600FCD700000000184A192A80A210D01C6A58
:1002A6001CDF0D0E0C6EFB0E0D6E0D2EFED70C2EEA
:1002B600FCD700000000010E185E000E195A80A43B
:1002C6000ED01C6A0ADF0D0E0C6EFB0E0D6E0D2E87
:1002D600FED70C2EFCD7000000001A4A1B2A80A667
:1002E60010D01C6AFADE0D0E0C6EFB0E0D6E0D2E76
:1002F600FED70C2EFCD700000000010E1A5E000E81
:060306001B5AABD7FFD724
:020000040030CA
:0E000000010C1F1EFF8381FF0FC00FE00F4099
:00000001FF
