:1000000004EF02F00000000000EF00F0000000002C
:0A0010000000000000000000F3D71C
:0C001C00060E0D6E0D2EFED70000120027
:0A002800F9DF8A88F7DF8A981200DA
:06003200000000001200B6
:0E0038008A988A848A9639C083FFF2DF12000C
:100046007F0E3914016E01C039F001AC03D08A80ED
:0A0056008A9202D08A908A8212007A
:10006000120E006E000E016E830E0024E16E0F0E64
:100070000120E26EFF0EE66EDCDFDBDF8A848A9809
:100080008A868A88CBDF83CF39F08A988A96D1DF37
:10009000D0DF120E006E000E016E830E0024E16EA2
:0E00A0000F0E0120E26EE66A39C000F0120079
:1000AE007F0E3914006E00C039F08A948A96BF0E06
:1000BE00001600C039F0008C00C039F000C083FF7C
:0400CE00ACDF120091
:0E00D2008A948A96B80E3910836EA5DF12004C
:1000E000000E335C0AE333507F0807E3000E345CF4
:1000F00004E334503F0801E301D04AD033C039F063
:10010000A2DF34C039F03932399E3932399E393262
:10011000399EDFDF33C039F0CADFA2DF00C038F01C
:100120009FDF00C038F034C039F03932399E39329F
:10013000399E3932399ECDDF33C039F0B8DF070E32
:100140003414006E00C036F000C001F0010E006EE5
:10015000015004E000360090FF0FFBD700C036F0DE
:10016000001C376E09D0375038160FD03650381271
:100170000CD03650381A09D03550000AF4E035500A
:10018000010AF4E03550020AF4E038C039F054DFD7
:0201900012005B
:100192008A908A82266A265007080EE326C039F022
:1001A20097DF256A25503F0805E324C039F043DF75
:1001B200252AF8D7262AEFD78A928A80266A2650DD
:1001C20007080EE326C039F083DF256A25503F0871
:1001D20005E324C039F02FDF252AF8D7262AEFD7E6
:0201E200120009
:1001E4001D6A1E6A1F6A939A9398939493969390A8
:1001F40093928A9A120E006E000E016E830E0024F2
:10020400E16E0F0E0120E26EE66A8A948A968A9065
:100214008A828A8A3F0E836E05DFC00E836E02DFF8
:100224008A808A923F0E836EFDDEC00E836EFADEF4
:020234001200B6
:100236000900F5CFE6FF0006FBE10106F9E1120031
:10024600000E291802E1000E281808E124C033F038
:1002560026C034F02AC035F040DFD2D02F6A306A8B
:100266002450265C316E25502758326E28C02DF05A
:1002760029C02EF028C000F029C001F000360090F9
:10028600013600C02BF001C02CF0005003082B6E85
:1002960001C02CF0000E2C56010E2D24016E000E0E
:1002A6002E20026E800E3018006E800E0218005C42
:1002B60002E101502F5CD8B0A3D02F502424336E16
:1002C6002D502624346E2AC035F007DF2F50242403
:1002D600336E2D50265C346E2AC035F0FEDE800E5D
:1002E600006E800E3018005C02E12F50000812E20A
:1002F6002F50245C336E2D502624346E2AC035F0E0
:10030600ECDE2F50245C336E2D50265C346E2AC0F2
:1003160035F0E3DE30502E1802E12D502F1835E06F
:100326002D502624336E3150335E2F502624346EE2
:100336002AC035F0D2DE2D50265C336E3150335E46
:100346002F502624346E2AC035F0C7DE800E006E8C
:10035600800E3018005C02E12F50000816E22D5086
:100366002624336E3150335E2F50265C346E2AC0FD
:1003760035F0B3DE2D50265C336E3150335E2F5090
:10038600265C346E2AC035F0A8DE800E2C18006E6E
:10039600800E005C02E1000E2B5C13E22FC000F021
:1003A60030C001F00036009001360036009001366C
:1003B600060E0026000E012200502B2601502C228C
:1003C6001CD02D502F5C036E2E503058046E03C087
:1003D60000F004C001F000360090013600360090AF
:1003E60001360A0E0026000E012200502B2601506F
:1003F6002C22010E2D5E000E2E5A2F4A302A4CD783
:020406001200E2
:100408003E0E206E000E216E200E226E000E236E10
:10041800320E156E000E166E280E176E000E186E30
:10042800010E196E000E1A6E010E1B6E000E1C6E68
:100438000F0EC16ED3DE246AA8DE15C024F016C0E4
:1004480025F017C026F018C027F0050E286E000EFC
:10045800296E010E2A6EF3DE150E0B6E4B0E0C6E16
:10046800BE0E0D6E0D2EFED70C2EFCD70B2EFAD716
:10047800000020C033F022C034F0020E356E2CDEAE
:100488001A0E0C6EF80E0D6E0D2EFED70C2EFCD724
:10049800000080A00ED0246A78DE0D0E0C6EFB0ED4
:1004A8000D6E0D2EFED70C2EFCD700000000204A42
:1004B800212A80A210D0246A68DE0D0E0C6EFB0E75
:1004C8000D6E0D2EFED70C2EFCD700000000010E7D
:1004D800205E000E215A80A40ED0246A56DE0D0E2E
:1004E8000C6EFB0E0D6E0D2EFED70C2EFCD70000E9
:1004F8000000224A232A80A610D0246A46DE0D0E68
:100508000C6EFB0E0D6E0D2EFED70C2EFCD70000C8
:0E0518000000010E225E000E235A8FD7FFD77F
:020000040030CA
:0E000000010C1F1EFF8381FF0FC00FE00F4099
:00000001FF
