:100000000EEF00F00000000000EF00F00000000024
:0A0010000000000000000000F3D71C
:10001C00896A8A6A926A936A80820B0E0B6E260E2C
:10002C000C6E5D0E0D6E0D2EFED70C2EFCD70B2E0E
:10003C00FAD70000000080920B0E0B6E260E0C6E91
:10004C005D0E0D6E0D2EFED70C2EFCD70B2EFAD797
:10005C000000000081820B0E0B6E260E0C6E5D0EE6
:10006C000D6E0D2EFED70C2EFCD70B2EFAD70000E2
:10007C00000081920B0E0B6E260E0C6E5D0E0D6E3B
:10008C000D2EFED70C2EFCD70B2EFAD7000000003D
:04009C00C3D7FFD7F0
:020000040030CA
:0E000000010C1F1EFF8381FF0FC00FE00F4099
:00000001FF
