:100000005AEF01F00000000000EF00F000000000D7
:0A0010000000000000000000F3D71C
:0C001C00060E0D6E0D2EFED70000120027
:06002800000000001200C0
:0A002E00F6DF8A88F4DF8A981200DA
:100038007F0E2D14016E01C02DF001AC03D08A8013
:0A0048008A9202D08A908A82120088
:0E0052008A948A96B80E2D10836EE8DF120095
:100060007F0E2D14006E00C02DF08A948A96BF0E6C
:10007000001600C02DF0008C00C02DF000C083FFE2
:04008000D6DF1200B5
:0C0084000E0E0D6E0D2EFED700001200B7
:10009000120E006E000E016E830E0024E16E0F0E34
:1000A0000120E26EFF0EE66EBFDFBEDF8A848A9813
:1000B0008A868A88B3DF83CF2DF08A988A96B4DF48
:1000C000B3DF120E006E000E016E830E0024E16E8F
:0E00D0000F0E0120E26EE66A2DC000F0120055
:0E00DE008A988A848A962DC083FFA2DF1200C2
:1000EC00166A1B6A1C6A939A9398939493969390AE
:1000FC0093928A9A120E006E000E016E830E0024EB
:10010C00E16E0F0E0120E26EE66A8A948A968A905E
:10011C008A828A8A3F0E836E84DFC00E836E81DFF3
:10012C008A808A923F0E836E7CDFC00E836E79DFED
:02013C001200AF
:10013E008A908A82296A295007080EE329C02DF079
:10014E0081DF286A28503F0805E327C02DF0C0DF65
:10015E00282AF8D7292AEFD78A928A80296A295025
:10016E0007080EE329C02DF06DDF286A28503F08DE
:10017E0005E327C02DF0ACDF282AF8D7292AEFD7C0
:02018E0012005D
:10019000C26A151C006E0050C116070EC012C08E38
:1001A00027C000F000360090003600900050C212C8
:1001B000C28068DFC282C2A201D0FDD7C4CF01F0E5
:0E01C000006AC3500012000E0112C29012001D
:1001CE000900F5CFE6FF0006FBE10106F9E112009A
:1001DE00FF0E176EFF0E186EFF0E196EFF0E1A6EC3
:1001EE00C26A151C006E0050C116070EC012C08EDA
:0401FE00C2801200A9
:10020200000E275C0AE327507F0807E3000E285CF4
:1002120004E328503F0801E301D04AD027C02DF063
:100222000ADF28C02DF02D322D9E2D322D9E2D322B
:100232002D9E0EDF27C02DF012DF29DF00C02CF02B
:1002420026DF00C02CF028C02DF02D322D9E2D323D
:100252002D9E2D322D9EFCDE27C02DF000DF070ED5
:100262002814006E00C02AF000C001F0010E006EDA
:10027200015004E000360090FF0FFBD700C02AF0C7
:10028200001C2B6E09D02B502C160FD02A502C128A
:100292000CD02A502C1A09D02950000AF4E0295017
:1002A200010AF4E02950020AF4E02CC02DF016DF16
:0202B200120038
:1002B400C8EC01F0FF0E946EFF0E926E92863C0E17
:1002C4001D6E000E1E6E1E0E1F6E000E206E0CDFC5
:1002D400276A33DF82DF1DC027F01FC028F0010E1C
:1002E400296E8DDF290E0B6E960E0C6E7F0E0D6E31
:1002F4000D2EFED70C2EFCD70B2EFAD7276A1DDF46
:100304001FC021F020C022F01DC027F01FC028F01C
:10031400010E296E74DF010E276E38DF00C023F052
:1003240001C024F0000E256E266E4E0E0C6EEB0EF0
:100334000D6E0D2EFED70C2EFCD7276AFEDE000EA6
:10034400265C08E1000E255C05E1030E245C02E155
:10035400200E235C05E3010E1F5E000E205A13D00D
:100364002650000808E12550000805E12450000843
:1003740002E12350C80803E31F4A202A04D021C005
:0A0384001FF022C020F0BCD7FFD705
:1003900010EE15F0010E006E010E016E8E0EF66E5F
:0E03A000030EF76E000EF86EE7EC00F0120090
:01038E00303E
:020000040030CA
:0E000000010C1F1EFF8381FF0FC00FE00F4099
:00000001FF
