:1000000004EF02F00000000000EF00F0000000002C
:0A0010000000000000000000F3D71C
:0C001C00060E0D6E0D2EFED70000120027
:0A002800F9DF8A88F7DF8A981200DA
:06003200000000001200B6
:0E0038008A988A848A9635C083FFF2DF120010
:100046007F0E3514016E01C035F001AC03D08A80F5
:0A0056008A9202D08A908A8212007A
:10006000120E006E000E016E830E0024E16E0F0E64
:100070000120E26EFF0EE66EDCDFDBDF8A848A9809
:100080008A868A88CBDF83CF35F08A988A96D1DF3B
:10009000D0DF120E006E000E016E830E0024E16EA2
:0E00A0000F0E0120E26EE66A35C000F012007D
:1000AE007F0E3514006E00C035F08A948A96BF0E0E
:1000BE00001600C035F0008C00C035F000C083FF84
:0400CE00ACDF120091
:0E00D2008A948A96B80E3510836EA5DF120050
:1000E000000E2F5C0AE32F507F0807E3000E305C00
:1000F00004E330503F0801E301D04AD02FC035F06F
:10010000A2DF30C035F03532359E3532359E35327E
:10011000359EDFDF2FC035F0CADFA2DF00C034F02C
:100120009FDF00C034F030C035F03532359E3532B7
:10013000359E3532359ECDDF2FC035F0B8DF070E46
:100140003014006E00C032F000C001F0010E006EED
:10015000015004E000360090FF0FFBD700C032F0E2
:10016000001C336E09D0335034160FD03250341285
:100170000CD03250341A09D03150000AF4E031501A
:10018000010AF4E03150020AF4E034C035F054DFE3
:0201900012005B
:100192008A908A82226A225007080EE322C035F032
:1001A20097DF216A21503F0805E320C035F043DF85
:1001B200212AF8D7222AEFD78A928A80226A2250ED
:1001C20007080EE322C035F083DF216A21503F0881
:1001D20005E320C035F02FDF212AF8D7222AEFD7F6
:0201E200120009
:1001E4001D6A1E6A1F6A939A9398939493969390A8
:1001F40093928A9A120E006E000E016E830E0024F2
:10020400E16E0F0E0120E26EE66A8A948A968A9065
:100214008A828A8A3F0E836E05DFC00E836E02DFF8
:100224008A808A923F0E836EFDDEC00E836EFADEF4
:020234001200B6
:100236000900F5CFE6FF0006FBE10106F9E1120031
:10024600000E251802E1000E241808E120C02FF048
:1002560022C030F026C031F040DFD2D02B6A2C6AA3
:100266002050225C2D6E215023582E6E24C029F07A
:1002760025C02AF024C000F025C001F00036009009
:10028600013600C027F001C028F000500308276E91
:1002960001C028F0000E2856010E2924016E000E1A
:1002A6002A20026E800E2C18006E800E0218005C4A
:1002B60002E101502B5CD8B0A3D02B5020242F6E26
:1002C60029502224306E26C031F007DF2B5020241F
:1002D6002F6E2950225C306E26C031F0FEDE800E75
:1002E600006E800E2C18005C02E12B50000812E212
:1002F6002B50205C2F6E29502224306E26C031F000
:10030600ECDE2B50205C2F6E2950225C306E26C00E
:1003160031F0E3DE2C502A1802E129502B1835E083
:10032600295022242F6E2D502F5E2B502224306E02
:1003360026C031F0D2DE2950225C2F6E2D502F5E62
:100346002B502224306E26C031F0C7DE800E006EA0
:10035600800E2C18005C02E12B50000816E2295092
:1003660022242F6E2D502F5E2B50225C306E26C01D
:1003760031F0B3DE2950225C2F6E2D502F5E2B50AC
:10038600225C306E26C031F0A8DE800E2818006E82
:10039600800E005C02E1000E275C13E22BC000F029
:1003A6002CC001F000360090013600360090013670
:1003B600060E0026000E0122005027260150282294
:1003C6001CD029502B5C036E2A502C58046E03C097
:1003D60000F004C001F000360090013600360090AF
:1003E60001360A0E0026000E012200502726015073
:1003F6002822010E295E000E2A5A2B4A2C2A4CD797
:020406001200E2
:10040800320E156E000E166E280E176E000E186E40
:10041800010E196E000E1A6E010E1B6E000E1C6E78
:100428000F0EC16EDBDE206AB0DE15C020F016C0EC
:1004380021F017C022F018C023F0030E246E000E1E
:0C044800256E010E266EFBDEF0D7FFD7FC
:020000040030CA
:0E000000000C1F1EFF8381FF0FC00FE00F409A
:00000001FF
