:100000005EEF02F00000000000EF00F000000000D2
:0A0010000000000000000000F3D71C
:0C001C00060E0D6E0D2EFED70000120027
:0A002800F9DF8A88F7DF8A981200DA
:06003200000000001200B6
:100038007F0E3414006E00C034F08A948A96BF0E86
:10004800001600C034F0008C00C034F000C083FFFC
:04005800E7DF1200CC
:10005C007F0E3414016E01C034F001AC03D08A80E1
:0A006C008A9202D08A908A82120064
:0E0076008A948A96B80E3410836ED3DF12007F
:0E0084008A988A848A9634C083FFCCDF1200EB
:10009200120E006E000E016E830E0024E16E0F0E32
:1000A2000120E26EFF0EE66EC3DFC2DF8A848A9809
:1000B2008A868A88B2DF83CF34F08A988A96B8DF3C
:1000C200B7DF120E006E000E016E830E0024E16E89
:0E00D2000F0E0120E26EE66A34C000F012004C
:1000E000000E2D5C0AE32D507F0807E3000E2E5C06
:1000F00004E32E503F0801E301D04AD02DC034F074
:10010000ADDF2EC034F03432349E3432349E34327B
:10011000349EB1DF2DC034F08FDFBBDF00C032F082
:10012000B8DF00C032F02EC034F03432349E3432A6
:10013000349E3432349E9FDF2DC034F07DDF070EB5
:100140002E14006E00C030F000C001F0010E006EF1
:10015000015004E000360090FF0FFBD700C030F0E4
:10016000001C316E09D0315032160FD0305032128F
:100170000CD03050321A09D02F50000AF4E02F5022
:10018000010AF4E02F50020AF4E032C034F07ADFC2
:0201900012005B
:10019200316A326A336A315007083DE3346A5DDFFF
:1001A20031C034F067DF346A46DF306A30503F08CE
:1001B20011E332502D24F66E33502E20F76E000ECE
:1001C2002F20F86E0900F5CF34F05BDF324A332A74
:1001D200302AECD7400E346E40DF31C034F04ADFB3
:1001E200400E346E28DF400E306E30507F0811E32F
:1001F20032502D24F66E33502E20F76E000E2F2033
:10020200F86E0900F5CF34F03CDF324A332A302A47
:08021200ECD7312AC0D712001D
:10021A008A908A822F6A2F5007080EE32FC034F083
:10022A0025DF2E6A2E503F0805E32DC034F025DF66
:10023A002E2AF8D72F2AEFD78A928A802F6A2F5030
:10024A0007080EE32FC034F011DF2E6A2E503F0844
:10025A0005E32DC034F011DF2E2AF8D72F2AEFD765
:02026A00120080
:10026C00900E2D6E0B0E2E6E000E2F6E8CDF290E47
:10027C000B6E960E0C6E7F0E0D6E0D2EFED70C2E89
:0C028C00FCD70B2EFAD72D6AC2DF12003F
:10029800176A156A166A939A93989394939693900B
:1002A80093928A9A120E006E000E016E830E00243D
:1002B800E16E0F0E0120E26EE66A8A948A968A90B1
:1002C8008A828A8A3F0E836EABDEC00E836EA8DEFA
:1002D8008A808A923F0E836EA3DEC00E836EA0DEF4
:0202E800120002
:1002EA00000E231802E1000E221808E11EC02DF0AC
:1002FA0020C02EF024C02FF0EEDED2D0296A2A6A5E
:10030A001E50205C2B6E1F5021582C6E22C027F0E5
:10031A0023C028F022C000F023C001F0003600906C
:10032A00013600C025F001C026F000500308256EF2
:10033A0001C026F0000E2656010E2724016E000E7B
:10034A002820026E800E2A18006E800E0218005CA9
:10035A0002E10150295CD8B0A3D029501E242D6E89
:10036A00275020242E6E24C02FF0B5DE29501E24DB
:10037A002D6E2750205C2E6E24C02FF0ACDE800E2E
:10038A00006E800E2A18005C02E12950000812E271
:10039A0029501E5C2D6E275020242E6E24C02FF06B
:1003AA009ADE29501E5C2D6E2750205C2E6E24C0CA
:1003BA002FF091DE2A50281802E12750291835E03B
:1003CA00275020242D6E2B502D5E295020242E6E6E
:1003DA0024C02FF080DE2750205C2D6E2B502D5E1E
:1003EA00295020242E6E24C02FF075DE800E006E58
:1003FA00800E2A18005C02E12950000816E22750F4
:10040A0020242D6E2B502D5E2950205C2E6E24C088
:10041A002FF061DE2750205C2D6E2B502D5E295067
:10042A00205C2E6E24C02FF056DE800E2618006E39
:10043A00800E005C02E1000E255C13E229C000F088
:10044A002AC001F0003600900136003600900136CD
:10045A00060E0026000E01220050252601502622F3
:10046A001CD02750295C036E28502A58046E03C0FA
:10047A0000F004C001F0003600900136003600900A
:10048A0001360A0E0026000E0122005025260150D0
:10049A002622010E275E000E285A294A2A2A4CD7FC
:0204AA0012003E
:1004AC000900F5CFE6FF0006FBE10106F9E11200B9
:1004BC003E0E1C6E200E1D6E186A196A1A6A1B6A93
:1004CC000F0EC16EE3DE2D6AA2DE44D1C9DE010E31
:1004DC00186E000E196E54D1900E2D6E070E2E6EE6
:1004EC00000E2F6E50DE190E1E6E000E1F6E220EA9
:1004FC00206E000E216E040E226E000E236E010E75
:10050C00246EEDDE80A815D0000E1B1802E1000E43
:10051C001A180FE1340E0C6EF10E0D6E0D2EFED767
:10052C000C2EFCD700000000020E186E000E196E87
:10053C0094D0000E1B1802E1000E1A1839E180B697
:10054C0003D080B401D034D02D6A61DE340E0C6E31
:10055C00F10E0D6E0D2EFED70C2EFCD700000000F8
:10056C00900E2D6E070E2E6E000E2F6E0CDE190ED9
:10057C001E6E000E1F6E300E206E000E216E040ECD
:10058C00226E000E236E010E246EA9DE0B0E0B6E76
:10059C00260E0C6E5D0E0D6E0D2EFED70C2EFCD79E
:1005AC000B2EFAD700000000010E1A6E000E1B6E07
:1005BC0080A815D0000E1B1802E1010E1A180FE1CD
:1005CC00340E0C6EF10E0D6E0D2EFED70C2EFCD7CC
:1005DC0000000000030E186E000E196E3ED0000EC7
:1005EC001B1802E1010E1A1837E180B603D080B453
:1005FC0001D032D02D6A0BDE340E0C6EF10E0D6E66
:10060C000D2EFED70C2EFCD700000000900E2D6E88
:10061C00070E2E6E000E2F6EB6DD190E1E6E000E1E
:10062C001F6E230E206E000E216E040E226E000E25
:10063C00236E010E246E53DE0B0E0B6E260E0C6E0B
:10064C005D0E0D6E0D2EFED70C2EFCD70B2EFAD791
:10065C00000000001A6A1B6A55D70B0E0B6E260E93
:10066C000C6E5D0E0D6E0D2EFED70C2EFCD70B2EC8
:10067C00FAD7000000002D6ACADD82D01CC02DF014
:10068C001DC02EF0020E2F6E25DD1A0E0C6EF80E0C
:10069C000D6E0D2EFED70C2EFCD700001CC02DF0BD
:1006AC001DC02EF0020E2F6E15DD1A0E0C6EF80EFC
:1006BC000D6E0D2EFED70C2EFCD7000080A011D095
:1006CC002D6AA5DD0D0E0C6EFB0E0D6E0D2EFED7DC
:1006DC000C2EFCD7000000001C50010F006E00C057
:1006EC001CF080A210D02D6A92DD0D0E0C6EFB0E4C
:1006FC000D6E0D2EFED70C2EFCD7000000001C0436
:10070C00006E00C01CF080A411D02D6A80DD0D0E8F
:10071C000C6EFB0E0D6E0D2EFED70C2EFCD70000B2
:10072C0000001D50010F006E00C01DF080A610D0FF
:10073C002D6A6DDD0D0E0C6EFB0E0D6E0D2EFED7A3
:10074C000C2EFCD7000000001D04006E00C01DF034
:10075C0017D016D0000E191802E1000E1818D8B4D4
:10076C00B5D6000E191802E1010E1818D8B4B4D67B
:10077C00000E191802E1020E1818D8B47FD7E9D769
:04078C00A4D6FFD719
:100790000000000000000000000000000000000059
:1007A00000000000000000000000FFFFFFFF8F8F2F
:1007B0008F8F8F8F8F8F8FFFFFFFFF000000000054
:1007C00000FFFFFFFF0F0F0F0F0F0F0FFFFFFFFFC8
:1007D0000000000000FFFFFFFF1FFFFFF0F08000A0
:1007E000000000FFFFFFFF0000E0E0FEFE1E1F0F05
:1007F0000F0F0F0F0F0F0F0F0F0F00000000000063
:1008000000000000000000000000000000000000E8
:1008100000000000000000000000000000000000D8
:1008200000000000000000000000FFFFFFFF0707BE
:10083000070707070707070707070700000000006B
:1008400000FFFFFFFF80808080808080FFFFFFFF30
:100850000000000000FFFFFFFF000007077F7F7818
:1008600078F880FFFFFFFF00001F1FFFFFF0F08000
:10087000809E9E9E9E9EFEFEFEFC000000000000EC
:100880000000000000000000000000000000000068
:100890000000000000000000000000000000000058
:1008A000000000000000000000000303030300003C
:1008B0000000000000000000000000000000000038
:1008C00000070707070707070707070707070707BF
:1008D00000000000000707070700000000000000FC
:1008E00000070707070707000000000000000707D0
:1008F00007070707070707070707000000000000B2
:1009000000000000000000000000000000000000E7
:1009100000000000000000000000000000000000D7
:1009200000000000000000000000000000000000C7
:10093000000000000000C0C0C0C0000000000000B7
:1009400000E0E0606060E0E00000E0E00000000047
:10095000E0E0606060E0E00000E0E00000E0E00077
:1009600000E0E0606060600000E0E06060E0E00007
:100970000000000000000000000000000000000077
:100980000000000000000000000000000000000067
:100990000000000000000000000000000000000057
:1009A0000000000000000000000000000000000047
:1009B00000000000000060607F7F606000000000B9
:1009C000007F7F060606070700007F7F60606000EB
:1009D0007F7F0606067F7F000001037F7F03010003
:1009E000007F7F6660606000007F7F0C1E7F730069
:1009F00000000000000000000000000000000000F7
:100A000000000000000000000000000000000000E6
:100A100000000000000000000000000000000000D6
:100A200000000000000000000000000000000000C6
:100A3000000000000000B0B0B0B0F0F00000000016
:100A400000F8F8989898F8F80000F8F8000000000E
:100A5000F8F8989898F8F8000078F8C0C0F878008E
:100A600000F8F8981818180000F8F81898F8F80026
:100A7000F8F8989898980000000000000000000026
:100A80000000000000000000000000000000000066
:100A90000000000000000000000000000000000056
:100AA0000000000000000000000000000000000046
:100AB0000000000000000F0F0D0D0D0D00000000E4
:100AC000001F1F010101010100001F1F181818005D
:100AD0001F1F0101011F1F000000001F1F00000059
:100AE000001F1F1918181800001F1F03071F1C00E4
:100AF0000D0D0D0D0F0F00000000000000000000A4
:100B000000000000000000000000000000000000E5
:100B100000000000000000000000000000000000D5
:100B200000000000000000000000000000000000C5
:100B300000000000000000000000000000000000B5
:100B400000000000000000000000000000000000A5
:100B50000000000000000000000000000000000095
:100B60000000000000000000000000000000000085
:100B70000000000000000000000000000000000075
:100B80000000000000000000000000000000000065
:100B90000000000000000000000000000000000055
:100BA00000000000000000000000FFFFFFFF8F8F2B
:100BB0008F8F8F8F8F8F8FFFFFFFFF000000000050
:100BC00000FFFFFFFF0F0F0F0F0F0F0FFFFFFFFFC4
:100BD0000000000000FFFFFFFF1FFFFFF0F080009C
:100BE000000000FFFFFFFF0000E0E0FEFE1E1F0F01
:100BF0000F0F0F0F0F0F0F0F0F0F0000000000005F
:100C000000000000000000000000000000000000E4
:100C100000000000000000000000000000000000D4
:100C200000000000000000000000FFFFFFFF0707BA
:100C30000707070707070707070707000000000067
:100C400000FFFFFFFF80808080808080FFFFFFFF2C
:100C50000000000000FFFFFFFF000007077F7F7814
:100C600078F880FFFFFFFF00001F1FFFFFF0F080FC
:100C7000809E9E9E9E9EFEFEFEFC000000000000E8
:100C80000000000000000000000000000000000064
:100C9000000000000000000000000000E0E0008014
:100CA00080C0E060000000606060E3E363636000B8
:100CB00000E0E00000C0C0C0C0C0C00000C0C0C0B4
:100CC000C0C7C7C70707E7E7C70707E7E70707077B
:100CD0000000000000C7C7C7C7C0C00000C0C0C038
:100CE000C0C7C7C707C7C7C0C0C0C000C0C0C7C74C
:100CF000C7C707E7E7C70707E7E700C0C0C0C0C02E
:100D0000C0C00000C0C0C0C0C000000000000000A3
:100D10000000000000000000000000007F7F070FBF
:100D20000F1D38787000006060607F7F0000000059
:100D3000007F7F00007F7F0C1E7F7700007F7F6039
:100D400060607F7F00007F7F030F3C7F7F0000009B
:100D500060600000007F7F0C1E7F7700007F7F6651
:100D600066667F3F007F7F0C1E7F77007F7F666017
:100D70006060007F7F030F3C7F7F007F7F66606045
:100D8000606000006F6F6C7D7D000000000000005F
:100D900000000000000000000000606060E0E06013
:100DA00060606000E0E06060E0E000E0E000000023
:100DB000E0E000000000E0E06060606000E0E06013
:100DC0006060E0E000000000E0E060606060000063
:100DD000E0E0C00080C0E0E00000E0E06060E0E053
:100DE000E000E0E06060606000E0E06060E0E000A3
:100DF00000E0E00000E0E0E0E0C00000E0E0606073
:100E000060E0E000E0E060E0E000000000000000E2
:100E1000000000000000000000000000003F3F0054
:100E2000000000003F3F06063F3F003F3F303000DC
:100E30003F3F303000003F3F33303030003F3F060F
:100E4000060F3F3B000000003F3F333030300000D2
:100E50003F3F030707013F3F00003F3F33333F1F42
:100E60001F003F3F33303030003F3F33333F1F00E0
:100E7000003F3F00003F3F30391F0F003F3F303001
:100E8000303F3F003737363E3E0000000000000094
:100E90000000000000000000000000000000000052
:100EA0000000000000000000000000000000000042
:100EB000000000000000000000F8F8D81818180022
:100EC0000000F8F898D8F8F80000FCFC00007C7CE2
:100ED000C0C000C0E07C7C0000F8F8D818181800EA
:100EE00000F8F898D8F8F800F8F89898F8F80000A2
:100EF00000000000000000000000000000000000F2
:100F000000000000000000000000000000000000E1
:100F100000000000000000000000000000000000D1
:100F200000000000000000000000000000000000C1
:100F30000000000000000000000F0F0C0C0C0C0063
:100F400000000F0F01030F0E00000F0F0000000044
:100F5000030F0C0F03000000000F0F0C0C0C0C0013
:100F6000000F0F01030F0E000F0F01010F0F000004
:100F70000000000000000000000000000000000071
:100F80000000000000000000000000000000000061
:020000040030CA
:0E000000010C1F1EFF8181FF0FC00FE00F409B
:00000001FF
