:100000005FEF02F00000000000EF00F000000000D1
:0A0010000000000000000000F3D71C
:0C001C00060E0D6E0D2EFED70000120027
:0A002800F9DF8A88F7DF8A981200DA
:06003200000000001200B6
:100038007F0E3614006E00C036F08A948A96BF0E82
:10004800001600C036F0008C00C036F000C083FFF8
:04005800E7DF1200CC
:10005C007F0E3614016E01C036F001AC03D08A80DD
:0A006C008A9202D08A908A82120064
:0E0076008A948A96B80E3610836ED3DF12007D
:0E0084008A988A848A9636C083FFCCDF1200E9
:10009200120E006E000E016E830E0024E16E0F0E32
:1000A2000120E26EFF0EE66EC3DFC2DF8A848A9809
:1000B2008A868A88B2DF83CF36F08A988A96B8DF3A
:1000C200B7DF120E006E000E016E830E0024E16E89
:0E00D2000F0E0120E26EE66A36C000F012004A
:1000E000000E2F5C0AE32F507F0807E3000E305C00
:1000F00004E330503F0801E301D04AD02FC036F06E
:10010000ADDF30C036F03632369E3632369E36326D
:10011000369EB1DF2FC036F08FDFBBDF00C034F07A
:10012000B8DF00C034F030C036F03632369E36329A
:10013000369E3632369E9FDF2FC036F07DDF070EAB
:100140003014006E00C032F000C001F0010E006EED
:10015000015004E000360090FF0FFBD700C032F0E2
:10016000001C336E09D0335034160FD03250341285
:100170000CD03250341A09D03150000AF4E031501A
:10018000010AF4E03150020AF4E034C036F07ADFBC
:0201900012005B
:10019200336A346A356A335007083DE3366A5DDFF5
:1001A20033C036F067DF366A46DF326A32503F08C4
:1001B20011E334502F24F66E35503020F76E000EC6
:1001C2003120F86E0900F5CF36F05BDF344A352A6C
:1001D200322AECD7400E366E40DF33C036F04ADFAB
:1001E200400E366E28DF400E326E32507F0811E329
:1001F20034502F24F66E35503020F76E000E312029
:10020200F86E0900F5CF36F03CDF344A352A322A3F
:08021200ECD7332AC0D712001B
:10021A008A908A82316A315007080EE331C036F07B
:10022A0025DF306A30503F0805E32FC036F025DF5E
:10023A00302AF8D7312AEFD78A928A80316A315028
:10024A0007080EE331C036F011DF306A30503F083C
:10025A0005E32FC036F011DF302AF8D7312AEFD75D
:02026A00120080
:10026C006C0E2F6E0B0E306E000E316E8CDF150E79
:10027C000B6E4B0E0C6EBE0E0D6E0D2EFED70C2E95
:0E028C00FCD70B2EFAD700002F6AC1DF12003C
:10029A00176A156A166A939A939893949396939009
:1002AA0093928A9A120E006E000E016E830E00243B
:1002BA00E16E0F0E0120E26EE66A8A948A968A90AF
:1002CA008A828A8A3F0E836EAADEC00E836EA7DEFA
:1002DA008A808A923F0E836EA2DEC00E836E9FDEF4
:0202EA00120000
:1002EC00000E251802E1000E241808E120C02FF0A2
:1002FC0022C030F026C031F0EDDED2D02B6A2C6A51
:10030C002050225C2D6E215023582E6E24C029F0D3
:10031C0025C02AF024C000F025C001F00036009062
:10032C00013600C027F001C028F000500308276EEA
:10033C0001C028F0000E2856010E2924016E000E73
:10034C002A20026E800E2C18006E800E0218005CA3
:10035C0002E101502B5CD8B0A3D02B5020242F6E7F
:10036C0029502224306E26C031F0B4DE2B502024CC
:10037C002F6E2950225C306E26C031F0ABDE800E21
:10038C00006E800E2C18005C02E12B50000812E26B
:10039C002B50205C2F6E29502224306E26C031F059
:1003AC0099DE2B50205C2F6E2950225C306E26C0BB
:1003BC0031F090DE2C502A1802E129502B1835E030
:1003CC00295022242F6E2D502F5E2B502224306E5C
:1003DC0026C031F07FDE2950225C2F6E2D502F5E0F
:1003EC002B502224306E26C031F074DE800E006E4D
:1003FC00800E2C18005C02E12B50000816E22950EC
:10040C0022242F6E2D502F5E2B50225C306E26C076
:10041C0031F060DE2950225C2F6E2D502F5E2B5058
:10042C00225C306E26C031F055DE800E2818006E2E
:10043C00800E005C02E1000E275C13E22BC000F082
:10044C002CC001F0003600900136003600900136C9
:10045C00060E0026000E01220050272601502822ED
:10046C001CD029502B5C036E2A502C58046E03C0F0
:10047C0000F004C001F00036009001360036009008
:10048C0001360A0E0026000E0122005027260150CC
:10049C002822010E295E000E2A5A2B4A2C2A4CD7F0
:0204AC0012003C
:1004AE000900F5CFE6FF0006FBE10106F9E11200B7
:1004BE003E0E186E000E196E200E1A6E000E1B6E7A
:1004CE001C6A1D6A1E6A1F6A0F0EC16EDFDE2F6A5E
:1004DE009DDE2ED1C4DE010E1C6E000E1D6E3DD1B2
:1004EE006C0E2F6E070E306E000E316E4BDE190E37
:1004FE00206E000E216E220E226E000E236E040E52
:10050E00246E000E256E010E266EE9DE80A815D033
:10051E00000E1F1802E1000E1E180FE1340E0C6EB5
:10052E00F10E0D6E0D2EFED70C2EFCD70000000026
:10053E00020E1C6E000E1D6E94D0000E1F1802E1EE
:10054E00000E1E1839E180B603D080B401D034D02D
:10055E002F6A5CDE340E0C6EF10E0D6E0D2EFED774
:10056E000C2EFCD7000000006C0E2F6E070E306EA6
:10057E00000E316E07DE190E206E000E216E300E4B
:10058E00226E000E236E040E246E000E256E010EDA
:10059E00266EA5DE0B0E0B6E260E0C6E5D0E0D6E10
:1005AE000D2EFED70C2EFCD70B2EFAD70000000016
:1005BE00010E1E6E000E1F6E80A815D0000E1F18A5
:1005CE0002E1010E1E180FE1340E0C6EF10E0D6ECF
:1005DE000D2EFED70C2EFCD700000000030E1C6E55
:1005EE00000E1D6E3ED0000E1F1802E1010E1E18E9
:1005FE0037E180B603D080B401D032D02F6A06DE48
:10060E00340E0C6EF10E0D6E0D2EFED70C2EFCD789
:10061E00000000006C0E2F6E070E306E000E316E55
:10062E00B1DD190E206E000E216E230E226E000E0D
:10063E00236E040E246E000E256E010E266E4FDE06
:10064E000B0E0B6E260E0C6E5D0E0D6E0D2EFED766
:10065E000C2EFCD70B2EFAD7000000001E6A1F6A64
:10066E0055D70B0E0B6E260E0C6E5D0E0D6E0D2EEF
:10067E00FED70C2EFCD70B2EFAD7000000002F6AE7
:10068E00C5DD6BD018C02FF01AC030F0020E316EDF
:10069E0020DD1A0E0C6EF80E0D6E0D2EFED70C2EE2
:1006AE00FCD7000080A00ED02F6AB0DD0D0E0C6EB0
:1006BE00FB0E0D6E0D2EFED70C2EFCD7000000008B
:1006CE00184A192A80A210D02F6AA0DD0D0E0C6ECA
:1006DE00FB0E0D6E0D2EFED70C2EFCD7000000006B
:1006EE00010E185E000E195A80A40ED02F6A8EDDF0
:1006FE000D0E0C6EFB0E0D6E0D2EFED70C2EFCD7B6
:10070E00000000001A4A1B2A80A610D02F6A7EDD38
:10071E000D0E0C6EFB0E0D6E0D2EFED70C2EFCD795
:10072E0000000000010E1A5E000E1B5A16D015D0E6
:10073E00000E1D1802E1000E1C18D8B4CBD6000E08
:10074E001D1802E1010E1C18D8B4CAD6000E1D18D1
:0E075E0002E1020E1C1896E0EAD7BBD6FFD7C8
:10076C00000000000000000000000000000000007D
:10077C0000000000000000000000FFFFFFFF8F8F53
:10078C008F8F8F8F8F8F8FFFFFFFFF000000000078
:10079C0000FFFFFFFF0F0F0F0F0F0F0FFFFFFFFFEC
:1007AC000000000000FFFFFFFF1FFFFFF0F08000C4
:1007BC00000000FFFFFFFF0000E0E0FEFE1E1F0F29
:1007CC000F0F0F0F0F0F0F0F0F0F00000000000087
:1007DC00000000000000000000000000000000000D
:1007EC0000000000000000000000000000000000FD
:1007FC0000000000000000000000FFFFFFFF0707E3
:10080C00070707070707070707070700000000008F
:10081C0000FFFFFFFF80808080808080FFFFFFFF54
:10082C000000000000FFFFFFFF000007077F7F783C
:10083C0078F880FFFFFFFF00001F1FFFFFF0F08024
:10084C00809E9E9E9E9EFEFEFEFC00000000000010
:10085C00000000000000000000000000000000008C
:10086C00000000000000000000000000000000007C
:10087C000000000000000000000003030303000060
:10088C00000000000000000000000000000000005C
:10089C0000070707070707070707070707070707E3
:1008AC000000000000070707070000000000000020
:1008BC0000070707070707000000000000000707F4
:1008CC0007070707070707070707000000000000D6
:1008DC00000000000000000000000000000000000C
:1008EC0000000000000000000000000000000000FC
:1008FC0000000000000000000000000000000000EC
:10090C00000000000000C0C0C0C0000000000000DB
:10091C0000E0E0606060E0E00000E0E0000000006B
:10092C00E0E0606060E0E00000E0E00000E0E0009B
:10093C0000E0E0606060600000E0E06060E0E0002B
:10094C00000000000000000000000000000000009B
:10095C00000000000000000000000000000000008B
:10096C00000000000000000000000000000000007B
:10097C00000000000000000000000000000000006B
:10098C0000000000000060607F7F606000000000DD
:10099C00007F7F060606070700007F7F606060000F
:1009AC007F7F0606067F7F000001037F7F03010027
:1009BC00007F7F6660606000007F7F0C1E7F73008D
:1009CC00000000000000000000000000000000001B
:1009DC00000000000000000000000000000000000B
:1009EC0000000000000000000000000000000000FB
:1009FC0000000000000000000000000000000000EB
:100A0C00000000000000B0B0B0B0F0F0000000003A
:100A1C0000F8F8989898F8F80000F8F80000000032
:100A2C00F8F8989898F8F8000078F8C0C0F87800B2
:100A3C0000F8F8981818180000F8F81898F8F8004A
:100A4C00F8F898989898000000000000000000004A
:100A5C00000000000000000000000000000000008A
:100A6C00000000000000000000000000000000007A
:100A7C00000000000000000000000000000000006A
:100A8C000000000000000F0F0D0D0D0D0000000008
:100A9C00001F1F010101010100001F1F1818180081
:100AAC001F1F0101011F1F000000001F1F0000007D
:100ABC00001F1F1918181800001F1F03071F1C0008
:100ACC000D0D0D0D0F0F00000000000000000000C8
:100ADC00000000000000000000000000000000000A
:100AEC0000000000000000000000000000000000FA
:100AFC0000000000000000000000000000000000EA
:100B0C0000000000000000000000000000000000D9
:100B1C0000000000000000000000000000000000C9
:100B2C0000000000000000000000000000000000B9
:100B3C0000000000000000000000000000000000A9
:100B4C000000000000000000000000000000000099
:100B5C000000000000000000000000000000000089
:100B6C000000000000000000000000000000000079
:100B7C0000000000000000000000FFFFFFFF8F8F4F
:100B8C008F8F8F8F8F8F8FFFFFFFFF000000000074
:100B9C0000FFFFFFFF0F0F0F0F0F0F0FFFFFFFFFE8
:100BAC000000000000FFFFFFFF1FFFFFF0F08000C0
:100BBC00000000FFFFFFFF0000E0E0FEFE1E1F0F25
:100BCC000F0F0F0F0F0F0F0F0F0F00000000000083
:100BDC000000000000000000000000000000000009
:100BEC0000000000000000000000000000000000F9
:100BFC0000000000000000000000FFFFFFFF0707DF
:100C0C00070707070707070707070700000000008B
:100C1C0000FFFFFFFF80808080808080FFFFFFFF50
:100C2C000000000000FFFFFFFF000007077F7F7838
:100C3C0078F880FFFFFFFF00001F1FFFFFF0F08020
:100C4C00809E9E9E9E9EFEFEFEFC0000000000000C
:100C5C000000000000000000000000000000000088
:100C6C00000000000000000000000000E0E0008038
:100C7C0080C0E060000000606060E3E363636000DC
:100C8C0000E0E00000C0C0C0C0C0C00000C0C0C0D8
:100C9C00C0C7C7C70707E7E7C70707E7E70707079F
:100CAC000000000000C7C7C7C7C0C00000C0C0C05C
:100CBC00C0C7C7C707C7C7C0C0C0C000C0C0C7C770
:100CCC00C7C707E7E7C70707E7E700C0C0C0C0C052
:100CDC00C0C00000C0C0C0C0C000000000000000C8
:100CEC000000000000000000000000007F7F070FE4
:100CFC000F1D38787000006060607F7F000000007E
:100D0C00007F7F00007F7F0C1E7F7700007F7F605D
:100D1C0060607F7F00007F7F030F3C7F7F000000BF
:100D2C0060600000007F7F0C1E7F7700007F7F6675
:100D3C0066667F3F007F7F0C1E7F77007F7F66603B
:100D4C006060007F7F030F3C7F7F007F7F66606069
:100D5C00606000006F6F6C7D7D0000000000000083
:100D6C0000000000000000000000606060E0E06037
:100D7C0060606000E0E06060E0E000E0E000000047
:100D8C00E0E000000000E0E06060606000E0E06037
:100D9C006060E0E000000000E0E060606060000087
:100DAC00E0E0C00080C0E0E00000E0E06060E0E077
:100DBC00E000E0E06060606000E0E06060E0E000C7
:100DCC0000E0E00000E0E0E0E0C00000E0E0606097
:100DDC0060E0E000E0E060E0E00000000000000007
:100DEC00000000000000000000000000003F3F0079
:100DFC00000000003F3F06063F3F003F3F30300001
:100E0C003F3F303000003F3F33303030003F3F0633
:100E1C00060F3F3B000000003F3F333030300000F6
:100E2C003F3F030707013F3F00003F3F33333F1F66
:100E3C001F003F3F33303030003F3F33333F1F0004
:100E4C00003F3F00003F3F30391F0F003F3F303025
:100E5C00303F3F003737363E3E00000000000000B8
:100E6C000000000000000000000000000000000076
:100E7C000000000000000000000000000000000066
:100E8C00000000000000000000F8F8D81818180046
:100E9C000000F8F898D8F8F80000FCFC00007C7C06
:100EAC00C0C000C0E07C7C0000F8F8D8181818000E
:100EBC0000F8F898D8F8F800F8F89898F8F80000C6
:100ECC000000000000000000000000000000000016
:100EDC000000000000000000000000000000000006
:100EEC0000000000000000000000000000000000F6
:100EFC0000000000000000000000000000000000E6
:100F0C000000000000000000000F0F0C0C0C0C0087
:100F1C0000000F0F01030F0E00000F0F0000000068
:100F2C00030F0C0F03000000000F0F0C0C0C0C0037
:100F3C00000F0F01030F0E000F0F01010F0F000028
:100F4C000000000000000000000000000000000095
:100F5C000000000000000000000000000000000085
:020000040030CA
:0E000000010C1F1EFF8181FF0FC00FE00F409B
:00000001FF
