:100000006BEF00F00000000000EF00F000000000C7
:0A0010000000000000000000F3D71C
:0A001C00000E9EBA010E006E1200E5
:10002600AECF01F0ABA202D0AB98AB8801C000F016
:020036001200B6
:0A003800000EACB2010E006E1200C3
:10004200F250026EF29E0500FF6A0150FE6E0050F1
:08005200FD6E02BEF28E1200E9
:0C005A001DC000F01EC001F0EFDF12001E
:10006600BC0E216E000E226E250E236E000E246E2F
:10007600260E1D6E000E1E6E000E1F6E000E206EEA
:100086001C0E196E000E1A6E000E1B6E000E1C6EF4
:10009600380E156E000E166E000E176E000E186ED8
:1000A600AC8A900EAB6E948E949C9EAA03D0AECF73
:0600B60000F0FBD7120070
:0E00BC00ACB202D00000FCD725C0ADFF120090
:0C00CA0019C000F01AC001F0B7DF1200EE
:1000D600926AB886B06ACF0EAF6EAC84C1DF030EEB
:1000E6000B6E080E0C6E770E0D6E0D2EFED70C2EB7
:1000F600FCD70B2EFAD7330E256EDDDF330E0B6ED3
:10010600BB0E0C6EDF0E0D6E0D2EFED70C2EFCD721
:100116000B2EFAD700000000990E256ECCDF330EA9
:100126000B6EBB0E0C6EDF0E0D6E0D2EFED70C2E5B
:10013600FCD70B2EFAD700000000840E256EBBDF1D
:100146000B0E0B6E260E0C6E5D0E0D6E0D2EFED773
:100156000C2EFCD70B2EFAD700000000B3DF0050A0
:10016600010A11E177DF00C080FF060E0B6E130E49
:100176000C6EAD0E0D6E0D2EFED70C2EFCD70B2E73
:0A018600FAD700000000EAD7FFD707
:020000040030CA
:0E000000010C1F1EFF8381FF0FC00FE00F4099
:00000001FF
