:04000000EDEF0BF025
:1000080000C016F001C015F0E1CF17F0E2CF18F0EC
:100018003250365C006E016A000E015A00C008F1C9
:100028003650000806E201010851000A02E143ECDB
:1000380007F001018E0E096F000E0A6F365009276E
:10004800D8B00A2B24EC09F009C1E1FF0AC1E2FF8C
:1000580000C0E6FF362A3650400A02E143EC07F0BA
:1000680016C000F015C001F017C0E1FF18C0E2FF8C
:02007800110075
:0C007A00060E0D6E0D2EFED700001200C9
:0A008600F9DF8A88F7DF8A9812007C
:0600900000000000120058
:100096000B6A0A6A096A00500402F4CF09F0F3CF2A
:1000A60008F001500502F4CF0BF0F3CF0AF0005030
:1000B6000502F3500926F4500A22E86A0B22015081
:1000C6000402F3500926F4500A22E86A0B2208C0FB
:1000D60000F009C001F00AC002F00BC003F01200E4
:1000E6008A948A96B80E01010711836EC9DF120041
:1000F600086A080E0C6E003408360450085ED8B044
:0E01060002D00826D89000360C2EF5D7120035
:100114007F0E01010715016E01C007F101AC03D088
:0C0124008A808A9202D08A908A8212009F
:100130007F0E01010715006E00C007F18A948A96B0
:10014000BF0E001600C007F1008C00C007F100C010
:0601500083FF99DF12009D
:0E0156008A988A848A9607C183FF92DF12007E
:10016400120E006E000E016E830E0024E16E0F0E5F
:100174000120E26EFF0EE66E89DF88DF8A848A98AA
:100184008A868A8878DF83CF07F18A988A967EDF09
:100194007DDF120E006E000E016E830E0024E16EF0
:0E01A4000F0E0120E26EE66A07C100F01200A5
:1001B200000E0001FB5D0AE3FB517F0807E3000E1E
:1001C200FC5D04E3FC513F0801E301D051D0FBC0C8
:1001D20007F19FDFFCC007F10733079F0733079F33
:1001E2000733079F7FDFFBC007F1A1DFBADF00C043
:1001F20000F1B7DF00C000F1FCC007F10733079F31
:100202000733079F0733079F6DDFFBC007F18FDFBF
:10021200070E0001FC15006E00C0FEF000C001F0E8
:10022200010E006E015004E000360090FF0FFBD774
:1002320000C0FEF0001CFF6F0ED0FF51010100173D
:1002420014D00001FE51010100130FD00001FE5134
:100252000101001B0AD00001FD51000AEEE0FD5130
:10026200010AEFE0FD51020AF1E000C107F172DF7D
:02027200120078
:0C0274000E0E0D6E0D2EFED700001200C5
:1002800003C104F004C105F001C102F002C103F092
:1002900005C100F006C101F0010E0101055F000E6D
:1002A000065B005001100FE004C0E9FF05C0EAFF43
:1002B00002C0E1FF03C0E2FFEECFE6FF024A032ADD
:1002C000044A052AE5D701C100F002C101F012007D
:1002D0000001FE6B030EFE5D0AE2FE51FC25E16E9D
:1002E000000EFD21E26E200EE66EFE2BF3D7FE51CE
:1002F000FC25E16E000EFD21E26EE66AFE07FE516E
:10030000FC25FF6F000EFD210101006F0A0E046E37
:10031000FBC000F0F0DE08C000F0300E0026FFC089
:10032000E1FF00C1E2FF00C0E6FF0A0E046EFBC061
:1003300000F0E1DE00C0FBF00050000A01E103D054
:080340000001FE07DCD71200EA
:0E034800ACB202D00000FCD7FBC0ADFF12002B
:0A035600000EACB2010E006E1200A2
:100360000001FD51070801E28DD07951FB5D006E5F
:100370007AC001F0000E01567BC004F0000E056E3D
:100380008ADE00C003F101C004F1FCC007F1D0DE39
:10039000FDC007F1A8DE0001FF6B7B51FF5D52E25B
:1003A000FC517F0801E26ED0FCC007F1B3DEFDC056
:1003B00007F199DEFCC007F1BBDED4DE00C000F11E
:1003C000D1DE00C000F1FCC007F1A4DEFDC007F1E2
:1003D0008ADEFCC007F1ACDE035100017625F66E23
:1003E0000101045100017721F76E000E010104BFE5
:1003F000FF0E00017821F86E0900F5CF00F000C073
:1004000001F10101034B042B001C026F0AD002C151
:1004100000F111D001C100F10ED001010151001B0A
:100420000AD00001FE51000AF2E0FE51010AF2E09A
:10043000FE51020AF2E0000100C107F18CDEFC2B44
:10044000FF2BABD7FCC007F165DEFDC007F14BDE2B
:10045000FCC007F16DDEFF0E016F026B0CD001C115
:1004600000F101C107F177DE0DD002C100F102C138
:1004700007F171DE07D00001FE51000AF0E0FE51E5
:06048000010AF3E0120086
:100486000001ED51381811E0060E006E370EE16ED0
:10049600000EE26EEC0EE96E000EEA6EEECFE6FF9F
:0E04A6000006FCE1010E006E01D0006A12009B
:1004B400000E0001EE5D04E3EE513F0801E301D0BC
:1004C40028D0000EEC5DD8A0EC6BEC517F0802E262
:1004D4007F0EEC6F000EED5DD8A0ED6BED517F0843
:1004E40002E27F0EED6FEC51ED5D06E2ECC0F0F040
:1004F400EDC0ECF0F0C0EDF0EC51ED5D0AE3ECC0C2
:10050400FBF0EEC0FCF0EFC0FDF051DE0001EC2B7F
:04051400F3D7120007
:100518008A908A820001EE6BEE5107080FE3EEC065
:1005280007F1DDDD0001ED6BED513F0805E3ECC09F
:1005380007F10DDEED2BF8D7EE2BEED78A928A80E5
:10054800EE6BEE5107080FE3EEC007F1C8DD0001BE
:10055800ED6BED513F0805E3ECC007F1F8DDED2B3D
:08056800F8D7EE2BEED71200CC
:10057000C26A311C006E0050C116070EC012C08E38
:10058000ECC000F000360090003600900050C2121F
:10059000C28070DEC282C2A201D0FDD7C4CF01F0FA
:0E05A000006AC3500012000E0112C290120039
:1005AE00ECC0F0F0EDC0F1F00001F26BF36BEF5127
:1005BE00F35D02E1EE51F25D11E2C6DE0050010A7A
:1005CE000CE1F251F025E96EF351F121EA6EEECF16
:1005DE00FBF0B3DE0001F24BF32BE9D7EEC000F0D7
:0605EE00EFC001F0120055
:1005F4000001F06BF16BF26BF051070841E301016C
:10060400076B86DDF0C007F16CDD076B8FDD000141
:10061400EF6BEF513F0811E3F151EC25F66EF25107
:10062400ED21F76E000EEE21F86E0900F5CF07F10B
:1006340090DDF14BF22BEF2BECD7400E0101076F4D
:1006440067DDF0C007F14DDD400E076F6FDD400E32
:100654000001EF6FEF517F0811E3F151EC25F66EC5
:10066400F251ED21F76E000EEE21F86E0900F5CF80
:1006740007F16FDDF14BF22BEF2BECD7F02BBCD74E
:02068400120062
:100686000001EE6BEF6BECC003F0EDC004F0ECC0C4
:1006960005F0EDC006F003C0E9FF04C0EAFFEE5026
:1006A600200A04E1EE51EF1101E110D0010EEE6FC8
:1006B600000EEF6F03C0E9FF04C0EAFF05C0E1FFCB
:1006C60006C0E2FFEECFE6FF054A062A03C001F0A8
:1006D60004C002F0034A042A01C0E9FF02C0EAFF8F
:1006E600EE50000AD8E1ECC000F0EDC001F01200B7
:1006F600000E0001F11902E1000EF01908E1ECC04C
:10070600FBF0EEC0FCF0F2C0FDF050DDDBD00001E6
:10071600F76BF86BEC51EE5DF96FED51EF59FA6F2F
:10072600F0C0F5F0F1C0F6F0F0C000F0F1C001F055
:1007360000360090013600C0F3F001C0F4F000501E
:100746000308F36F01C0F4F0000EF457010EF5250F
:10075600016E000EF621026E800EF819006E800EF4
:100766000218005C02E10150F75DD8B0ABD0F7513A
:10077600EC25FB6FF551EE25FC6FF2C0FDF016DDA2
:100786000001F751EC25FB6FF551EE5DFC6FF2C0F1
:10079600FDF00CDD800E006E800E0001F819005C85
:1007A60002E1F751000813E2F751EC5DFB6FF551DA
:1007B600EE25FC6FF2C0FDF0F9DC0001F751EC5DAF
:1007C600FB6FF551EE5DFC6FF2C0FDF0EFDC000152
:1007D600F851F61902E1F551F71938E0F551EE2511
:1007E600FB6FF951FB5FF751EE25FC6FF2C0FDF090
:1007F600DDDC0001F551EE5DFB6FF951FB5FF75152
:10080600EE25FC6FF2C0FDF0D1DC800E006E800E8E
:100816000001F819005C02E1F751000817E2F551F2
:10082600EE25FB6FF951FB5FF751EE5DFC6FF2C0F1
:10083600FDF0BCDC0001F551EE5DFB6FF951FB5F8D
:10084600F751EE5DFC6FF2C0FDF0B0DC800E0001EA
:10085600F419006E800E005C02E1000EF35D13E2F7
:10086600F7C000F0F8C001F00036009001360036FF
:1008760000900136060E0026000E01220050F327D6
:100886000150F4231CD0F551F75D036EF651F8596B
:10089600046E03C000F004C001F00036009001367B
:1008A6000036009001360A0E0026000E0122005086
:1008B600F3270150F423010EF55F000EF65BF74BAC
:0608C600F82B44D71200DC
:1008CC000001F16BF26BECC0F3F0000EECBFFF0E0D
:1008DC00F46F800EEC19006E800E000A005C0AE2C8
:1008EC00F14BF22BEC510008F36FF46B000EECBFE4
:1008FC00FF0EF45BF3C0FBF0EDC0FCF0EEC0FDF0BE
:10090C00E1DC040E0001EF6F000EF06F000E006EC4
:10091C00F051005C02E1EF51000819E2EF51ED25B6
:10092C00E16EF051EE21E26E010EEF5D006E000EF5
:10093C00F059016E0050ED25E96E0150EE21EA6E82
:10094C00EECFE6FF010EEF5F000EF05BDFD7EDC0E0
:10095C00E1FFEEC0E2FF200EE66EF151F2111AE05B
:10096C00EF6BF06BEF51ED25E96EF051EE21EA6E75
:10097C00EE50200A03E1EF4BF02BF4D7010EEF5FA2
:10098C00000EF05BEF51ED25E16EF051EE21E26EC1
:06099C002D0EE66E1200B4
:1009A2000001F16B7451000A0EE1050E7B6F070E18
:1009B200756F8C0E766F300E776F000E786F200E8B
:1009C200796F000E7A6FF151EC25E96E000EED2180
:1009D200EA6EEE5217E0F151EC25E96E000EED21C0
:1009E200EA6EEECFFBF0EEC0FCF0EFC0FDF0F0C01F
:1009F200FEF0B5DC00017B51010F006E0050EE27C6
:060A0200F12BE1D7120008
:100A08003250365C006E016A000E015A000E016E0B
:020A18001200CA
:100A1A00ECC001F1EDC002F18E0E0101036F000E70
:100A2A00046F32500327D8B0042BEEC005F1EFC093
:100A3A0006F121DC0001EE513226EEC000F0EFC0D3
:040A4A0001F01200A5
:100A4E000001CE51010A21E1060E006EEC0EE16EA0
:100A5E00000EE26E570EE96E000EEA6EEECFE6FF66
:100A6E000006FCE109DD230EEC6F000EED6F020EA9
:100A7E00EE6F000EEF6F94DD570EEC6F000EED6F04
:100A8E00060EEE6F000EEF6F8BDDCE51020A21E1E6
:100A9E00060E006EEC0EE16E000EE26E510EE96E69
:100AAE00000EEA6EEECFE6FF0006FCE1E5DC230E5B
:100ABE00EC6F000EED6F020EEE6F000EEF6F70DD3D
:100ACE00510EEC6F000EED6F060EEE6F000EEF6F17
:040ADE0067DD1200BE
:100AE2000001E951E725016E000EE7BFFF0E026E1D
:100AF200000EE9BFFF0E0222800EE3BF7F0E006EE2
:100B0200800E0218005C02E10150E35D45E2E5510E
:100B1200E325016E000EE3BFFF0E026E000EE5BF7D
:100B2200FF0E0222800EE7BF7F0E006E800E0218BB
:100B3200005C02E10150E75D2FE2EA51E825016E17
:100B4200000EE8BFFF0E026E000EEABFFF0E022289
:100B5200800EE4BF7F0E006E800E0218005C02E180
:100B62000150E45D19E2E451E625016E000EE6BF94
:100B7200FF0E026E000EE4BFFF0E0222800EE8BFDF
:100B82007F0E006E800E0218005C02E10150E85DEB
:0C0B920003E2010E006E01D0006A1200A8
:100B9E00E3C0ECF0630E0001ED6F000EEE6F8FDE22
:100BAE00630EEC6F000EED6F67DD00C0ECF001C060
:100BBE00EDF05F0EEE6FEF6B010EF06FEBDEE4C04B
:100BCE00ECF0630EED6F000EEE6F79DE630EEC6FE0
:100BDE00000EED6F51DD00C0ECF001C0EDF01F0E08
:0C0BEE00EE6FEF6B010EF06FD5DE120011
:100BFA000001E56BE66B03DF800E0118026E800EC2
:100C0A00025C02E1020E005C1FE3E30EEC6F000ED1
:100C1A00ED6F020EEE6F000EEF6FFADEE4511C1854
:100C2A0002E11B50E31905E1010E006E000E016E90
:100C3A0023D0E4511A1802E11950E31905E1020E12
:100C4A00006E000E016E18D0000EE61902E1050EC4
:100C5A00E51903E1006A016A0FD0E54BE62B030EA2
:100C6A000B6E080E0C6E770E0D6E0D2EFED70C2E27
:0A0C7A00FCD70B2EFAD7BFD71200EB
:100C840000C0E3F001C0E4F00001E86BE96BEA6B3B
:100C9400EB6BE56BE66BE76B016A80B8012A0150E8
:100CA400010A010ED8A4000E006E00C0E7F0030E86
:100CB400EC6F5CDC00C0E8F001C0E9F0000E00015C
:100CC400EA6FEB6F000EEB5D08E1000EEA5D05E1F3
:100CD400030EE95D02E1200EE85D03E3010EE56F1A
:100CE4001ED0EB51000808E1EA51000805E1E95182
:100CF400000802E1E851C80803E3010EE66F0FD0D3
:100D0400030E006EE3C0E1FFE4C0E2FFE50EE96E0E
:100D1400000EEA6EEECFE6FF0006FCE10ED0030EF5
:100D2400006EE3C0E1FFE4C0E2FFE50EE96E000EF1
:0C0D3400EA6EEECFE6FF0006FCE11200C4
:0A0D40000001EC6B8CEC02F01200D5
:100D4A00480E00018A6F030E8B6FFB0E8C6F000E2C
:100D5A008D6F480E846F120E856F000E866F000E1F
:100D6A00876FFF0E7C6FFF0E7D6F000E7E6F000E89
:100D7A007F6F560E806F030E816F000E826F000E1A
:100D8A00836FAC8A900EAB6E948E949C9EAA03D00D
:080D9A00AECF00F0FBD7120000
:100DA200E3C0ECF0000E0001E3BFFF0EED6FE4C004
:100DB200EEF0000EE4BFFF0EEF6FE5C0F0F0000EA4
:0E0DC200E5BFFF0EF16FE7C0F2F094DC120007
:100DD0008C0E0001EC6F200EED6F000EEE6F0ADC42
:020DE0001200FF
:100DE200760E576E1B0E586E21C059F022C05AF073
:100DF2005B6A5C6A070E0001686F1B0E696F21C097
:100E02006AF022C06BF06C6B6D6B060E006E510EB9
:100E1200E16E000EE26E680EE96E000EEA6EEECF33
:100E2200E6FF0006FCE1400E6E6F22502008006EC5
:100E320000C06FF0020E706F020E716F010E256E10
:100E4200060E006E5D0EE16E000EE26E6E0EE96E33
:0E0E5200000EEA6EEECFE6FF0006FCE1120095
:100E6000E4C0E8F00001E851E65D0CE3E3C0ECF01B
:100E7000E5C0EDF0E8C0EEF0E7C0EFF05AEC02F0AC
:060E8000E82BF0D7120080
:060E8600366A326A120018
:100E8C00010E0001E325E96E000EE421EA6E800EEE
:100E9C00EE18006E800E3C0A005C19E3040EE3258C
:100EAC00006E000EE421016E010E0024026E000E95
:100EBC000120036E02C0D9FF03C0DAFFDE50000828
:100ECC00006E02C0E1FF03C0E2FF00C0E6FF010EAE
:100EDC00E325E96E000EE421EA6E800E090A006E2D
:100EEC00800EEE18005C19E3040EE325006E000E74
:100EFC00E421016E010E0024026E000E0120036E2F
:100F0C0002C0D9FF03C0DAFFDE500008006E02C039
:0C0F1C00E1FF03C0E2FF00C0E6FF12008E
:100F28000001746B886B896B939A9398939493964A
:100F3800939093928A9A120E006E000E016E830EA1
:100F48000024E16E0F0E0120E26EE66A8A948A960A
:100F58008A908A828A8A3F0E836E43EC00F0C00E24
:100F6800836E43EC00F08A808A923F0E836E43ECD6
:0C0F780000F0C00E836E43EC00F012008D
:100F8400000E0001E55D04E3E5517F0801E301D0B3
:100F940029D0000EE35DD8A0E36BE3513F0802E2E1
:100FA4003F0EE36F000EE45DD8A0E46BE4513F080C
:100FB40002E23F0EE46FE351E45D06E2E3C0E7F0D2
:100FC400E4C0E3F0E7C0E4F0E351E45D0BE3E5C023
:100FD400FBF0E3C0FCF0E6C0FDF0D9EC00F000014A
:060FE400E32BF2D712001E
:100FEA0000C002F001C003F00001E751611904E1F9
:100FFA00E851621901E10FD0060E006E02C0E1FF4E
:10100A0003C0E2FF5D0EE96E000EEA6EEECFE6FF68
:10101A000006FCE10ED0060E006E02C0E1FF03C01E
:10102A00E2FFE30EE96E000EEA6EEECFE6FF00067F
:04103A00FCE11200C3
:10103E000001D951411811E0060E006E3D0EE16E11
:10104E00000EE26ED50EE96E000EEA6EEECFE6FFF2
:10105E000006FCE1010E006E15D0DA51421811E0C7
:10106E00060E006E3D0EE16E000EE26ED50EE96EBE
:10107E00000EEA6EEECFE6FF0006FCE1010E006EFA
:06108E0001D0006A12000F
:10109400070E0001E36F3F0EE46FE56B010EE66F90
:1010A4006FDF070EE36F3F0EE46F7F0EE56F010EF7
:1010B400E66F66DFEC6B7F0EED6F080EEE6F010ED0
:1010C400EF6F5AEC02F0EC6B7F0EED6F3F0EEE6F9C
:0A10D400010EEF6F5AEC02F012005B
:1010DE00B886B06ACF0EAF6EAC8430DE020E0B6EE9
:1010EE00040E0C6EBA0E0D6E0D2EFED70C2EFCD706
:0E10FE000B2EFAD700009D8AF28CF28E1200A3
:10110C008C0E0001EC6F240EED6F000EEE6FFAECFE
:10111C0002F0290E0B6E960E0C6E7F0E0D6E0D2EC0
:10112C00FED70C2EFCD70B2EFAD7EC6B8CEC02F006
:02113C0012009F
:10113E0064DC800E0118026E800E000A025C02E171
:10114E00080E005CD8A073D0D50E0001EC6F000E17
:10115E00ED6F020EEE6F000EEF6F58DCD6511E18BB
:10116E0002E11D50D5192BE15D0EEC6F000EED6FF7
:10117E00060EEE6F000EEF6F49DC060E006EE30EEC
:10118E00E16E000EE26E6E0EE96E000EEA6EEECFAE
:10119E00E6FF0006FCE1D70E006E000E016E1EDFAC
:1011AE00060E006E6E0EE16E000EE26ED70EE96E4A
:1011BE00000EEA6EEECFE6FF0006FCE1B9D7D6517F
:1011CE00241802E12350D5190AE1430EEC6F000EEC
:1011DE00ED6F060EEE6F000EEF6F18DCA9D7D6512D
:1011EE00201802E11F50D51921E14B0EEC6F000EB5
:1011FE00ED6F060EEE6F000EEF6F08DC4BC049F080
:10120E004CC04AF04BC0E3F04CC0E4F0C1DCE2DD70
:10121E000A0E0B6E220E0C6EA10E0D6E0D2EFED74B
:10122E000C2EFCD70B2EFAD70BDC82D725DE120044
:0A123E0074DEEC6B8CEC02F0120081
:10124800AECF01F0ABA202D0AB98AB8801C000F0E2
:02125800120082
:10125A00190E0001D96F220EDA6F030EDB6FDC6BF9
:10126A00B2DD040E006EE30EE16E000EE26ED90EE0
:10127A00E96E000EEA6EEECFE6FF0006FCE1010E13
:10128A00E76F8ADDDD0E006E000E016EF6DC030EDE
:10129A00006ED60EE16E000EE26EDD0EE96E000EF5
:1012AA00EA6EEECFE6FF0006FCE10001D85309E042
:1012BA00D551000A06E13FDD020E006E000E016EF6
:1012CA006CD0D65303E1D75301E12CD0D551000A93
:1012DA0029E131DD78DD0E0EDA25006E00C0DAF084
:1012EA00040E006EE30EE16E000EE26ED90EE96E98
:1012FA00000EEA6EEECFE6FF0006FCE1010EE76F94
:10130A004BDD010E0001D56F070E0B6EC20E0C6E7F
:10131A00D80E0D6E0D2EFED70C2EFCD70B2EFAD73B
:10132A000000B0D7D85309E0D551010A06E103DD20
:10133A00030E006E000E016E30D0D65303E1D75370
:10134A0001E12AD0D551010A27E1F5DC3CDD0E0E78
:10135A00DA5D006E00C0DAF0040E006EE30EE16E94
:10136A00000EE26ED90EE96E000EEA6EEECFE6FFCF
:10137A000006FCE1010EE76F0FDD0001D56B070ED9
:10138A000B6EC20E0C6ED80E0D6E0D2EFED70C2EE5
:0C139A00FCD70B2EFAD7000075D712000C
:1013A60000C0DBF001C0DCF00001D951D525006E8C
:1013B60000C0D5F0DA51D625006E00C0D6F0D50EA5
:1013C600E36F000EE46F5FDD060E006EDBC0E1FF2B
:1013D600DCC0E2FFD50EE96E000EEA6EEECFE6FF48
:0613E6000006FCE112000C
:1013EC0000C002F001C003F0060E006E02C0E1FF67
:1013FC0003C0E2FF430EE96E000EEA6EEECFE6FF8D
:06140C000006FCE11200E5
:101412000900F5CFE6FF0006FBE10106F9E1120043
:101422000001D56B0E0ED55D14E2D5C000F000367A
:10143200009000360090080E002600C0E3F0005035
:10144200010FE46F3F0EE56F010EE66F9ADDD52BBB
:04145200E9D71200C4
:10145600D5C0E3F0D6C0E4F00001D751D525E56F3D
:0E146600D851D625E66FDBC0E7F0F7DC1200A8
:10147400D5C0ECF0D6C0EDF0D7C0EEF00001EF6BB4
:0A148400010EF06FD1EC04F012002D
:10148E00040E006EE30EE16E000EE26ED50EE96EF6
:10149E00000EEA6EEECFE6FF0006FCE1040E006ED3
:1014AE00E70EE16E000EE26EDB0EE96E000EEA6EE6
:0E14BE00EECFE6FF0006FCE171EC05F0120037
:1014CC0000C0DBF001C0DCF0E00E006E000E016E1F
:1014DC0042EC06F0030E006EDD0EE16E000EE26EC5
:1014EC00E00EE96E000EEA6EEECFE6FF0006FCE1C0
:1014FC00DE530FE0D651010F006E00C0D6F0800E07
:10150C00D619006E800E320A005C02E3320ED66FE2
:10151C001FD0DD530EE0D605006E00C0D6F0800E55
:10152C00090A006E800ED619005C02E3090ED66F14
:10153C000FD0060E006EDBC0E1FFDCC0E2FFD50E63
:10154C00E96E000EEA6EEECFE6FF0006FCE10ED06F
:10155C00060E006EDBC0E1FFDCC0E2FFD50EE96ECB
:0E156C00000EEA6EEECFE6FF0006FCE1120074
:10157A00D5C0E9FFD6C0EAFFEECF01F0800E011810
:10158A00006E800E7B0A005C24E3040E0001D52560
:10159A00E16E000ED621E26EFF0EE66E040ED52530
:1015AA00006E000ED621016E010E0024E16E000EBF
:1015BA000120E26E010EE66ED9C0E9FFDAC0EAFF49
:1015CA00D9C0E1FFDAC0E2FF020EEE26010E006E7C
:1015DA0032D0D5C0E9FFD6C0EAFFEECF01F0800EC7
:1015EA00050A006E800E0118005C24E30001040E57
:1015FA00D525E16E000ED621E26E010EE66E040ECE
:10160A00D525006E000ED621016E010E0024E16E72
:10161A00000E0120E26EFF0EE66ED7C0E9FFD8C0C9
:10162A00EAFFD7C0E1FFD8C0E2FF020EEE26010EA4
:08163A00006E01D0006A1200ED
:1016420000C002F001C003F0D7C000F00032009EDB
:1016520000BC008E00AE02D0D8B0002A0001D651E4
:101662000026000ED6BFFF0E016E000E00BEFF0E5A
:10167200012200C004F0800EDB19006E800E3E0ACB
:10168200005C35E2800E006E800EDCBF7F0E005CD7
:1016920002E1DC51045C0FE2D651010F006E00C082
:1016A200D6F0800ED619006E800E320A005C02E37C
:1016B200320ED66F0DD0D605006E00C0D6F0800E69
:1016C200090A006E800ED619005C02E3090ED66F7D
:1016D200060E006E02C0E1FF03C0E2FFD50EE96E06
:1016E200000EEA6EEECFE6FF0006FCE10ED0060E1B
:1016F200006E02C0E1FF03C0E2FFD50EE96E000EEC
:0C170200EA6EEECFE6FF0006FCE11200EC
:10170E0043EC07F0FDEC05F000C0D5F001C0D6F0BB
:10171E00000E011802E1010E00180FE1190EEC6F18
:10172E00000EED6F020EEE6F000EEF6FD7EC02F0B3
:10173E00020E006E000E016E16D0000ED61902E1DA
:10174E00020ED51905E1010E006E000E016E0BD0D2
:10175E001B0EEC6F000EED6F020EEE6F000EEF6FB4
:08176E00D7EC02F0CFD7120006
:101776008C0E0001EC6F280EED6F000EEE6FFAEC8A
:1017860002F0290E0B6E960E0C6E7F0E0D6E0D2E50
:10179600FED70C2EFCD70B2EFAD7EC6B8CEC02F096
:0217A60012002F
:1017A8008C0E0001EC6F2C0EED6F000EEE6FFAEC54
:1017B80002F0290E0B6E960E0C6E7F0E0D6E0D2E1E
:1017C800FED70C2EFCD70B2EFAD7EC6B8CEC02F064
:0217D8001200FD
:1017DA0045EC19F0FF0E926E010E0001726F010EB8
:1017EA00736F496A4A6A76DC25DDF1EC06F02FEF61
:1017FA0010F087DC010E2F6E43EF10F030C0D5F0E9
:10180A0027DD00C02FF043EF10F03FDC05DE2C0E81
:10181A00D56F000ED66F760ED76F27DE260ED56FE0
:10182A00000ED66FD76B21DE49C0E3F04AC0E4F060
:10183A00CFEC05F0060E006ED50EE16E000EE26EDC
:10184A00570EE96E000EEA6EEECFE6FF0006FCE1E7
:10185A00CF0E006E000E016E34DE060E006E570EBD
:10186A00E16E000EE26ECF0EE96E000EEA6EEECF6A
:10187A00E6FF0006FCE1060E006ED50EE16E000ED4
:10188A00E26E6E0EE96E000EEA6EEECFE6FF00061D
:10189A00FCE1CF0E006E000E016E80DD060E006EBA
:1018AA006E0EE16E000EE26ECF0EE96E000EEA6E6B
:1018BA00EECFE6FF0006FCE1060E006ED50EE16EE5
:1018CA00000EE26E680EE96E000EEA6EEECFE6FFDB
:1018DA000006FCE1060E006EDB0EE16E000EE26E03
:1018EA006E0EE96E000EEA6EEECFE6FF0006FCE130
:1018FA00CF0E006E000E016E9FDE060E006E680EA1
:10190A00E16E000EE26ECF0EE96E000EEA6EEECFC9
:10191A00E6FF0006FCE1060E006ED50EE16E000E33
:10192A00E26E6E0EE96E000EEA6EEECFE6FF00067C
:10193A00FCE1060E006EDB0EE16E000EE26E570E43
:10194A00E96E000EEA6EEECFE6FF0006FCE19ADDD4
:10195A0000520BE0252A030E255C02E3030E256ED6
:10196A0025500008006E00C072F0060E006ED50EFB
:10197A00E16E000EE26E6E0EE96E000EEA6EEECFBA
:10198A00E6FF0006FCE1060E006EDB0EE16E000EBD
:10199A00E26E680EE96E000EEA6EEECFE6FF000612
:1019AA00FCE170DD005208E0252A030E255C02E303
:1019BA00030E256E25C072F000016E0ED56F000E63
:1019CA00D66F490ED76F000ED86F4A0ED96F000E28
:1019DA00DA6FCEDD005213E049C0E3F04AC0E4F00A
:1019EA00CFEC05F0400E6E6F22502008006E00C04A
:1019FA006FF0020E706F020E716FF1EC06F0495033
:101A0A000A0A06E1010E2F6E496A4A6AAFDE7CD0E5
:101A1A004A500A0A06E1010E2F6E496A4A6ABFDE77
:101A2A0073D0060E006ED50EE16E000EE26E6E0EDB
:101A3A00E96E000EEA6EEECFE6FF0006FCE1000159
:101A4A00010EDB6F03DD060E006ED50EE16E000E91
:101A5A00E26E570EE96E000EEA6EEECFE6FF000662
:101A6A00FCE10001010EDB6FF1DC060E006ED50E03
:101A7A00E16E000EE26E680EE96E000EEA6EEECFBF
:101A8A00E6FF0006FCE10001010EDB6FDFDCC4DCCF
:101A9A004E0E0C6EEB0E0D6E0D2EFED70C2EFCD7D5
:101AAA00060E006ED50EE16E000EE26E570EE96E5E
:101ABA00000EEA6EEECFE6FF0006FCE10001DB6BEA
:101ACA00C5DC060E006ED50EE16E000EE26E680EE3
:101ADA00E96E000EEA6EEECFE6FF0006FCE10001B9
:101AEA00DB6BB4DC060E006ED50EE16E000EE26E04
:101AFA006E0EE96E000EEA6EEECFE6FF0006FCE11E
:101B0A000001DB6BA3DC96D6B9D2F1EC06F04AEC05
:101B1A0008F082DC290ED56F000ED66F760ED76FCD
:101B2A00A4DC330ED56F000ED66FD76B9EDC49C08E
:101B3A00E3F04AC0E4F0CFEC05F0E4DD00C0CEF0FB
:101B4A0043EC07F0150E0B6E4B0E0C6EBE0E0D6EAF
:101B5A000D2EFED70C2EFCD70B2EFAD7000027EC41
:101B6A0005F09FEC08F0060E006ED50EE16E000E31
:101B7A00E26E6E0EE96E000EEA6EEECFE6FF00062A
:101B8A00FCE1CF0E006E000E016E08DC060E006E40
:101B9A006E0EE16E000EE26ECF0EE96E000EEA6E78
:101BAA00EECFE6FF0006FCE1060E006ED50EE16EF2
:101BBA00000EE26E6E0EE96E000EEA6EEECFE6FFE2
:101BCA000006FCE1060E006EDB0EE16E000EE26E10
:101BDA00570EE96E000EEA6EEECFE6FF0006FCE154
:101BEA0051DC00520BE0252A030E255C02E3030EAA
:101BFA00256E25500008006E00C072F0060E006EB9
:101C0A00D50EE16E000EE26E6E0EE96E000EEA6E01
:101C1A00EECFE6FF0006FCE1060E006EDB0EE16E7B
:101C2A00000EE26E510EE96E000EEA6EEECFE6FF8E
:101C3A000006FCE127DC005208E0252A030E255C99
:101C4A0002E3030E256E25C072F00001CE51010A8F
:101C5A00D8A4DAD0060E006ED50EE16E000EE26E42
:101C6A00510EE96E000EEA6EEECFE6FF0006FCE1C9
:101C7A00CF0E006E000E016EF6EC09F0060E006E35
:101C8A00510EE16E000EE26ECF0EE96E000EEA6EA4
:101C9A00EECFE6FF0006FCE1060E006ED50EE16E01
:101CAA00000EE26E570EE96E000EEA6EEECFE6FF08
:101CBA000006FCE1CF0E006E000E016E02DC060E7D
:101CCA00006E570EE16E000EE26ECF0EE96E000E48
:101CDA00EA6EEECFE6FF0006FCE1060E006EEC0EA1
:101CEA00E16E000EE26E570EE96E000EEA6EEECF5E
:101CFA00E6FF0006FCE143EC02F0005214E0230E7A
:101D0A00EC6F000EED6F020EEE6F000EEF6FD7EC68
:101D1A0002F0570EEC6F000EED6F060EEE6F000E1E
:101D2A00EF6FD7EC02F06E0ED56F000ED66F490E2C
:101D3A00D76F000ED86F4A0ED96F000EDA6F18DC13
:101D4A0000523CE049C0E3F04AC0E4F0CFEC05F0B1
:101D5A00400E6E6F22502008006E00C06FF0020E17
:101D6A00706F020E716FF1EC06F049C04BF04AC079
:101D7A004CF01F0EEC6F000EED6F020EEE6F000EB0
:101D8A00EF6FD7EC02F04B0EEC6F000EED6F060E04
:101D9A00EE6F000EEF6FD7EC02F00B0E0B6E260EF5
:101DAA000C6E5D0E0D6E0D2EFED70C2EFCD70B2E73
:101DBA00FAD70000000027EC05F0D3D6060E006E15
:101DCA00D50EE16E000EE26E6E0EE96E000EEA6E40
:101DDA00EECFE6FF0006FCE11FEC08F0005214E02B
:101DEA001D0EEC6F000EED6F020EEE6F000EEF6F20
:101DFA00D7EC02F06E0EEC6F000EED6F060EEE6F72
:101E0A00000EEF6FD7EC02F0CE51020AD8A488D0A8
:101E1A00060E006ED50EE16E000EE26E570EE96EEA
:101E2A00000EEA6EEECFE6FF0006FCE1CF0E006E72
:101E3A00000E016EF6EC09F0060E006E570EE16E0A
:101E4A00000EE26ECF0EE96E000EEA6EEECFE6FFEE
:101E5A000006FCE1060E006ED50EE16E000EE26E83
:101E6A00510EE96E000EEA6EEECFE6FF0006FCE1C7
:101E7A00CF0E006E000E016E66EC0AF0060E006EC2
:101E8A00510EE16E000EE26ECF0EE96E000EEA6EA2
:101E9A00EECFE6FF0006FCE1060E006EEC0EE16EE8
:101EAA00000EE26E510EE96E000EEA6EEECFE6FF0C
:101EBA000006FCE143EC02F0005214E0230EEC6F42
:101ECA00000EED6F020EEE6F000EEF6FD7EC02F010
:101EDA00510EEC6F000EED6F060EEE6F000EEF6FF7
:101EEA00D7EC02F06E0ED56F000ED66F490ED76F83
:101EFA00000ED86F4A0ED96F000EDA6FBDEC0AF0E9
:101F0A0000520EE0020E0B6E040E0C6EBA0E0D6E2F
:101F1A000D2EFED70C2EFCD70B2EFAD7000021D699
:101F2A0049500A0A0CE1010E2F6E496A4A6A0001F9
:101F3A00CE51010A02E11ADC01D031DC89D04A50C3
:101F4A000A0A0CE10001010E2F6E496A4A6ACE5153
:101F5A00020A02E10BDC01D022DC7AD0060E006E06
:101F6A00D50EE16E000EE26E6E0EE96E000EEA6E9E
:101F7A00EECFE6FF0006FCE10001010EDB6F2BEC61
:101F8A000AF0060E006ED50EE16E000EE26E570ED6
:101F9A00E96E000EEA6EEECFE6FF0006FCE10001F4
:101FAA00010EDB6F2BEC0AF0060E006ED50EE16E09
:101FBA00000EE26E510EE96E000EEA6EEECFE6FFFB
:101FCA000006FCE10001010EDB6F2BEC0AF011ECBC
:101FDA000AF04E0E0C6EEB0E0D6E0D2EFED70C2E69
:101FEA00FCD7060E006ED50EE16E000EE26E570E9D
:101FFA00E96E000EEA6EEECFE6FF0006FCE1000194
:10200A00DB6B2BEC0AF0060E006ED50EE16E000EAD
:10201A00E26E510EE96E000EEA6EEECFE6FF0006A2
:10202A00FCE10001DB6B2BEC0AF0060E006ED50E0C
:10203A00E16E000EE26E6E0EE96E000EEA6EEECFF3
:10204A00E6FF0006FCE10001DB6B2BEC0AF089D508
:10205A0015D014D02F50000AD8B4FEEF0BF02F5031
:10206A00010AD8B403EF0CF02F50020AD8B40AEFD1
:10207A000CF02F50030AD8B448D5EBD7FCEF0BF07D
:02208A00FFD77E
:10328A0010EE19F01E0E006E010E016E6C0EF66E37
:0E329A00320EF76E000EF86E09EC0AF012000C
:10208C000000000000000000000000000000000044
:10209C0000000000000000000000FFFFFFFF8F8F1A
:1020AC008F8F8F8F8F8F8FFFFFFFFF00000000003F
:1020BC0000FFFFFFFF0F0F0F0F0F0F0FFFFFFFFFB3
:1020CC000000000000FFFFFFFF1FFFFFF0F080008B
:1020DC00000000FFFFFFFF0000E0E0FEFE1E1F0FF0
:1020EC000F0F0F0F0F0F0F0F0F0F0000000000004E
:1020FC0000000000000000000000000000000000D4
:10210C0000000000000000000000000000000000C3
:10211C0000000000000000000000FFFFFFFF0707A9
:10212C000707070707070707070707000000000056
:10213C0000FFFFFFFF80808080808080FFFFFFFF1B
:10214C000000000000FFFFFFFF000007077F7F7803
:10215C0078F880FFFFFFFF00001F1FFFFFF0F080EB
:10216C00809E9E9E9E9EFEFEFEFC000000000000D7
:10217C000000000000000000000000000000000053
:10218C000000000000000000000000000000000043
:10219C000000000000000000000003030303000027
:1021AC000000000000000000000000000000000023
:1021BC0000070707070707070707070707070707AA
:1021CC0000000000000707070700000000000000E7
:1021DC0000070707070707000000000000000707BB
:1021EC00070707070707070707070000000000009D
:1021FC0000000000000000000000000000000000D3
:10220C0000000000000000000000000000000000C2
:10221C0000000000000000000000000000000000B2
:10222C00000000000000C0C0C0C0000000000000A2
:10223C0000E0E0606060E0E00000E0E00000000032
:10224C00E0E0606060E0E00000E0E00000E0E00062
:10225C0000E0E0606060600000E0E06060E0E000F2
:10226C000000000000000000000000000000000062
:10227C000000000000000000000000000000000052
:10228C000000000000000000000000000000000042
:10229C000000000000000000000000000000000032
:1022AC0000000000000060607F7F606000000000A4
:1022BC00007F7F060606070700007F7F60606000D6
:1022CC007F7F0606067F7F000001037F7F030100EE
:1022DC00007F7F6660606000007F7F0C1E7F730054
:1022EC0000000000000000000000000000000000E2
:1022FC0000000000000000000000000000000000D2
:10230C0000000000000000000000000000000000C1
:10231C0000000000000000000000000000000000B1
:10232C00000000000000B0B0B0B0F0F00000000001
:10233C0000F8F8989898F8F80000F8F800000000F9
:10234C00F8F8989898F8F8000078F8C0C0F8780079
:10235C0000F8F8981818180000F8F81898F8F80011
:10236C00F8F8989898980000000000000000000011
:10237C000000000000000000000000000000000051
:10238C000000000000000000000000000000000041
:10239C000000000000000000000000000000000031
:1023AC000000000000000F0F0D0D0D0D00000000CF
:1023BC00001F1F010101010100001F1F1818180048
:1023CC001F1F0101011F1F000000001F1F00000044
:1023DC00001F1F1918181800001F1F03071F1C00CF
:1023EC000D0D0D0D0F0F000000000000000000008F
:1023FC0000000000000000000000000000000000D1
:10240C0000000000000000000000000000000000C0
:10241C0000000000000000000000000000000000B0
:10242C0000000000000000000000000000000000A0
:10243C000000000000000000000000000000000090
:10244C000000000000000000000000000000000080
:10245C000000000000000000000000000000000070
:10246C000000000000000000000000000000000060
:10247C000000000000000000000000000000000050
:10248C000000000000000000000000000000000040
:10249C0000000000000000000000FFFFFFFF8F8F16
:1024AC008F8F8F8F8F8F8FFFFFFFFF00000000003B
:1024BC0000FFFFFFFF0F0F0F0F0F0F0FFFFFFFFFAF
:1024CC000000000000FFFFFFFF1FFFFFF0F0800087
:1024DC00000000FFFFFFFF0000E0E0FEFE1E1F0FEC
:1024EC000F0F0F0F0F0F0F0F0F0F0000000000004A
:1024FC0000000000000000000000000000000000D0
:10250C0000000000000000000000000000000000BF
:10251C0000000000000000000000FFFFFFFF0707A5
:10252C000707070707070707070707000000000052
:10253C0000FFFFFFFF80808080808080FFFFFFFF17
:10254C000000000000FFFFFFFF000007077F7F78FF
:10255C0078F880FFFFFFFF00001F1FFFFFF0F080E7
:10256C00809E9E9E9E9EFEFEFEFC000000000000D3
:10257C00000000000000000000000000000000004F
:10258C00000000000000000000000000E0E00080FF
:10259C0080C0E060000000606060E3E363636000A3
:1025AC0000E0E00000C0C0C0C0C0C00000C0C0C09F
:1025BC00C0C7C7C70707E7E7C70707E7E707070766
:1025CC000000000000C7C7C7C7C0C00000C0C0C023
:1025DC00C0C7C7C707C7C7C0C0C0C000C0C0C7C737
:1025EC00C7C707E7E7C70707E7E700C0C0C0C0C019
:1025FC00C0C00000C0C0C0C0C0000000000000008F
:10260C000000000000000000000000007F7F070FAA
:10261C000F1D38787000006060607F7F0000000044
:10262C00007F7F00007F7F0C1E7F7700007F7F6024
:10263C0060607F7F00007F7F030F3C7F7F00000086
:10264C0060600000007F7F0C1E7F7700007F7F663C
:10265C0066667F3F007F7F0C1E7F77007F7F666002
:10266C006060007F7F030F3C7F7F007F7F66606030
:10267C00606000006F6F6C7D7D000000000000004A
:10268C0000000000000000000000606060E0E060FE
:10269C0060606000E0E06060E0E000E0E00000000E
:1026AC00E0E000000000E0E06060606000E0E060FE
:1026BC006060E0E000000000E0E06060606000004E
:1026CC00E0E0C00080C0E0E00000E0E06060E0E03E
:1026DC00E000E0E06060606000E0E06060E0E0008E
:1026EC0000E0E00000E0E0E0E0C00000E0E060605E
:1026FC0060E0E000E0E060E0E000000000000000CE
:10270C00000000000000000000000000003F3F003F
:10271C00000000003F3F06063F3F003F3F303000C7
:10272C003F3F303000003F3F33303030003F3F06FA
:10273C00060F3F3B000000003F3F333030300000BD
:10274C003F3F030707013F3F00003F3F33333F1F2D
:10275C001F003F3F33303030003F3F33333F1F00CB
:10276C00003F3F00003F3F30391F0F003F3F3030EC
:10277C00303F3F003737363E3E000000000000007F
:10278C00000000000000000000000000000000003D
:10279C00000000000000000000000000000000002D
:1027AC00000000000000000000F8F8D8181818000D
:1027BC000000F8F898D8F8F80000FCFC00007C7CCD
:1027CC00C0C000C0E07C7C0000F8F8D818181800D5
:1027DC0000F8F898D8F8F800F8F89898F8F800008D
:1027EC0000000000000000000000000000000000DD
:1027FC0000000000000000000000000000000000CD
:10280C0000000000000000000000000000000000BC
:10281C0000000000000000000000000000000000AC
:10282C000000000000000000000F0F0C0C0C0C004E
:10283C0000000F0F01030F0E00000F0F000000002F
:10284C00030F0C0F03000000000F0F0C0C0C0C00FE
:10285C00000F0F01030F0E000F0F01010F0F0000EF
:10286C00000000000000000000000000000000005C
:10287C00000000000000000000000000000000004C
:10288C00000000000000000000000000000000003C
:10289C00000000000000000000000000000000002C
:1028AC00000000000000000000000000000000001C
:1028BC00000000000000000000000000000000000C
:1028CC0000000000000000000000000000000000FC
:1028DC0000000000000000000000000000000000EC
:1028EC0000000000000000000000000000000000DC
:1028FC0000000000000000000000000000000000CC
:10290C0000000000000000000000000000000000BB
:10291C0000000000000000000000000000000000AB
:10292C00000000000000000000000000000000009B
:10293C00000000000000000000000000000000008B
:10294C00000000000000000000000000000000007B
:10295C00000000000000000000000000000000006B
:10296C00000000000000000000000000000000005B
:10297C00000000000000000000000000000000004B
:10298C00000000000000000000000000000000003B
:10299C00000000000000000000000000000000002B
:1029AC00000000000000000000000000000000001B
:1029BC000000808080808080F0F0F0F0F0F0F0F08B
:1029CC00F0F0F0F0F0F0F0F080808080808000007B
:1029DC0000000000000000000000000000000000EB
:1029EC0000000000000000000000000000000000DB
:1029FC0000000000000000000000000000000000CB
:102A0C0000000000000000000000000000000000BA
:102A1C0000000000000000000000000000000000AA
:102A2C00000000000000000000000000000000009A
:102A3C00000001010104040607070F8F0FFFFFFFC1
:102A4C00FFFFFF0F8F0707070404040001010000BC
:102A5C00000000000000000000000000000000006A
:102A6C00000000000000000000000000000000005A
:102A7C00000000000000000000000000000000004A
:102A8C00000000000000000000000000000000003A
:102A9C00000000000000000000C0C00000000000AA
:102AAC0000C0C0C0C000808040404040C0C080809A
:102ABC000000C0C0000000C0C0C0C000000000008A
:102ACC0000C0C00000000000C0C0C0C00000C0C0FA
:102ADC00C0C00000C0C08080000000C0C0C0C000EA
:102AEC0000C0C0C0C00000000000000000000000DA
:102AFC0000000000000000000000000000000000CA
:102B0C0000000000000000000000000000000000B9
:102B1C00000000000000000000010102021E1E1F48
:102B2C001F0303010100070F081010101F1F0F0FC8
:102B3C0000000F0F1010101F1F0F0F0000000000DF
:102B4C00000F0F10000E0E101F1F0F0F00001F1F85
:102B5C001F1F00001F0F00000101020F1F1F1F008D
:102B6C0000171717170000000000000000000000FD
:102B7C000000000000000000000000000000000049
:102B8C000000000000000000000000000000000039
:102B9C000000000000000000000000000000000029
:102BAC000000000000000000000000000000000019
:102E1C00000000000000000000E0F0D01010107066
:102E2C006000C0E0301010F0E0C000F0F0E0C0C076
:102E3C00F0F0F00010F0F09090B0301000000000B6
:102E4C00000000000000F0F0101010F0F00010F086
:102E5C00F0000000F0F00000F0F0F09090B03000C6
:102E6C0010F0F0F09090F0E0000000000000000086
:102E7C000000000000000000000000000000000046
:102E8C000000000000000000000000000000000036
:102E9C00000000000000000000070F0F08080B0FD7
:102EAC0007000F0F0303030F0F0F000F0F0003009A
:102EBC000F0F0F00080F0F09090D0C080000000080
:102ECC000000000000000F0F0808080F0F0001039E
:102EDC00070E0C06070300080F0F0F09090D0C0055
:102EEC00080F0F0F03070F0C00000000000000007C
:102EFC0000000000000000000000000000000000C6
:102F0C0000000000000000000000000000000000B5
:102F1C0000000000000000000000000000000000A5
:102F2C000000000000000000000000000000000095
:102F3C000000000000000000000000000000000085
:102F4C000000000000000000000000000000000075
:102F5C000000000000000000000000000000000065
:102F6C000000000000000000000000000000000055
:102F7C000000000000000000000000000000000045
:102F8C000000000000000000000000000000000035
:102F9C000000000000000000000000000000000025
:102FAC000000000000000000000000000000000015
:102FBC000000000000000000000000000000000005
:102FCC0000000000000000000000000000000000F5
:102FDC0000000000000000000000000000000000E5
:102FEC0000000000000000000000000000000000D5
:102FFC0000000000000000000000000000000000C5
:10300C0000000000000000000000000000000000B4
:10301C0000000000000000000000000000000000A4
:10302C000000000000000000000000000000000094
:10303C000000000000000000000000000000000084
:10304C000000000000000000000000000000000074
:10305C000000000000000000000000000000000064
:10306C000000000000000000000000000000000054
:10307C000000000000000000000000000000000044
:10308C00000000000000005F0000000700070014B3
:10309C007F147F14242A7F2A122313086462364972
:1030AC005522500005030000001C22410000412263
:1030BC001C00082A1C2A0808083E0808005030008A
:1030CC00000808080808003030000020100804022E
:1030DC003E5149453E00427F4000426151494621E4
:1030EC0041454B311814127F1027454545393C4A50
:1030FC0049493001710905033649494936064949A0
:10310C00291E003636000000563600000008142236
:10311C00411414141414412214080002015109061C
:10312C00324979413E7E1111117E7F494949363E23
:10313C00414141227F4141221C7F494949417F093C
:10314C000901013E414151327F0808087F00417F4F
:10315C0041002040413F017F081422417F40404004
:10316C00407F0204027F7F0408107F3E4141413EB4
:10317C007F090909063E4151215E7F0919294646FE
:10318C004949493101017F01013F4040403F1F2027
:10319C0040201F7F2018207F6314081463030478D9
:1031AC000403615149454300007F4141020408106A
:1031BC002041417F00000402010204404040404095
:1031CC00000102040020545454787F484444383899
:1031DC0044444420384444487F3854545418087E9E
:1031EC00090102081454543C7F0804047800447DFF
:1031FC0040002040443D00007F10284400417F40A7
:10320C00007C041804787C0804047838444444385E
:10321C007C14141408081414187C7C080404084842
:10322C0054545420043F4440203C4040207C1C20FB
:10323C0040201C3C4030403C44281028440C50504A
:10324C00503C4464544C44000836410000007F005C
:10325C0000004136080008082A1C08081C2A080827
:02326C00679663
:02326E00669662
:0232700068965E
:02327200999928
:013274000257
:013275000C4C
:02327600699657
:013278000154
:03327900504300BF
:03327C00503100CE
:03327F00503100CB
:01328200004B
:01328300004A
:013284003019
:013285000048
:03328600503200C3
:013289000044
:020000040030CA
:0E000000010C1F1EFF8381FF0FC00FE00F4099
:00000001FF
